:020000040800F2
:100000000040012045690008490900084B09000823
:100010004D0900084F0900085109000800000000C0
:10002000000000000000000000000000530900086C
:100030005509000800000000570900085909000888
:100040008D690008610900088D6900088D69000844
:100050008D690008690900086B0900088D690008AE
:100060008D6900088D6900088D6900088D69000898
:100070008D6900088D690008750900088D69000800
:100080008D6900088D6900088D6900088D69000878
:10009000850900088D6900088D6900089509000828
:1000A0008D6900088D6900088D6900088D69000858
:1000B0008D6900088D6900088D690008A509000890
:1000C000B50900088D6900088D690008C509000898
:1000D0008D690008D50900088D6900088D69000840
:1000E0008D690008E50900088D6900088D69000820
:1000F0008D690008000000008D6900088D69000806
:100100008D6900088D6900088D6900088D690008F7
:100110008D6900088D6900088D69000800000000E5
:100120008D690008000000000000000000000000D1
:0C01300000000000000000005FF808F173
:10013C0010B5054C237833B9044B13B10448AFF315
:10014C0000800123237010BD74010020000000000A
:10015C00E869000808B5034B1BB103490348AFF32A
:10016C00008008BD0000000078010020E86900084C
:10017C002DE9F0438BB00024059406940794089461
:10018C000994454BDA6942F00402DA61DA6902F04B
:10019C0004020192019ADA6942F02002DA61DA690A
:1001AC0002F020020292029ADA6942F00102DA614C
:1001BC00DA6902F001020392039ADA6942F0020250
:1001CC00DA61DB6903F002030493049B334D22468E
:1001DC004FF40051284601F0F5F8314E22464FF409
:1001EC008061304601F0EEF84FF40053059301277F
:1001FC0006970794089405A9284600F06BFF05970D
:10020C00DFF8A090CDF818900794DFF89C8005A932
:10021C00404600F05FFF4FF4806305930697079408
:10022C00089405A9304600F055FF4FF40063059380
:10023C000694079405A9304600F04CFFC0230593A3
:10024C00CDF81890079405A9284600F043FF4FF409
:10025C00407305930694079405A9284600F03AFFCD
:10026C004FF4807305930694079405A9404600F05B
:10027C0031FF22462146062000F068FD062000F0E2
:10028C00ABFD22462146172000F060FD172000F040
:10029C00A3FD0BB0BDE8F08300380240000802401B
:1002AC0000040240000011100000024000B583B0B1
:1002BC000A4BDA6942F08072DA61DB6903F0807311
:1002CC000193019B002211460E2000F03FFD0E20F1
:1002DC0000F082FD03B05DF804FB00BF0038024063
:1002EC0008B50B480B4B03604FF48273436000233B
:1002FC008360C360036143614FF480228261C361F8
:10030C000362436283620A23C36204F0D5FE08BD14
:10031C00B00400200030014008B50948094B0360C7
:10032C00094B436000238360C3604FF48042026139
:10033C0043618361C361036201F0C0F908BD00BF72
:10034C00B803002000540040A086010008B50848FE
:10035C00084B03604FF4E133436000238360C360B8
:10036C0003610C2242618361C36105F077F908BD1A
:10037C00500400200038014070B590B000240B945C
:10038C000C940D940E940F940A94282221466846DE
:10039C0006F01CFB204D214B2B606C607F23AB6067
:1003AC00FF23EB602C616C61AC61284604F0AAF968
:1003BC008DF82C408DF82D408DF82E400E940F9416
:1003CC0001220BA9284604F051FA01268DF8286069
:1003DC008DF829608DF82A608DF82B4032460AA9D9
:1003EC00284604F049FB8DF800408DF801408DF84B
:1003FC0002400194039404940594069407948DF898
:10040C0020604FF48073099332466946284604F005
:10041C00F5FB10B070BD00BF900400200028004018
:10042C0070B584B00025019502950395124C134BC1
:10043C0023606560A560E56025616561A561E56186
:10044C00256265620126A662E56210236363A563DB
:10045C00E563204605F09CFF094A136843F080636E
:10046C001360032301930296039501A9204606F01D
:10047C0061F904B070BD00BF0805002000240140E4
:10048C00007C004030B597B03422002109A806F05A
:10049C009DFA0024049405940694079408940194FE
:1004AC0002940394184A136823F4C05343F4006372
:1004BC0013600B23099301250A950C9510230D93BA
:1004CC000E95022312934FF4803313934FF4802331
:1004DC0014934FF40003159309A803F0F7F80F23B6
:1004EC00049303230593069407940894294604A8BF
:1004FC0003F0E8FD01954FF40033029301A803F0DB
:10050C009DFF17B030BD00BF0070004008B505F06E
:10051C0019FAFFF7B7FFFFF72BFEFFF7C7FEFFF740
:10052C00DFFEFFF7F9FE00F00BF8FFF70FFFFFF708
:10053C0023FFFFF775FF00BFFDE770477047000012
:10054C0008B500220F49104805F016FA70B90F498A
:10055C000D4805F028FA60B90D490B4805F0EAFE84
:10056C0050B9094805F026FA48B908BDFFF7E5FF70
:10057C00EDE7FFF7E2FFEFE7FFF7DFFFF1E7FFF74C
:10058C00DCFFF2E7000000205C0500206400002086
:10059C005000002018B1022803D002207047002020
:1005AC00704701207047000002680E4B9A4200D041
:1005BC00704700B583B003F5EE335A6A42F400027B
:1005CC005A625B6A03F400030193019B00221146FB
:1005DC00142000F0BBFB142000F0FEFB03B05DF810
:1005EC0004FB00BF005C004008B500F5F671D0F8C4
:1005FC001C0205F0F8F908BD08B5C1EBC102930067
:10060C000344D3F81821D0F81C0205F019FA08BDE0
:10061C0008B5C1EBC102930003449A6BD0F81C02DD
:10062C0005F043FA08BD08B5D0F81C0205F0C6FA6F
:10063C0008BD10B504468368022B01D0FFF77DFF7F
:10064C000121D4F81C0205F0A7FAD4F81C0205F01D
:10065C0084FA10BD10B50446D0F81C0205F09FFAC0
:10066C00A36923B1024A136943F00603136110BD59
:10067C0000ED00E008B5D0F81C0205F099FA08BDB1
:10068C0010B504461D48C0F81C42C4F820021C4B8F
:10069C0003600823436002238360036100238361AA
:1006AC00036201F03BFE30BB182300221146D4F844
:1006BC00200202F010FF582300228021D4F82002DF
:1006CC0002F009FFC02300228121D4F8200202F09D
:1006DC0002FF4FF4887300220121D4F8200202F0AB
:1006EC00FAFE4FF4807300228221D4F8200202F02B
:1006FC00F2FE002010BDFFF720FFD5E78007002099
:10070C00005C004008B5D0F8200202F0DEFEFFF7D6
:10071C0041FF08BD10B51C4613462246D0F82002F6
:10072C0001F074FEFFF736FF10BD08B5D0F82002BB
:10073C0002F027F8FFF72EFF08BD08B5D0F820020D
:10074C0002F0FAFDFFF726FF08BD08B5D0F820022D
:10075C0002F04DFEFFF71EFF08BDD0F8203211F05D
:10076C00800F08D101F07F01C1EBC1018A00134455
:10077C0093F80A01704701F07F01C1EBC1018A00B7
:10078C00134493F82A00704708B5D0F8200201F002
:10079C0027FEFFF7FFFE08BD08B5D0F8200202F0D7
:1007AC00F0F9FFF7F7FE08BD08B5D0F8200202F00B
:1007BC00EAF8FFF7EFFE08BD08B5D0F8200202F00A
:1007CC00D7F908BD00487047900100207047000021
:1007DC0012230B80004870471C00002004230B8060
:1007EC0000487047300000200023934216D230B4EA
:1007FC000BE0373401F8134000015C000134002594
:10080C000D550133DBB2934206D2040F092CF0D8FC
:10081C00303401F81340EFE730BC704770470000EC
:10082C0038B50A4B186804331C6804331B68C018AD
:10083C0000D138BD064D0822A91CFFF7D5FF0422B4
:10084C0005F112012046FFF7CFFFF2E7D000F81FA9
:10085C003400002008B51A230B80FFF7E1FF014894
:10086C0008BD00BF3400002008B50A4628B1054970
:10087C00054805F010FC034808BD0249024805F084
:10088C000AFCF8E7A0090020306A000810B5044CF7
:10089C000A462146034805F0FEFB204610BD00BF6A
:1008AC00A00900201C6A000808B50A4628B10549B1
:1008BC00054805F0F0FB034808BD0249024805F065
:1008CC00EAFBF8E7A0090020006A000808B50A4610
:1008DC0028B10549054805F0DEFB034808BD02496F
:1008EC00024805F0D8FBF8E7A00900200C6A0008C4
:1008FC00002070470020704710B5054C014620467B
:10090C0005F027FD204605F02AFD002010BD00BF94
:10091C005C05002010B5064C00220649204605F067
:10092C0010FD0549204605F014FD002010BD00BF48
:10093C005C050020880F0020A00B00207047FEE70C
:10094C00FEE7FEE7FEE770477047704708B505F015
:10095C0005F808BD08B502F05FFE08BD704708B584
:10096C00012000F04DFD08BD08B5024800F058FB11
:10097C0008BD00BF0C04002008B5024802F038FC8A
:10098C0008BD00BF8007002008B5402000F038FDEE
:10099C00802000F035FD08BD08B5024801F03AFB97
:1009AC0008BD00BFB803002008B5024801F0EAFBFF
:1009BC0008BD00BFB803002008B5024804F013FBC3
:1009CC0008BD00BFB004002008B5024804F03FFF8A
:1009DC0008BD00BF5004002008B5024803F044FED7
:1009EC0008BD00BF9004002010B586B0002404940C
:1009FC0005941A4B5A6A42F000425A625A6A02F043
:100A0C0000420192019A1A6A42F001021A621A6AB1
:100A1C0002F001020292029A5A6A42F080525A6221
:100A2C005B6A03F080530393039B2246214601200B
:100A3C0000F08CF9012000F0CFF922462146052068
:100A4C0000F084F9052000F0C7F90494059404A87B
:100A5C0002F060FD02F0D2FD06B010BD003802407D
:100A6C0000B589B000230393049305930693079371
:100A7C000268114B9A4202D009B05DF804FB03F5F1
:100A8C008A331A6A42F400721A621A6A02F4007209
:100A9C000192019ADA6942F00102DA61DB6903F032
:100AAC0001030293029B082303930323049303A9DA
:100ABC00024800F00FFBDFE7002401400000024079
:100ACC0010B588B000230393049305930693079302
:100ADC0002681B4B9A4201D008B010BD194CE36957
:100AEC0043F00203E361E36903F002030193019B0A
:100AFC00C02303931223049301230593032306932A
:100B0C000423079303A9104800F0E4FA636A43F442
:100B1C0000136362636A03F400130293029B0022C6
:100B2C0011461F2000F012F91F2000F055F9002289
:100B3C001146202000F00AF9202000F04DF9CBE7F7
:100B4C0000540040003802400004024008B502681E
:100B5C000B4B9A4200D008BD4FF4800292FAA2F2DD
:100B6C00B2FA82F2074B13449B0001221A60002256
:100B7C001146292000F0EAF8292000F02DF9EAE7C7
:100B8C0000280040A0C1911000B589B00023039348
:100B9C0004930593069307930268184B9A4202D06C
:100BAC0009B05DF804FB03F584331A6A42F48052F1
:100BBC001A621A6A02F480520192019ADA6942F0BE
:100BCC000102DA61DB6903F001030293029B48F234
:100BDC00E003039302230493032306930523079353
:100BEC0003A9074800F076FA00221146232000F0F2
:100BFC00ADF8232000F0F0F8D2E700BF0030014040
:100C0C000000024010B588B00023039304930593B1
:100C1C00069307930268244B9A4201D008B010BD8A
:100C2C00044603F580331A6A42F480421A621A6A47
:100C3C0002F480420192019ADA6942F00102DA610F
:100C4C00DB6903F001030293029B4FF4C06303932F
:100C5C00022304930123059303230693072307938D
:100C6C0003A9124800F036FA1148124B0360102306
:100C7C004360002383608022C2600361436183610F
:100C8C00C36100F0D5F858B9094B23635C620022AC
:100C9C001146252000F05AF8252000F09DF8BDE7FC
:100CAC00FFF74BFCF0E700BF0038014000000240AA
:100CBC000C040020446002400E4B1A6842F480720F
:100CCC001A6099680C4A0A409A601A6822F0885295
:100CDC0022F001121A601A6822F480221A609A68B3
:100CEC0022F47D029A600022DA60044B4FF000621D
:100CFC009A607047003802400CC0FF8800ED00E09D
:100D0C0008B5024B1B68984708BD00BFB003002014
:100D1C0010B50446C31E042B0FD80A4AD36823F41B
:100D2C00E0631B041B0C240204F4E064234343F033
:100D3C00BF6343F40033D36010BDBC210248FFF7FE
:100D4C00FDFBEAE700ED00E06C6A000870B50546B3
:100D5C000C4616460F2A25D80F2C28D81B4BDB68BF
:100D6C00C3F30223C3F10702042A28BF0422191D6E
:100D7C00062921D9033B4FF0FF3101FA02F224EA94
:100D8C0002049C4001FA03F326EA03063443002DC7
:100D9C0014DB2401E4B205F1604505F5614585F8E5
:100DAC00004370BDD4210A48FFF7C8FBD4E7D52116
:100DBC000748FFF7C3FBD1E70023DCE705F00F057D
:100DCC002401E4B2034B5C55EBE700BF00ED00E0FF
:100DDC006C6A000814ED00E010B5041E08DB04F08A
:100DEC001F02640901239340044A42F8243010BDC9
:100DFC00E8210348FFF7A2FBF1E700BF00E100E0A8
:100E0C006C6A00080138B0F1807F0AD2064B58603A
:100E1C00064AF02182F823100020986007221A60FD
:100E2C0070470120704700BF10E000E000ED00E0CB
:100E3C00002800F0BC8010B5044603685D4A93425C
:100E4C0025D01432934222D0143293421FD0143244
:100E5C0093421CD01432934219D01432934216D0C0
:100E6C001432934213D002F5627293420FD01432B3
:100E7C0093420CD01432934209D01432934206D0D0
:100E8C001432934203D0AB214B48FFF757FB6368F6
:100E9C0023B1102B02D0B3F5804F5AD1A368402B4D
:100EAC0001D0002B5AD1E368802B01D0002B5AD1F2
:100EBC0023692BB1B3F5807F02D0B3F5007F57D1F6
:100ECC0063692BB1B3F5806F02D0B3F5006F54D1C9
:100EDC00A3690BB1202B55D1E36943B1B3F5805F06
:100EEC0005D0B3F5005F02D0B3F5405F4FD1226857
:100EFC00324B9A4250D8324B1344324AA2FB032352
:100F0C001B099B002364304BE363022384F82130DC
:100F1C0021680A6822F47F5222F030026368A068CC
:100F2C000343E06803432069034360690343A069FA
:100F3C000343E069034313430B600020A062E062AB
:100F4C0020636063A063012384F8213084F82000BF
:100F5C0010BDAC211848FFF7F1FA9FE7AD211648F8
:100F6C00FFF7ECFA9FE7AE211348FFF7E7FA9FE78C
:100F7C00AF211148FFF7E2FAA2E7B0210E48FFF7C4
:100F8C00DDFAA5E7B1210C48FFF7D8FAA4E7B221A6
:100F9C000948FFF7D3FAAAE70C4B1344094AA2FB02
:100FAC0003231B099B002364094BE363ADE701207A
:100FBC00704700BF08600240A46A00080764024042
:100FCC00F89FFDBFCDCCCCCC00600240F89BFDBFA0
:100FDC000064024008B590F82130DBB2022B03D03C
:100FEC0004238363012008BD0268136823F00E03F9
:100FFC0013600268136823F001031360036CC16B68
:10100C00012202FA03F34B6080F82120002380F8C0
:10101C002030436B13B198470020E4E70020E2E74F
:10102C0038B5C36B1A6804682568016C04238B40BF
:10103C00134213D015F0040F10D0236813F0200FB7
:10104C0003D1236823F004032360016CC26B0423D7
:10105C008B405360C36A03B1984738BD02238B4061
:10106C0013421AD015F0020F17D0236813F0200F7B
:10107C0006D1236823F00A032360012380F8213072
:10108C00016CC26B02238B405360002380F820302C
:10109C00836A002BE1D09847DFE7082303FA01F1BC
:1010AC001142DAD015F0080FD7D0236823F00E03C5
:1010BC002360026CC16B012303FA02F24A60836362
:1010CC0080F82130002380F82030036B002BC4D033
:1010DC009847C2E72DE9F04782B005460C46B34B62
:1010EC0098421FD003F5806398421BD003F58063B0
:1010FC00984217D003F58063984213D003F58063B0
:10110C0098420FD003F5006398420BD003F580632F
:10111C00984207D0A3F50063984203D0C921A44894
:10112C00FFF70CFA23689AB212B11B0C1B041BB10B
:10113C00CA219F48FFF702FA6368012B1ED9112BB5
:10114C001CD0022B1AD0122B18D09A4A934215D0CD
:10115C0002F58012934211D002F5801293420DD009
:10116C00A2F5F812934209D002F58012934205D0F1
:10117C0002F58012934201D0032B04D1A368022BF9
:10118C0006D800264AE0CB218948FFF7D7F9F5E7C6
:10119C00CC218748FFF7D2F9F3E7DC218448FFF72D
:1011AC00CDF972E0F1218248FFF7C8F99BE00623E4
:1011BC0000E000238B40034302327F4941F8223088
:1011CC007E4B1A68FB4303EA0201606810F4803F0F
:1011DC0001D047EA0201794A1160526803EA020120
:1011EC00606810F4003F01D047EA0201734A516075
:1011FC00926803EA0201606810F4801F01D047EA8C
:10120C0002016E4A9160D2681340616811F4001FAC
:10121C0001D047EA0203694AD3600136276837FADE
:10122C0006F300F0BF804FF0010808FA06F818EA40
:10123C000707F2D06368022B01D0122B35D15B4B20
:10124C009D421FD003F580639D421BD003F5806344
:10125C009D4217D003F580639D4213D003F5806344
:10126C009D420FD003F500639D420BD003F58063C4
:10127C009D4207D0A3F500639D4203D0DB214C486F
:10128C00FFF75CF923690F2B87D8F208083255F861
:10129C00220006F0070399000F238B4020EA03007D
:1012AC0023698B40034345F822302A684FEA460AEB
:1012BC004FF0030909FA0AF96FEA090909EA02026F
:1012CC00636803F0030303FA0AF313432B606368A8
:1012DC005A1E012A03D9112B01D0122B15D1E36808
:1012EC00032B3FF65FAFAA6809EA0202E36803FA30
:1012FC000AF31343AB606B6823EA08086368C3F313
:10130C000013B34043EA08036B60EB6809EA030976
:10131C00A36803FA0AF343EA0903EB60636813F06A
:10132C00805F3FF47AAF264B1A6A42F001021A62D0
:10133C001B6A03F001030193019BB208911C1E4B25
:10134C0053F8210006F0030399000F238B4020EA89
:10135C000300164B9D423FF42CAF03F580639D4276
:10136C0016D003F580639D4214D003F580639D4233
:10137C0012D003F580639D4210D003F580639D422B
:10138C000ED003F580639D423FF411AF072311E7A4
:10139C0001230FE702230DE703230BE7042309E7DF
:1013AC00052307E702B0BDE8F08700BF000002404C
:1013BC00DC6A00080000111000000140000401402C
:1013CC000038024070B5064615460C4629B1012D71
:1013DC0009D875B92404B46170BD4FF4DA710648AC
:1013EC00FFF7ACF8F3E740F2B5110348FFF7A6F8A6
:1013FC00EFE7B461F0E700BFDC6A0008704700005B
:10140C0008B5054B5B69034200D108BD024B58611E
:10141C00FFF7F4FFF9E700BF0004014090F83E30FD
:10142C00DBB2402B13D00369B3F5804F1ED0036D94
:10143C00002B2DD0036D012B33D1436CC3F3C81398
:10144C00026803F0060343F0F103136129E0036D16
:10145C002BB9436C026803F0FE03136121E0436C6B
:10146C00026843F00103DBB213611AE090F83D30DF
:10147C00DBB2212B06D0436C026843F00103DBB2D4
:10148C0013610EE0436C026803F0FE03136108E085
:10149C00436CC3F3C813026803F0060343F0F00374
:1014AC00136100207047436C0268DBB213610020AB
:1014BC0070478AB090F83D30DBB2222B0AD0002363
:1014CC00099303685A6909929B690993099B002047
:1014DC000AB07047036D23B990F83E30DBB2402B55
:1014EC0017D0036D1BB90369B3F5404F1AD0438D68
:1014FC009BB2002B26D1029303685A6902929A6917
:10150C000292029A1A6842F400721A600023036570
:10151C00DDE70023009303685A6900929B690093EE
:10152C00009BD4E70023019303685A6901929A69DE
:10153C000192019A1A6842F480721A60036D0133A9
:10154C000365C4E7438D9BB2012B1AD0438D9BB22C
:10155C00022B6FD00268136843F480631360036836
:10156C005A6812F4006F03D05A6842F480525A60E1
:10157C000023089303685A6908929B690893089B97
:10158C00C4E7C36A13F5803F19D0C36A042B3FD05C
:10159C00C36A082B3CD0036B122B39D0C36A022BC5
:1015AC0030D00268136823F4806313600023059322
:1015BC0003685A6905929B690593059BA6E7026827
:1015CC00136823F48063136003685A6812F4006F85
:1015DC000CD01A6822F480621A600023039303680B
:1015EC005A6903929B690393039B8FE70022049231
:1015FC005A6904929A690492049A1A6842F4007225
:10160C001A6083E70268136843F480631360CDE7C4
:10161C000268136823F48063136000230693036845
:10162C005A6906929A690692069A1A6842F40072EE
:10163C001A606BE7C36A022B1BD00268136823F491
:10164C00806313600268136843F4006313600368DB
:10165C005A6812F4006F03D05A6842F480525A60F0
:10166C000023079303685A6907929B690793079BAA
:10167C004CE70268136843F480631360E7E7438D1B
:10168C009BB24BB1436A5A1C426202681B781361CD
:10169C00438D013B9BB2438500207047438D9BB229
:1016AC004BB103681A69436A591C41621A70438D25
:1016BC00013B9BB24385002070470000002800F0DE
:1016CC00108170B504460368884A934208D002F52D
:1016DC008062934204D040F279118548FEF72EFFC8
:1016EC006368013B834A934200F29080A3681BB16C
:1016FC00B3F5804F40F09080E36823F47F7323F0C0
:10170C000303002B40F08E802369B3F5804F03D088
:10171C00B3F5404F40F08C806369012B00F28E8052
:10172C00A36933F0FE0340F08F80E36913B1402BC3
:10173C0040F09080236A13B1802B40F0918094F894
:10174C003D30002B00F0928002F04CFE6A4B984228
:10175C0040F2C980242384F83D302268136823F0BA
:10176C0001031360654BA3FB00239B0C21684A68A3
:10177C0022F03F021A434A6025682A6A22F03F028F
:10178C0066685F498E4277D8013313432B62256814
:10179C00EB6923F44F4323F0FF03626858498A42F4
:1017AC0074D85200B0FBF2F0C0F30B02032A00D83D
:1017BC0004201843E86121680B6823F0C003E26938
:1017CC00206A024313430B6021688B6823F40343A4
:1017DC0023F0FF032269E068024313438B60216806
:1017EC00CB6823F0FF036269A06902431343CB600B
:1017FC002268136843F00103136000202064202347
:10180C0084F83D30206384F83E0070BD4FF4BD7108
:10181C003748FEF793FE69E740F27B113448FEF738
:10182C008DFE69E74FF4BE713148FEF787FE6BE71A
:10183C0040F27D112E48FEF781FE6DE74FF4BF712B
:10184C002B48FEF77BFE6BE740F27F112848FEF732
:10185C0075FE6AE74FF4C0712548FEF76FFE69E725
:10186C0040F281112248FEF769FE68E784F83C30AB
:10187C002046FFF725F967E74FF4967101FB03F358
:10188C002049A1FB03139B0901337EE7A6688EB99F
:10189C0002EB4201B0FBF1F1C1F30B01B1FA81F1A2
:1018AC004909E1B996B902EB4202B0FBF2F040F4FF
:1018BC0000407EE702EB820101EB8101B0FBF1F10C
:1018CC00C1F30B01B1FA81F14909EAE702EB82029B
:1018DC0002EB8202B0FBF2F040F4404069E70120D9
:1018EC0067E70120704701208FE700BF00540040DC
:1018FC00146B00087F1A06007F841E0083DE1B43D6
:10190C00A0860100D34D621070477047704708B530
:10191C00438D9BB28BB1436A5A1C426202681B789E
:10192C001361438D013B9BB24385438D9BB223B91D
:10193C0090F83D30DBB2292B01D0002008BD0268A5
:10194C00536823F48063536021230363282380F8B6
:10195C003D30FFF7DBFFF0E7704708B5438D9BB2D6
:10196C008BB103681A69436A591C41621A70438D22
:10197C00013B9BB24385438D9BB223B990F83D301C
:10198C00DBB22A2B01D0002008BD0268536823F477
:10199C008063536022230363282380F83D30FFF7D4
:1019AC00DBFFF0E7704708B503689A6912F0040F83
:1019BC0009D000219B6913F0800F06D0028BFFF732
:1019CC00F1FF002008BD0121F4E78289F7E7704799
:1019DC0008B5C36A042B02D0C36A082B04D190F853
:1019EC003D30DBB2282B0AD090F83D30DBB2212BF6
:1019FC001FD003686FF480625A61002008BD1A4B37
:101A0C00C3620268536823F4E063536003686FF4A5
:101A1C0080625A610268136823F4806313600023A8
:101A2C000363202280F83D2080F83E30FFF7CFFF83
:101A3C00E3E70D4BC36221230363202380F83D3081
:101A4C00002380F83E300268536823F4E06353604F
:101A5C0003686FF480625A610268136823F4806330
:101A6C001360FFF753FFC8E70000FFFF704708B58E
:101A7C00038D23B990F83D30DBB2212B0BD090F8BD
:101A8C003D30DBB2212B45D090F83E30DBB2402B01
:101A9C003BD0002008BDC36A042B06D0C36A082BB8
:101AAC0003D0C36A13F5803F19D10268536823F43D
:101ABC00E06353600268136843F4007313600023FF
:101ACC000363202380F83D3090F83E30DBB2402B8E
:101ADC0015D0002380F83E30FFF716FFD9E70268D7
:101AEC00536823F4E063536011230363002380F8ED
:101AFC003E30202380F83D30FFF706FFC9E7002376
:101B0C0080F83E30FFF7B2FFC3E790F83D30DBB210
:101B1C00222BBED1438D9BB253B1436A5A1C4262F5
:101B2C0002681B781361438D013B9BB24385B0E780
:101B3C000268536823F480635360AAE708B590F8F1
:101B4C003D30DBB2212B01D0002008BD438D9BB270
:101B5C001BBBC36A042B06D0C36A082B03D0C36A11
:101B6C0013F5803F24D10268536823F4E06353607B
:101B7C000268136843F4007313600023036320238B
:101B8C0080F83D3090F83E30DBB2402B20D0002363
:101B9C0080F83E30FFF7B8FED6E7436A5A1C426223
:101BAC0002681B781361438D013B9BB24385CBE7E5
:101BBC000268536823F4E06353601123036300232A
:101BCC0080F83E30202380F83D30FFF79DFEBBE7C8
:101BDC00002380F83E30FFF749FFB5E7704708B5A2
:101BEC0090F83D30DBB2222B01D0002008BD438D94
:101BFC009BB2032B2ED8438D9BB2022B35D0438D39
:101C0C009BB2032B31D0C36A022B47D002681368F6
:101C1C0023F4806313600268536823F4E063536019
:101C2C0003681A69436A591C41621A70438D013B5F
:101C3C009BB24385202380F83D3090F83E30DBB2D8
:101C4C00402B31D012230363002380F83E30FFF782
:101C5C005CFECAE703681A69436A591C41621A7030
:101C6C00438D013B9BB24385BFE7C36A022B0FD068
:101C7C000268136823F4806313600268136843F4EA
:101C8C00006313600268536823F480635360ACE70D
:101C9C000268136843F480631360F3E70268136807
:101CAC0043F480631360B6E70023036380F83E308F
:101CBC00FFF794FF99E708B5438D9BB2032B0FD028
:101CCC00438D9BB2022B25D003681A69436A591CB9
:101CDC0041621A70438D013B9BB24385002008BDC5
:101CEC00C36A042B06D0C36A082B03D0C36A13F54E
:101CFC00803F04D10268136823F480631360036887
:101D0C001A69436A591C41621A70438D013B9BB29C
:101D1C004385E3E7C36A042B15D0C36A082B12D0A2
:101D2C00C36A13F5803F0ED0C36A022B05D002683C
:101D3C00136823F4806313600AE00268136843F4A9
:101D4C008063136004E00268136843F4007313604B
:101D5C0003681A69436A591C41621A70438D013B2E
:101D6C009BB2438503681A69436A591C41621A7015
:101D7C00438D013B9BB243850268536823F4407347
:101D8C005360202380F83D3090F83E30DBB2402B7E
:101D9C0007D012230363002380F83E30FFF7B5FD14
:101DAC009CE70023036380F83E30FFF717FF95E7AD
:101DBC007047704710B5044690F83D30293B012B15
:101DCC0037D990F83D30DBB2602B07D003685B68E5
:101DDC0013F4006F02D1202380F83D3000232363DD
:101DEC0084F83E302268136823F400631360236880
:101DFC005A6812F4006F3FD05A6822F400625A609D
:101E0C00626B92F82130DBB2012B18D03A4B536342
:101E1C00606BFFF7DFF800283FD02268136823F0CF
:101E2C0001031360202384F83D30606B436B9847AB
:101E3C0033E000230363282380F83D30D2E7A36B03
:101E4C002D4A5A63A06BFFF7C5F830B323685A6963
:101E5C0012F0400F04D01A69636A591C61621A703F
:101E6C002268136823F001031360202384F83D30AB
:101E7C00A06B436B984710E094F83D20D2B2602AD7
:101E8C0011D05A6912F0400F04D01A69636A591CB8
:101E9C0061621A702046FFF78BFF94F83D30DBB27D
:101EAC00282B17D010BD202284F83D20002222645C
:101EBC005A6912F0400F04D01A69636A591C6162A6
:101ECC001A702268136823F0010313602046FFF791
:101EDC0070FFE2E7236C13F0040FE3D0074BE362CF
:101EEC0000232363202284F83D2084F83E302046D2
:101EFC00FFF76DFDD6E700BF712200080000FFFF61
:101F0C0000B583B00268536823F4E0635360002388
:101F1C00019303685A6901921A6842F001021A602F
:101F2C00019B0268136823F4806313600268536892
:101F3C0013F4006F14D090F83D30DBB2222B0AD092
:101F4C0090F83D30DBB22A2B05D0436B1B685B68E5
:101F5C009BB2438504E0836B1B685B689BB2438533
:101F6C00438D9BB2F3B1536913F0040F08D012697F
:101F7C00436A591C41621A70438D013B9BB24385E5
:101F8C0003685A6912F0400F08D01A69436A591C49
:101F9C0041621A70438D013B9BB24385036C43F045
:101FAC0004030364036C03BB90F83D30DBB2282BB5
:101FBC001ED090F83D30DBB22A2B19D090F83D3072
:101FCC00DBB2292B14D0036B222B04D090F83D30BC
:101FDC00DBB2222B17D100230363202280F83D2093
:101FEC0080F83E30FFF7B8FC0DE0FFF7E3FE0AE0A7
:101FFC00074BC36200230363202280F83D2080F846
:10200C003E30FFF7E4FC002003B05DF804FB00BF9A
:10201C000000FFFFF8B5054603689F695C695E68C0
:10202C0090F83E30DBB2102B29D090F83E30DBB26A
:10203C00402B24D04C4B234013B116F4007F70D1AD
:10204C004A4B234013B116F4007F6DD1484B3B40F3
:10205C00002B71D0474B234033B116F4806F03D063
:10206C00454B2340002B63D0434B2340002B4FD0D8
:10207C0016F4007F4CD02846FFF701FB48E014F023
:10208C00011F02D016F4007F23D13C4B234013B127
:10209C0016F4007F21D1344B234013B116F4007F8A
:1020AC001FD12B6D2BBB324B3B4013B3314B234019
:1020BC002BB116F4806F02D02F4B2340ABB12E4BBB
:1020CC0023402BB316F4007F22D02846FFF736FDB1
:1020DC001EE02846FFF7A2F9E3E72846FFF7E3F9ED
:1020EC00DFE72846FFF7E5F9DBE72846FFF7BFFCFB
:1020FC000EE0234B23402BB116F4806F02D01E4B05
:10210C00234033B11C4B234013B116F4007F04D190
:10211C00F8BD2846FFF763FDFAE72846FFF7CBFD2D
:10212C00F6E7FFF740FCF3E72846FFF7E9FEEFE799
:10213C002846FFF7ECFBEBE7114B23402BB116F4D1
:10214C00806F02D00C4B234053B10B4B2340002B20
:10215C00DED016F4007FDBD02846FFF79FFAD7E7D6
:10216C002846FFF7FAFBD3E702000100100001003C
:10217C0004000200800001000400010008000100BE
:10218C004000010070B5044603685D695E68344A1E
:10219C00154209D016F4807F06D0026C42F0010281
:1021AC0002646FF480725A6115F4813F0AD016F400
:1021BC00807F07D0236C43F00203236423686FF401
:1021CC0000725A6115F4823F14D016F4807F11D03E
:1021DC0094F83E30DBB2202B1DD0236C43F004036B
:1021EC00236494F83E30DBB2102B2ED023686FF4AE
:1021FC0080625A6115F4843F0AD016F4807F07D0B0
:10220C00236C43F00803236423686FF400625A6163
:10221C00236C03BB70BD638D9BB2002BDDD194F896
:10222C003D30DBB2212B0CD094F83D30DBB2292BA6
:10223C0007D094F83D30DBB2282BCED1236B212B69
:10224C00CBD12046FFF7C4FBD4E72268136843F4D4
:10225C0000731360CAE72046FFF7ACFDDAE700BF56
:10226C000001010008B5406A0268136823F480631A
:10227C00136000234385426B5363826B536390F866
:10228C003D30DBB2602B0DD0202380F83D30002395
:10229C0080F83E300268136823F001031360FFF7E7
:1022AC0087FD08BD202380F83D30002380F83E30A8
:1022BC0003640268136823F001031360FFF779FDD0
:1022CC00EFE701335B0800EB420202F5806263B179
:1022DC0010B40C78487844EA002422F8044B0231FC
:1022EC00013B002BF5D110BC7047704710B4013383
:1022FC005B0800EB420202F20444D2F800040A46E6
:10230C0002F8020B000A487004E0216822F8021B54
:10231C00013B0434002BF8D110BC7047002858D076
:10232C0010B5044602682C4B9A4203D095212B48D9
:10233C00FEF704F994F8E93123B1032384F8E93169
:10234C00002215E084F8E8312046FEF72DF9F4E779
:10235C00D100891A8B002344012183F8291083F8BA
:10236C002820002183F82B1059639963D96301321B
:10237C0060689042ECD8002211E0D100891A8B00E1
:10238C002344002183F8091183F8082183F80B11E9
:10239C00C3F81411C3F81811C3F81C110132904280
:1023AC00EBD822680123A2F8403022680020A2F862
:1023BC0040002268A2F844002268A2F8500022686B
:1023CC004FF43F41A2F8401084F8240084F8E9311E
:1023DC0010BD0120704700BF005C00404C6B000832
:1023EC0090F8E831012B0FD0012380F8E83141B986
:1023FC0003688022A3F84C20002380F8E8311846AB
:10240C00704780F82410F7E70220704770B44DB283
:10241C00002D1DDB01F07F06C6EBC606B40004F5EB
:10242C008474044401F07F012170ED0F6570E2604B
:10243C00E37090F8E831012B00F0A181012380F8C2
:10244C00E831E378032B17D8DFE803F00A78606BE8
:10245C0001F07F06C6EBC606B40028340444E1E75D
:10246C000268217832F8213023F4EC4323F0700316
:10247C0043F4007322F821300168227831F82230BD
:10248C0023F0F0031B051B0D134343F4004343F0EF
:10249C00800321F82230A37A002B40F0B0806378BF
:1024AC00002B58D0A3880268B2F85010257801EBA5
:1024BC00C50102EB41025B085B00A2F80034026824
:1024CC00217832F8213013F0400F09D023F0F003BB
:1024DC001B051B0D43F4004343F0C00322F82130CD
:1024EC000268217832F8213023F4E04323F04003D2
:1024FC0083F0200343F4004343F0800322F821309F
:10250C00002380F8E831184670BC704702682178C7
:10251C0032F8213023F4EC4323F0700322F82130FD
:10252C00AAE70268217832F8213023F4EC4323F037
:10253C00700343F4C06322F821309DE702682178D0
:10254C0032F8213023F4EC4323F0700343F480631E
:10255C0022F8213090E7A3880168B1F85020257843
:10256C0002EBC502043201EB42025B085B00A2F8ED
:10257C0000340268B2F85030217803EBC103063303
:10258C0002EB4303E2683E2A2ED9C2F34F1112F03C
:10259C001F0F01D1013989B26FEAC1616FEA514154
:1025AC00A3F800140268217832F8213013F4804F1C
:1025BC0009D023F0F0031B051B0D43F4404343F0FB
:1025CC00800322F821300268217832F8213023F47C
:1025DC00804323F0700383F4405343F4004343F0EF
:1025EC00800322F821308BE7C2F34F0112F0010F68
:1025FC0001D0013189B28902A3F80014D2E7026834
:10260C00217832F8213023F4F8731B051B0D43F4A9
:10261C00014343F0800322F82130E3880268B2F8CA
:10262C005010257801EBC50102EB41025B085B0001
:10263C00A2F8003423890168B1F85020257802EB08
:10264C00C502043201EB42025B085B00A2F80034C5
:10265C006378002B4AD10268217832F8213013F4C8
:10266C00804F09D023F0F0031B051B0D43F44043AE
:10267C0043F0800322F821300268217832F82130AF
:10268C0013F0400F09D023F0F0031B051B0D43F48E
:10269C00004343F0C00322F821300268217832F85D
:1026AC00213023F0F0031B051B0D43F4004343F0D2
:1026BC00C00322F821300268217832F8213023F44B
:1026CC00804323F0700383F4405348F280052B437E
:1026DC0022F821300268217832F8213023F4E043CB
:1026EC0023F040032B4322F8213009E702682178BC
:1026FC0032F8213013F4804F09D023F0F0031B057E
:10270C001B0D43F4404343F0800322F82130026850
:10271C00217832F8213013F0400F09D023F0F00368
:10272C001B051B0D43F4004343F0C00322F821307A
:10273C000268217832F8213023F0F0031B051B0DC1
:10274C0043F4404343F0800322F82130036821789E
:10275C0033F8212022F4E04222F0400248F28005B6
:10276C002A4323F821200268217832F8213023F4FF
:10277C00804323F070032B4322F82130C0E6022063
:10278C00C2E630B44AB2002A3EDB01F07F04C4EB4F
:10279C00C404A30003F58473034401F07F01197092
:1027AC00D20F5A7090F8E821012A00F0EA80012239
:1027BC0080F8E8219A7A002A4ED15A7862B30168DF
:1027CC001C7831F8242012F0400F09D022F0F002CE
:1027DC001205120D42F4004242F0C00221F82420EE
:1027EC000268197832F8213023F4E04323F04003D7
:1027FC0043F4004343F0800322F82130002380F897
:10280C00E831184630BC704701F07F04C4EBC404B7
:10281C00A30028330344C0E701681C7831F8242056
:10282C0012F4804F09D022F0F0021205120D42F47E
:10283C00404242F0800221F824200268197832F8D4
:10284C00213023F4804323F0700343F4004343F01E
:10285C00800322F82130D1E75A78002A48D1016848
:10286C001C7831F8242012F4804F09D022F0F002A9
:10287C001205120D42F4404242F0800221F824204D
:10288C0001681C7831F8242012F0400F09D022F096
:10289C00F0021205120D42F4004242F0C00221F87F
:1028AC00242001681C7831F8242022F0F002120553
:1028BC00120D42F4004242F0C00221F824200168BB
:1028CC001D7831F8252022F4804222F0700248F263
:1028DC008004224321F825200268197832F821302F
:1028EC0023F4E04323F04003234322F8213085E70F
:1028FC0001681C7831F8242012F4804F09D022F0A2
:10290C00F0021205120D42F4404242F0800221F80E
:10291C00242001681C7831F8242012F0400F09D0D3
:10292C0022F0F0021205120D42F4004242F0C002F5
:10293C0021F8242001681C7831F8242022F0F002C0
:10294C001205120D42F4404242F0800221F824207C
:10295C0001681D7831F8252022F4E04222F0400273
:10296C0048F28004224321F825200268197832F8B5
:10297C00213023F4804323F07003234322F82130C9
:10298C003CE702203EE770B401F07F01CD006D1AE8
:10299C00AC000444C4F81821C4F81C310022C4F85B
:1029AC00202184F8092184F80811D4F814219342C9
:1029BC0043D9C1EBC105AC0004449B1AC4F81C31CB
:1029CC00C1EBC104A300034493F81231002B48D18E
:1029DC000468B4F85030C1EBC106B500054495F855
:1029EC00085103EBC503063304EB43033E2A2DD9F0
:1029FC00C2F34F1412F01F0F01D1013CA4B26FEAC5
:102A0C00C4646FEA5444A3F800440268C1EBC101EA
:102A1C008B00184490F8081132F8213023F48043CD
:102A2C0023F0700383F4405343F4004343F08003DA
:102A3C0022F82130002070BC7047C1EBC104A20009
:102A4C0002440024C2F81C411A46B9E7C2F34F04F1
:102A5C0012F0010F01D00134A4B2A402A3F8004477
:102A6C00D3E7C1EBC104A300034493F8093143BB82
:102A7C000468B4F85030C1EBC106B500054495F8B4
:102A8C00085103EBC503023304EB43033E2A0DD973
:102A9C00C2F34F1412F01F0F01D1013CA4B26FEA24
:102AAC00C4646FEA5444A3F800440CE0C2F34F042E
:102ABC0012F0010F01D00134A4B2A402A3F8004417
:102ACC0001E0012B24D0C1EBC104A300034493F813
:102ADC000931CBBB0468B4F85030C1EBC106B5006A
:102AEC00054495F8085103EBC503063304EB430387
:102AFC003E2A1ED9C2F34F1412F01F0F01D1013C14
:102B0C00A4B26FEAC4646FEA5444A3F800447CE7AF
:102B1C000468B4F85030C1EBC106B500054495F813
:102B2C00085103EBC503023304EB4303A3F8002461
:102B3C00C9E7C2F34F0412F0010F01D00134A4B263
:102B4C00A402A3F8004460E7012B7FF45EAF046895
:102B5C00B4F85030C1EBC106B500054495F80851E6
:102B6C0003EBC503063304EB4303A3F800244CE743
:102B7C0001F07F01C1EBC1018B001844B0F82001BA
:102B8C007047F8B5054601F07F04E000001B81009A
:102B9C0029448A63CB6300220A64012281F829202C
:102BAC0081F828404F6BBB4234D9DB1BCB63C4EBA1
:102BBC00C40293001A462B4493F8323093B32A681C
:102BCC00C4EBC40083002B4493F8283032F8230064
:102BDC0010F0400F7BD0C4EBC406B000284490F832
:102BEC00290000283FD1B2F8500000EBC303063394
:102BFC0002EB43023E2F2BD9C7F34F1317F01F0FD5
:102C0C0001D1013B9BB26FEAC3636FEA5343A2F855
:102C1C0000342AE0C4EBC4018A002A440021D163A9
:102C2C001F46C4E7BFB216462E443B46B28DB16B6D
:102C3C002868FFF746FB2A68B2F8503096F828103F
:102C4C0003EBC103023302EB4303A3F8007488E0E7
:102C5C00C7F34F0317F0010F01D001339BB29B0256
:102C6C00A2F8003401E0012827D0C4EBC402930081
:102C7C002B441A8EE3001B1B9E002E44BBB2B16B7F
:102C8C002868FFF71EFB96F82930002B5AD0012B31
:102C9C0067D12A68C4EBC4018B002B4493F828102D
:102CAC0032F8213023F0F0031B051B0D43F4404395
:102CBC0043F0800322F8213053E0B2F8500000EBCF
:102CCC00C303063302EB4302A2F80074CDE7C4EB56
:102CDC00C406B000284490F8290008BBB2F8500094
:102CEC0000EBC303023302EB43023E2F0DD9C7F3B3
:102CFC004F1317F01F0F01D1013B9BB26FEAC36357
:102D0C006FEA5343A2F800340CE0C7F34F0317F0FB
:102D1C00010F01D001339BB29B02A2F8003401E0F9
:102D2C00012805D0C4EBC40293002B44DA8DA1E733
:102D3C00B2F8500000EBC303023302EB4302A2F8DB
:102D4C000074EFE72A6896F8281032F8213023F047
:102D5C00F0031B051B0D43F4004343F0C00322F8A2
:102D6C0021302A68C4EBC404A3001D4495F8281034
:102D7C0032F8213023F4E04323F0400383F0300396
:102D8C0043F4004343F0800322F821300020F8BDC7
:102D9C0070B582B005460023ADF804302868B0F851
:102DAC0044309BB2ADF8063013F4004F00F01D8296
:102DBC00BDF8064014F00F0440F0BD80BDF806309D
:102DCC0013F0100F4ED003889BB2ADF80430BDF851
:102DDC00043013F4006F75D1BDF8043013F4004FB8
:102DEC00DCD0038823F070031B051B0D03802868BF
:102DFC00B0F8503095F8082103EBC203063300EB12
:102E0C004303B3F80034C3F30903C5F82031002B96
:102E1C0078D100212846FDF7EFFB2B68B3F8502042
:102E2C00063203EB4203D5F814213E2A78D9C2F3BB
:102E3C004F1112F01F0F01D1013989B26FEAC16134
:102E4C006FEA5141A3F800142A68138823F48043D5
:102E5C0023F0700383F4405343F4004343F08003A6
:102E6C0013809BE7038823F4E14323F07003038072
:102E7C002A68B2F8503095F8281003EBC1030233DE
:102E8C0002EB4303B3F80034C3F309032B64AA6BBE
:102E9C001344AB6300212846FDF7BAFB95F82430A8
:102EAC00002B3FF47BAFEB6B002B7FF477AF95F8E7
:102EBC0024302A6843F08003A2F84C30002385F8B4
:102ECC0024306BE7B0F8503095F8082103EBC203BF
:102EDC00063300EB4303B3F80034C3F30903C5F81E
:102EEC002031B5F80C2105F5F671FFF7FFF92A68CA
:102EFC00138823F070031B051B0D13802846FDF768
:102F0C0073FB4BE7B5F80C21D5F81811FFF7EEF968
:102F1C00D5F82021D5F818311344C5F8183178E7C5
:102F2C00C2F34F0112F0010F01D0013189B28902B5
:102F3C00A3F8001488E730F82430ADF80430BDF85D
:102F4C00042012F4004F34D1BDF8043013F0800F7C
:102F5C003FF424AF2A6832F8243023F4E14323F001
:102F6C00700322F82430C4EBC40293001A462B449D
:102F7C0093F83230002B40F0C1802868B0F8503004
:102F8C002A4492F8281003EBC103023300EB4303ED
:102F9C00B3F80034C3F309031364002B00F0DF8093
:102FAC00E200121B910029448A8D896BFFF789F985
:102FBC00D5E023F070031B051B0D20F82430C4EB67
:102FCC00C40293001A462B4493F81231CBB92868EB
:102FDC00B0F8503011462A4492F8082103EBC20392
:102FEC00063300EB4303B3F80064C6F309069EB343
:102FFC0029443346B1F80C21D1F81811FFF776F9B2
:10300C002AE02868C4EBC40293002B4493F80821EF
:10301C0030F8223013F4804F4DD0B0F8503003EB21
:10302C00C203023300EB4303B3F80064C6F3090692
:10303C00AEBB2A68C4EBC4018B002B4493F8081177
:10304C0032F8213023F0F0031B051B0D43F4004331
:10305C0043F0C00322F82130E200121B93002B44F2
:10306C00D3F820213244C3F82021D3F8182132445C
:10307C00C3F81821D3F81C313BB1C4EBC400810058
:10308C002944D1F814118E422ED2C4EBC402930001
:10309C002B4493F808112846FDF7AEFA54E7E300E9
:1030AC001B1B990029443346B1F80E21D1F8181195
:1030BC00FFF71CF9BDE7B0F8503003EBC203063341
:1030CC0000EB4303B3F80064C6F30906002EB0D03E
:1030DC00E3001B1B990029443346B1F81021D1F8A9
:1030EC001811FFF703F9A4E7C4EBC40081002944CD
:1030FC0091F808112846FFF746FC25E72868C4EB31
:10310C00C40293002B4493F8282030F8223013F09B
:10311C00400F47D0B0F8503003EBC203023300EB42
:10312C004303B3F80034C3F30903C4EBC4018A00AE
:10313C0011462A4413647BBB2A68C4EBC4018B0080
:10314C002B4493F8281032F8213023F0F0031B05A0
:10315C001B0D43F4404343F0800322F821302968CF
:10316C00B1F85020E000001B83002B4493F828009A
:10317C0002EBC002023201EB4202B2F80024C2F3AD
:10318C0009021A64996B0A449A63DB6B1BBB0146F8
:10319C002846FDF73DFA01E62944CA8D896BFFF7F5
:1031AC0090F8C9E7B0F8503003EBC203063300EBDC
:1031BC004303B3F80034C3F30903C4EBC4018A001E
:1031CC0011462A441364002BB6D029440A8E896B0D
:1031DC00FFF777F8B0E7C4EBC404A100294491F8D9
:1031EC0028102846FFF7CDFCD8E5002002B070BDB2
:1031FC0010B504460368B3F8443013F4004F5ED1A5
:10320C002368B3F8442012F4806F5BD12268B2F8C3
:10321C00443013F4804F07D0B2F844309BB223F4FF
:10322C0080439BB2A2F844302268B2F8443013F4C5
:10323C00005F07D0B2F844309BB223F400539BB22A
:10324C00A2F844302368B3F8442012F4805F49D1CB
:10325C002268B2F8443013F4006F1BD0B2F844303B
:10326C009BB223F400639BB2A2F844302268B2F8FC
:10327C00403043F00803A2F840302268B2F84030E6
:10328C0043F00403A2F840302368B3F8443013F43D
:10329C00805F41D02368B3F8442012F4007F3FD103
:1032AC002268B2F8443013F4807F07D0B2F844306F
:1032BC009BB223F480739BB2A2F8443010BDFFF78D
:1032CC0067FD9DE7B3F8442092B222F4806292B27B
:1032DC00A3F844202046FDF7ACF900212046FFF767
:1032EC007FF893E7B3F8402092B222F0040292B236
:1032FC00A3F8402023684FF43D42A3F84020204619
:10330C00FDF7B8F92268B2F844309BB223F480532D
:10331C009BB2A2F844309BE72046FDF79BF9B9E736
:10332C00B3F8442092B222F4007292B2A3F8442073
:10333C002046FDF778F9B3E790F8E831012B54D02B
:10334C0010B4012380F8E8314AB2002A24DBC1EB27
:10335C00C104A30003F58473034401249C7001F0A1
:10336C007F011970D20F5A70F1B9026832F821300E
:10337C0023F4804323F0400383F4805383F0100341
:10338C0043F4004343F0800322F82130002380F8FB
:10339C00E831184610BC704701F07F04C4EBC4043C
:1033AC00A30028330344D8E77AB1026832F82130FD
:1033BC0023F4E04323F0400383F0100343F4004371
:1033CC0043F0800322F82130E0E7026832F8213024
:1033DC0023F4804323F0700383F4805343F40043BD
:1033EC0043F0800322F82130D0E70220704710B45C
:1033FC004AB2002A3CDBC1EBC104A30003F5847381
:10340C00034400249C7001F07F011970D20F5A7094
:10341C0090F8E821012A55D0012280F8E8215A7849
:10342C0072B301681C7831F8242012F0400F09D0D7
:10343C0022F0F0021205120D42F4004242F0C002DA
:10344C0021F824200268197832F8213023F4E04363
:10345C0023F0400383F0300343F4004343F0800334
:10346C0022F82130002380F8E831184610BC704750
:10347C0001F07F04C4EBC404A30028330344C0E769
:10348C0001681C7831F8242012F4804F09D022F006
:10349C00F0021205120D42F4404242F0800221F873
:1034AC0024200268197832F8213023F4804323F069
:1034BC00700383F4405343F4004343F0800322F839
:1034CC002130CFE70220D1E7704708B50121FFF783
:1034DC00FBFF002008BD10B411F0800F0FD001F0DD
:1034EC007F01C1EBC1018C002834204472B1012250
:1034FC008272C3801B0C0381002010BC7047C1EB8F
:10350C00C1018C0004F584742044EFE7827283803F
:10351C00F2E7000010B5044603686BB1202B0BD00A
:10352C00402B09D0602B07D0802B05D0A02B03D0CB
:10353C00C02B01D0E02B4CD16368A3F10112022AFD
:10354C000AD92A4A934207D0B3F1021F04D002329F
:10355C00934201D0002B42D1254A136823F0E0039B
:10356C0021680B431360234B5A6822F480325A6053
:10357C001A6822F480321A609A6822F480329A60B7
:10358C00DA6822F48032DA60636813F4803F04D086
:10359C00184A136843F480331360636813F4003FD4
:1035AC0004D0144A536843F480335360636813F0B7
:1035BC00010F04D00F4A936843F48033936063681F
:1035CC0013F0020F04D00B4AD36843F48033D3605A
:1035DC0010BD4FF4B3710848FCF7B0FFACE740F2F4
:1035EC0067110548FCF7AAFFB6E700BF010002000F
:1035FC000070004000040140846B0008102393FA13
:10360C00A3F3B3FA83F39B0003F1844303F5602324
:10361C0001221A607047704708B5064B5B6913F4BA
:10362C00803F00D108BDFFF7F6FF024B4FF480320C
:10363C005A61F7E70004014082B0214B9B6813F0FC
:10364C00F00F2CD11E4B5B6A13F0805F08D01D4B22
:10365C001B6803F4C053B3F5C05F14D000211FE006
:10366C00174A536A43F080535362536A03F08053F2
:10367C000193019B134B1B6803F4C053516A21F057
:10368C0080515162E7E7B0F5404F01D0002107E0CF
:10369C000D4A136843F004031360012100E000217C
:1036AC00094A136823F001030B431360136803F0FA
:1036BC0001038B4202D0012002B070470020FBE7CF
:1036CC000038024000700040003C024070B582B0EF
:1036DC00044650B3236813B113F01F0F2BD023688B
:1036EC0013F0010F4FD06368012B01D9052B28D1A2
:1036FC00894B9B6803F00C03082B2DD0864B9B68E1
:10370C0003F00C030C2B22D06368012B00F0828099
:10371C00002B40F0A480804B1A6822F480321A608F
:10372C001A6822F480221A6079E04FF498717B4871
:10373C00FCF704FFCEE740F231117848FCF7FEFEAF
:10374C00CDE740F237117548FCF7F8FED0E7724B25
:10375C009B6813F4803FD7D04FF4003393FAA3F354
:10376C006D4B19684FF4003393FAA3F3B3FA83F358
:10377C0003F01F03012202FA03F30B4203D0636828
:10378C00002B00F04484236813F0020F00F0D78064
:10379C00E368012B00F2978023691F2B00F29980BC
:1037AC005D4B9B6803F00C03042B00F09E805A4B7E
:1037BC009B6803F00C030C2B00F09180E368002B4A
:1037CC0000F07881012292FAA2F3B3FA83F303F1A9
:1037DC00845303F58E139B001A6002F0C7F805465C
:1037EC00022393FAA3F34C4B1968022393FAA3F325
:1037FC00B3FA83F303F01F03012202FA03F30B4223
:10380C0040F0488102F0B2F8401B0228E8D90320AE
:10381C0000F004BC404A136843F4803313606368BF
:10382C00002B32D002F0A2F805464FF4003393FA85
:10383C00A3F3394B19684FF4003393FAA3F3B3FA9B
:10384C0083F303F01F03012202FA03F30B429AD114
:10385C0002F08CF8401B6428E7D90320DEE3052B2B
:10386C0009D02D4B1A6822F480321A601A6822F49F
:10387C0080221A60D3E7284B1A6842F480221A601F
:10388C001A6842F480321A60C9E702F06FF80546F4
:10389C004FF4003393FAA3F31F4B19684FF4003322
:1038AC0093FAA3F3B3FA83F303F01F03012202FA92
:1038BC0003F30B423FF467AF02F058F8401B642847
:1038CC00E6D90320AAE340F26B111448FCF736FE4C
:1038DC0062E74FF4B6711148FCF730FE60E70E4B0F
:1038EC009B6813F4803F7FF469AF022393FAA3F330
:1038FC00094B1968022393FAA3F3B3FA83F303F089
:10390C001F03012202FA03F30B4209D0E36893422E
:10391C0006D0012082E300BF00380240BC6B0008D7
:10392C00C348436823F4F85321694FF4F85292FAD0
:10393C00A2F2B2FA82F201FA02F213434360236854
:10394C0013F0100F75D0BA4B9B6813F00C0F40F0AE
:10395C0001814FF4007393FAA3F3B54B19684FF43C
:10396C00007393FAA3F3B3FA83F303F01F0301225A
:10397C0002FA03F30B4203D0A369002B00F0498336
:10398C00E369FF2B00F2BE80236A93B1B3F5005FAD
:10399C000FD0B3F5804F0CD0B3F5C04F09D0B3F5B1
:1039AC00004F06D0B3F5204F03D0B3F5404F40F095
:1039BC00AF80206A9E4B5B6803F46043984240F2F0
:1039CC00AD80FFF739FE002840F0258398494B68FD
:1039DC0023F46043226A13434B604B6823F07F430C
:1039EC00E0694FF07F4292FAA2F2B2FA82F200FA48
:1039FC0002F213434B60236A4FF4604292FAA2F234
:103A0C00B2FA82F2D3405A1C4FF400439340884AD6
:103A1C00926802F0F002F02191FAA1F1B1FA81F171
:103A2C00CA4084498A5CD340834A1360002001F069
:103A3C0073FF236813F0080F00F059816369012BA1
:103A4C0000F22B816369002B00F02D81012191FA8A
:103A5C00A1F2B2FA82F2794B13449B00196001F087
:103A6C0085FF0546022393FAA3F2714A516B93FA30
:103A7C00A3F3B3FA83F303F01F03012202FA03F357
:103A8C000B4240F0348101F071FF401B0228E9D950
:103A9C000320C3E26648436823F4F85321694FF4CA
:103AAC00F85292FAA2F2B2FA82F201FA02F213433B
:103ABC00436044E7012393FAA3F3B3FA83F303F1CE
:103ACC00845303F58E139B0000221A6001F04EFF05
:103ADC000546022393FAA3F3554B1968022393FA74
:103AEC00A3F3B3FA83F303F01F03012202FA03F3E7
:103AFC000B423FF424AF01F039FF401B0228E8D9F8
:103B0C0003208BE24FF4DB714D48FCF717FD3BE7CC
:103B1C0040F2B7114A48FCF711FD4AE744494B689B
:103B2C0023F46043184348604B6823F07F43E069FB
:103B3C004FF07F4292FAA2F2B2FA82F200FA02F24B
:103B4C0013434B60206AFFF777FD00283FF453AF17
:103B5C00012063E2A369012B2CD8A369002B71D03F
:103B6C004FF4807393FAA3F3B3FA83F303F1845302
:103B7C0003F58E139B0001221A6001F0F7FE054637
:103B8C004FF4007393FAA3F3294B19684FF40073A5
:103B9C0093FAA3F3B3FA83F303F01F03012202FA9F
:103BAC0003F30B420CD101F0E1FE401B0228E7D9D4
:103BBC00032033E240F2E3112148FCF7BFFCCCE7D1
:103BCC00E369FF2B2ED8236AB3B1B3F5005F13D092
:103BDC00B3F5804F10D0B3F5C04F0DD0B3F5004FF7
:103BEC000AD0B3F5204F07D0B3F5404F04D04FF4B3
:103BFC00FC711348FCF7A2FC0D494B6823F460439D
:103C0C00226A13434B604B6823F07F43E0694FF00B
:103C1C007F4292FAA2F2B2FA82F200FA02F2134353
:103C2C004B6006E740F2F7110548FCF787FCCAE742
:103C3C0000380240486A000860000020A0C19110C2
:103C4C00BC6B00084FF4807393FAA3F3B3FA83F3BD
:103C5C0003F1845303F58E139B0000221A6001F0CC
:103C6C0085FE05464FF4007393FAA3F3B24B196823
:103C7C004FF4007393FAA3F3B3FA83F303F01F0327
:103C8C00012202FA03F30B423FF4D3AE01F06EFEB5
:103C9C00401B0228E6D90320C0E140F21721A748B7
:103CAC00FCF74CFCCEE6012292FAA2F2B2FA82F2B6
:103CBC00A34B13449B0000221A6001F057FE0546EB
:103CCC00022393FAA3F29C4A516B93FAA3F3B3FA2F
:103CDC0083F303F01F03012202FA03F30B4206D015
:103CEC0001F044FE401B0228EAD9032096E1236828
:103CFC0013F0040F00F09E80A368012B01D9052B53
:103D0C0023D18D4B5B6A13F0805F24D18A4B5A6AA6
:103D1C0042F080525A625B6A03F080530193019B1C
:103D2C000125884B1B6813F4807F16D0A368012BE8
:103D3C0027D0002B49D1804B5A6B22F480725A63E6
:103D4C005A6B22F480625A6320E040F243217B4894
:103D5C00FCF7F4FBD5E70025E3E77A4A136843F454
:103D6C008073136001F002FE0646764B1B6813F459
:103D7C00807FDBD101F0FAFD801B6428F5D903208C
:103D8C004CE16D4A536B43F480735363A36893B354
:103D9C0001F0ECFD06464FF4007393FAA3F2664A69
:103DAC00516B93FAA3F3B3FA83F303F01F030122CD
:103DBC0002FA03F30B423BD101F0D8FD801B41F218
:103DCC0088339842E7D9032028E1052B09D05A4BB8
:103DDC005A6B22F480725A635A6B22F480625A63D3
:103DEC00D4E7554B5A6B42F480625A635A6B42F4D7
:103DFC0080725A63CAE701F0B9FD06464FF40073AE
:103E0C0093FAA3F24C4A516B93FAA3F3B3FA83F3EC
:103E1C0003F01F03012202FA03F30B4208D001F056
:103E2C00A5FD801B41F288339842E7D90320F5E0C9
:103E3C00002D68D1636A022B6BD8636A002B00F0EB
:103E4C00EC803D4A926802F00C020C2A00F0E880EB
:103E5C00022B40F0B080A36A13B1B3F5803F5ED162
:103E6C00E36AE3B1B3F5802F19D0B3F5002F16D068
:103E7C00B3F5402F13D0B3F5801F10D0B3F5A01FAE
:103E8C000DD0B3F5C01F0AD0B3F5E01F07D0B3F5C2
:103E9C00001F04D040F291212848FCF74FFB236B04
:103EAC00B3F5800F05D0B3F5000F02D0B3F5400F7A
:103EBC003BD14FF0807393FAA3F3B3FA83F303F17E
:103ECC00845303F58E139B0000221A6001F04EFD03
:103EDC0005464FF0007393FAA3F3174B19684FF094
:103EEC00007393FAA3F3B3FA83F303F01F030122D5
:103EFC0002FA03F30B4227D001F038FD401B0228D5
:103F0C00E7D903208AE00C4A536A23F080535362AA
:103F1C0090E740F287210948FCF710FB8DE74FF43E
:103F2C0024710648FCF70AFB9AE740F292210348F9
:103F3C00FCF704FBBDE700BF00380240BC6B000877
:103F4C00A0C191100070004036498B6823F47D03AA
:103F5C00A26AE06A0243206B024313438B604FF06A
:103F6C00807393FAA3F3B3FA83F303F1845303F549
:103F7C008E139B0001221A6001F0F8FC04464FF0EE
:103F8C00007393FAA3F3274B19684FF0007393FA5D
:103F9C00A3F3B3FA83F303F01F03012202FA03F332
:103FAC000B4206D101F0E2FC001B0228E7D90320EA
:103FBC0034E0002032E04FF0807393FAA3F3B3FAAD
:103FCC0083F303F1845303F58E139B0000221A60D4
:103FDC0001F0CCFC04464FF0007393FAA3F3114BA1
:103FEC0019684FF0007393FAA3F3B3FA83F303F059
:103FFC001F03012202FA03F30B4206D001F0B6FCB8
:10400C00001B0228E7D9032008E0002006E001206D
:10401C0004E0012002E0012000E0002002B070BDAD
:10402C000120FBE700380240224B986800F00C029C
:10403C00082A3CD00C2A13D0042A0FD01D4B5868E8
:10404C0000F460404FF4604393FAA3F3B3FA83F3A4
:10405C00D840431C4FF400409840704716487047B6
:10406C0000F470114FF4701292FAA2F2B2FA82F2CA
:10407C0021FA02F211498A5C00F440004FF440032B
:10408C0093FAA3F3B3FA83F3D8400130094B9B683E
:10409C0013F4803F05D00A4B03FB02F3B3FBF0F0A3
:1040AC007047054B03FB02F3B3FBF0F07047044879
:1040BC00704700BF003802400024F400606A00081A
:1040CC0000366E0170B50D460446D0B1236813F06E
:1040DC000F0F1CD0012D20D8B54B1B6803F001032A
:1040EC00AB4226D2012D1ED0B14A136823F0010336
:1040FC002B431360136803F00103AB4219D001206A
:10410C0070BD4FF43C71AB48FCF718FADEE740F297
:10411C00F121A848FCF712FADCE740F2F221A5489D
:10412C00FCF70CFAD8E7A24A136843F004031360B7
:10413C00DAE7236813F0020F18D0A3687BB1802B49
:10414C000DD0902B0BD0A02B09D0B02B07D0C02BAF
:10415C0005D0D02B03D0E02B01D0F02B2AD1964ADE
:10416C00936823F0F003A1680B439360236813F06A
:10417C00010F00F0B2806368032B21D86368022B17
:10418C0024D0032B54D0012B67D04FF4007292FA39
:10419C00A2F2894A10684FF4007292FAA2F2B2FAB3
:1041AC0082F202F01F02012101FA02F2024221D135
:1041BC000120A5E740F209317E48FCF7BFF9CEE7B4
:1041CC004FF444717B48FCF7B9F9D7E74FF4003250
:1041DC0092FAA2F2784A10684FF4003292FAA2F2E4
:1041EC00B2FA82F202F01F02012101FA02F202423B
:1041FC0000F0EE8070498A6822F0030213438B6052
:10420C0001F0B4FB06466368022B39D0032B46D071
:10421C00012B53D0684B9B6813F00C0F5DD001F051
:10422C00A5FB801B41F288339842F3D9032067E742
:10423C004FF0007292FAA2F25F4A10684FF00072CF
:10424C0092FAA2F2B2FA82F202F01F02012101FAF2
:10425C0002F20242CED1012052E7022292FAA2F2DD
:10426C00554A1068022292FAA2F2B2FA82F202F0D5
:10427C001F02012101FA02F20242BBD101203FE7E9
:10428C004D4B9B6803F00C03082B26D001F06EFB02
:10429C00801B41F288339842F2D9032030E7464B19
:1042AC009B6803F00C030C2B17D001F05FFB801BF9
:1042BC0041F288339842F2D9032021E73E4B9B68A8
:1042CC0003F00C03042B08D001F050FB801B41F2CF
:1042DC0088339842F2D9032012E7354B1B6803F060
:1042EC000103AB4214D9012D0CD0314A136823F0D1
:1042FC0001032B431360136803F00103AB4207D097
:10430C000120FDE62A4A136843F004031360ECE72E
:10431C00236813F0040F14D0E3685BB1B3F5806F1E
:10432C0008D0B3F5A06F05D0B3F5C06F02D0B3F5CC
:10433C00E06F36D1204A936823F4E063E1680B43C5
:10434C009360236813F0080F15D023695BB1B3F5A4
:10435C00806F08D0B3F5A06F05D0B3F5C06F02D055
:10436C00B3F5E06F2ED1144A936823F4605321699E
:10437C0043EAC1039360FFF757FE0F4B9B6803F0B2
:10438C00F003F02292FAA2F2B2FA82F2D3400B4A74
:10439C00D35CD8400A4B1860002001F0BDFA002015
:1043AC00AEE640F275310348FCF7C8F8C2E700BF2F
:1043BC00003C0240BC6B000800380240486A000810
:1043CC00600000204FF45F710248FCF7B7F8CAE7B1
:1043DC00012095E6BC6B0008014B1868704700BFC4
:1043EC006000002008B5FFF7F7FF074B9B6803F44C
:1043FC00E0634FF4E06292FAA2F2B2FA82F2D34096
:10440C00024AD35CD84008BD00380240586A000804
:10441C0008B5FFF7E1FF074B9B6803F460534FF4BB
:10442C00605292FAA2F2B2FA82F2D340024AD35C00
:10443C00D84008BD00380240586A0008F0B583B077
:10444C0004460368013B012B00F2A080236813F0A3
:10445C00030F00F0F98013F0010F16D06368A3B1BD
:10446C00B3F5803F11D0B3F5003F0ED0B3F5403F0C
:10447C000BD0774A934208D002F10052934204D0F9
:10448C0002F10052934240F08680236813F0020F31
:10449C0015D0A3689BB1B3F5803F10D0B3F5003FA6
:1044AC000DD0B3F5403F0AD0694A934207D002F1D0
:1044BC000052934203D002F10052934270D1654BEB
:1044CC005B6A13F0805F70D1624B5A6A42F0805283
:1044DC005A625B6A03F080530193019B01255E4B8A
:1044EC001B6813F4807F62D05A4B1B6803F0C043E7
:1044FC00626802F0C04199426DD002F44033B3F5CA
:10450C00403F6ED0534B5B6B13F440332DD002F411
:10451C0040329A4203D0226812F0010F08D1A268EF
:10452C0002F440329A4220D0236813F0020F1CD0C0
:10453C004848416B21F440364FF4000393FAA3F240
:10454C00B2FA82F2454F3A4492004FF0010CC2F895
:10455C0000C093FAA3F3B3FA83F33B449B0000220D
:10456C001A60466311F4807F42D1636803F44032D1
:10457C00B2F5403F59D037494B6B626802F4403278
:10458C0013434B63002D59D100205EE07221344857
:10459C00FBF7D4FF5AE77E213148FBF7CFFF74E7D6
:1045AC0084212F48FBF7CAFF89E7002597E72A4AA1
:1045BC00136843F48073136001F0D8F90646264B58
:1045CC001B6813F4807F8FD101F0D0F9801B642815
:1045DC00F5D9032039E0A16801F0C04199428CD192
:1045EC0090E71C4B1B6813F4003F8BD001202CE090
:1045FC0001F0BCF906464FF4007393FAA3F2154A86
:10460C00516B93FAA3F3B3FA83F303F01F03012264
:10461C0002FA03F30B42A8D101F0A8F9801B41F276
:10462C0088339842E7D903200FE00A490A6822F040
:10463C00C04203F0C04313430B609CE74B6A23F06A
:10464C0080534B62002000E0002003B0F0BD00BF9F
:10465C00000003200038024000700040A0C19110FF
:10466C00F46B00087047000010B5044603689A68A4
:10467C0012F4805F03D0DB6813F4807F0FD12368C2
:10468C009A6812F4005F03D0DB6813F4007F0FD13B
:10469C000C4B4FF400325A610123637710BDFFF7C6
:1046AC00E1FF2268D368DBB263F4C073D360E6E742
:1046BC00204600F096FC2268D368DBB263F42073CA
:1046CC00D360E5E70004014038B50368DA6812F0FE
:1046DC00400F01D0002038BD04464FF0FF32DA60A5
:1046EC0001F044F905462368DB6813F0400F07D14D
:1046FC0001F03CF9401BB0F57A7FF4D90320EAE7CE
:10470C000020E8E7002800F0958038B504460268E0
:10471C004A4B9A4203D0CB214948FBF70FFF636801
:10472C00402B01D0002B5BD1A3687F2B5DD8E368B5
:10473C00B3F5004F5ED2236943B1B3F5001F05D02A
:10474C00B3F5800F02D0B3F5C00F58D1636913B124
:10475C00B3F5801F58D1A36913B1B3F5802F58D18D
:10476C00637F002B5AD0022363772368CA225A62D4
:10477C00236853225A622046FFF7A6FF0246002800
:10478C0051D121688B6823F4E00323F040038B6044
:10479C0020688168636825692B4365692B430B434B
:1047AC0083602368E168196121680B69A06843EA9A
:1047BC0000430B612168CB6823F08003CB60216838
:1047CC000B6C23F480230B6421680B6CA0690343EE
:1047DC000B642368FF21596201236377104638BDAF
:1047EC00CC211748FBF7AAFE9EE7CD211448FBF716
:1047FC00A5FE9CE7CE211248FBF7A0FE9BE7CF213C
:10480C000F48FBF79BFEA1E7D0210D48FBF796FE66
:10481C00A1E7D1210A48FBF791FEA1E723772046B7
:10482C00FCF794F99FE72368FF225A62042363770D
:10483C000122D3E701221046704700BF0028004038
:10484C002C6C0008002302E001330A38C0B209289E
:10485C00FAD81B01DBB218437047030903EB83033F
:10486C005A0000F00F001044C0B2704770B50446F7
:10487C000D461646012A2AD8EB68B3F5003F03D043
:10488C00B3F5803F00D043BB2B6913B1B3F5802F38
:10489C0029D1237F012B00F0EA8001232377022307
:1048AC006377002E6DD123689B6813F0400F26D0E0
:1048BC002B78013BDBB20B2B1BD8EB7823B3402BB3
:1048CC0022D040F26B116B48FBF738FE1CE040F233
:1048DC005D116848FBF732FECEE74FF4AF716548C7
:1048EC00FBF72CFED0E740F25F116248FBF726FE87
:1048FC00CFE74FF4B5715F48FBF720FEDDE70023EF
:10490C00EB702B78172B2AD86B783B2B2DD8AB78E8
:10491C003B2B30D82878FFF795FF06046878FFF713
:10492C0091FF46EA0026A878FFF78CFF3043EE781B
:10493C0040EA06462368CA225A62236853225A6206
:10494C002046FFF7C1FE002864D02368FF225A627C
:10495C0004236377002323770123184670BD4FF49B
:10496C00B8714448FBF7EAFDCEE74FF4B971414802
:10497C00FBF7E4FDCBE740F273113E48FBF7DEFD9D
:10498C00C8E723689B6813F0400F15D02878FFF711
:10499C0064FF01380B2809D8EB78A3B1402B12D057
:1049AC004FF4C0713348FBF7C9FD0CE040F27F11A6
:1049BC003048FBF7C3FDEFE70023EB702878FFF7D7
:1049CC004CFF172814D86878FFF747FF3B2815D8F9
:1049DC00A878FFF742FF3B2816D82E78687800029B
:1049EC0040EA0640AE783043EE7840EA0646A1E74E
:1049FC0040F285111F48FBF7A1FDE4E740F2871157
:104A0C001C48FBF79BFDE3E74FF4C4711948FBF717
:104A1C0095FDE2E7236806F07F3626F0FE461E6021
:104A2C002268936823F48023936021688B68EA687A
:104A3C002869024313438B602268D36823F08003F8
:104A4C00D360204600F0AEFA034638B92268FF2145
:104A5C00516201226277002222777EE72368FF22CF
:104A6C005A620423637700232377012375E702231B
:104A7C0073E700BF2C6C000870B504460D46164653
:104A8C00012A49D8237F012B00F0B380012323771F
:104A9C00022363773EB96B7813F0100F03D003F049
:104AAC00EF030A336B702B78013BDBB2062B39D842
:104ABC00002E4FD1EB78632B3AD86B78013BDBB2ED
:104ACC000B2B3BD8AB78013BDBB21E2B3CD8E878E8
:104ADC00FFF7B8FE06046878FFF7B4FE46EA002636
:104AEC00A878FFF7AFFE30432D7840EA45352368B0
:104AFC00CA225A62236853225A622046FFF7E4FD09
:104B0C00002855D02368FF225A62042363770023C0
:104B1C0023770123184670BD4FF4EC713648FBF730
:104B2C000DFDAFE74FF4F2713348FBF707FDBFE71C
:104B3C004FF4F4713048FBF701FDBEE740F2E91188
:104B4C002D48FBF7FBFCBDE74FF4F5712A48FBF74A
:104B5C00F5FCBCE7E878FFF780FE632816D8687888
:104B6C00FFF77BFE01380B2816D8A878FFF775FEE7
:104B7C0001381E2816D8EB786878000240EA03400A
:104B8C00AB7818432D7840EA4535B0E740F2F31185
:104B9C001948FBF7D3FCE2E740F2F5111648FBF796
:104BAC00CDFCE2E740F2F7111348FBF7C7FCE2E754
:104BBC00236825F07F4525F0C0055D602268D36829
:104BCC0023F08003D360204600F0ECF9034638B99B
:104BDC002268FF215162012262770022227799E735
:104BEC002368FF225A62042363770023237701236F
:104BFC0090E702238EE700BF2C6C0008F8B5054641
:104C0C000C461646012A66D8636AB3F5807F02D03B
:104C1C00B3F5007F65D1636913F07F3F67D1E3691A
:104C2C0013B1B3F1804F68D16368B3F5004F6AD20A
:104C3C00A3698BB3B3F1807F2ED0B3F1007F2BD05F
:104C4C00B3F1407F28D0B3F1806F25D0B3F1A06FC2
:104C5C0022D0B3F1C06F1FD0B3F1E06F1CD0B3F111
:104C6C00006F19D0B3F1106F16D0B3F1206F13D0C1
:104C7C00B3F1306F10D0B3F1406F0DD0B3F1506F72
:104C8C000AD0B3F1606F07D0B3F1706F04D040F26B
:104C9C000621B248FBF752FC2B7F012B00F07E81E2
:104CAC0001232B7702236B77002E40F0BA802B6800
:104CBC009B6813F0400F32D02378013BDBB20B2BF7
:104CCC0027D8E37883B3402B2ED040F21321A3488E
:104CDC00FBF734FC28E04FF40071A048FBF72EFCE6
:104CEC0092E740F201219D48FBF728FC93E740F244
:104CFC0002219A48FBF722FC91E740F203219748E6
:104D0C00FBF71CFC90E740F205219448FBF716FCDE
:104D1C008EE740F212219148FBF710FCD1E70023FB
:104D2C00E3702378172B58D863783B2B5BD8A37888
:104D3C003B2B5ED8E369002B67D194F82030013B04
:104D4C00DBB21E2B5BD82078FFF77CFD0604607865
:104D5C00FFF778FD46EA0026A078FFF773FD0643BF
:104D6C00E07846EA004694F82000FFF76BFD46EA2F
:104D7C000066E0690643606906436768A3691F43E0
:104D8C002B68CA225A622B6853225A62636AB3F5A3
:104D9C00807F00F0B3802A68936823F400739360DB
:104DAC002A68D368DBB263F42073D36000F0DEFDB5
:104DBC0004462B68DA6812F0020F40F0D18000F044
:104DCC00D5FD001BB0F57A7FF3D92B68FF225A6210
:104DDC000320687700232B77DFE04FF406715F48E0
:104DEC00FBF7ACFBA0E740F21A215C48FBF7A6FBF3
:104DFC009DE740F21B215948FBF7A0FB9AE740F2D4
:104E0C001F215648FBF79AFB9DE794F82030013B95
:104E1C00DBB2062B97D940F223215048FBF78EFBCF
:104E2C0091E72B689B6813F0400F15D02078FFF7A3
:104E3C0014FD01380B2809D8E378A3B1402B12D00C
:104E4C0040F233214548FBF779FB0CE040F232216C
:104E5C004248FBF773FBEFE70023E3702078FFF782
:104E6C00FCFC172825D86078FFF7F7FC3B2826D8E0
:104E7C00A078FFF7F2FC3B2827D8E3698BBB94F8AA
:104E8C002000FFF7EAFC01381E2824D82378667826
:104E9C00360246EA0346A3781E43E37846EA034605
:104EAC0094F8203046EA0366E3691E4360690643C2
:104EBC0063E74FF40E712948FBF740FBD3E740F250
:104ECC003B212648FBF73AFBD2E74FF40F712348FE
:104EDC00FBF734FBD1E740F241212048FBF72EFBD6
:104EEC00D4E794F82000FFF7B8FC01380628CDD998
:104EFC0040F246211948FBF721FBC7E72A68936863
:104F0C0023F4807393602A68D368DBB263F4C073B4
:104F1C00D36000F02BFD04462B68DA6812F0010F09
:104F2C000DD100F023FD001BB0F57A7FF4D92B686E
:104F3C00FF225A620320687700232B772DE0DE6175
:104F4C002B685F642A68936843F4807393602A68C3
:104F5C00936843F4805393600FE000BF646C0008C7
:104F6C001E622B689F642A68936843F400739360F5
:104F7C002A68936843F400539360094B1A6842F40F
:104F8C0000321A609A6842F400329A602B68FF2251
:104F9C005A6201236B7700202877F8BD0220FCE7CA
:104FAC000004014038B503689A6812F0200F01D054
:104FBC00002038BD0446DA6822F0A002DA6000F066
:104FCC00D5FC05462368DB6813F0200F07D100F0F1
:104FDC00CDFC401BB0F57A7FF4D90320E9E7002023
:104FEC00E7E77047704700B585B003685A6812F060
:104FFC00400F0AD09A6812F0010F06D09A6812F08E
:10500C00400F02D1836C984709E05A6812F0800F68
:10501C0008D09A6812F0020F04D0C36C984705B000
:10502C005DF804FB5A6812F0200FF8D09A6812F061
:10503C00100F06D0426D42F0020242656FF0100272
:10504C009A6003689A6812F0200F0AD0426D42F001
:10505C00010242659A6801921A6822F040021A60B5
:10506C00019B03689A6812F0400F0DD090F8512004
:10507C00D2B2122A08D0426D42F004024265DA68BC
:10508C0002929A680292029A9A6812F4807F06D071
:10509C00426D42F0080242659A680392039A426D8F
:1050AC00002ABCD05A6822F0E0025A60012380F832
:1050BC005130FFF797FFB2E7002800F0CA8010B517
:1050CC0004460368644A93420BD0A2F5784293429B
:1050DC0007D002F58062934203D054215F48FBF75E
:1050EC002DFA636813B1B3F5827F75D1A3682BB128
:1050FC00B3F5806F02D0B3F5004F72D1E368B3F50E
:10510C00006F01D0002B71D123690BB1022B72D12E
:10511C006369012B74D8A369B3F5007F03D013B175
:10512C00B3F5802F71D1E3696BB1082B0BD0102B29
:10513C0009D0182B07D0202B05D0282B03D0302BCF
:10514C0001D0382B66D1236A0BB1802B67D1636AEF
:10515C000BB1102B68D1A36A13B1B3F5005F68D102
:10516C00E36A013B4FF6FE72934267D894F85130D4
:10517C00002B68D0022384F851302268136823F086
:10518C00400313606368A2681343E2681343226907
:10519C00134362691343A26902F400721343E26978
:1051AC001343226A1343A16A22680B431360638B77
:1051BC0003F00403616A22680B4353602368E26ABC
:1051CC001A612268D36923F40063D36100206065FF
:1051DC00012384F8513010BD55212048FBF7AEF95E
:1051EC0084E756211D48FBF7A9F987E757211B488F
:1051FC00FBF7A4F988E758211848FBF79FF987E7D4
:10520C0059211648FBF79AF985E75A211348FBF701
:10521C0095F988E75B211148FBF790F993E75C213E
:10522C000E48FBF78BF992E75D210C48FBF786F9EA
:10523C0091E75E210948FBF781F991E75F21074867
:10524C00FBF77CF992E784F850302046FBF79CFC86
:10525C0090E70120704700BF003001409C6C0008B3
:10526C0090F83930DBB2122B01D0322B2AD1836863
:10527C00B3F5805F16D0036A5A1C02621A78036871
:10528C005A60C38C013B9BB2C384EBB90268D368F0
:10529C0023F08003D3600268D36843F04003D360EB
:1052AC0000207047036A1B880268C3F3080353602D
:1052BC0003691BB9036A02330362E2E7036A013331
:1052CC000362DEE702207047002070472DE9F843A7
:1052DC0004464268B04B9A4200F29780E3681BB1D7
:1052EC00B3F5005F40F09780236933B1B3F5806F5D
:1052FC0003D0B3F5C06F40F09480636933F00C02B7
:10530C0000D123B940F25971A448FBF717F9226870
:10531C00136923F44053E1680B431361A3682269BA
:10532C00134362691343E2691A432168CB6823F47F
:10533C00164323F00C031343CB602268536923F408
:10534C004073A1690B435361E369B3F5004F6ED011
:10535C002268934B9A4200F02781FFF743F800EB49
:10536C00800000EB80006568AD00B0FBF5F58D4F5B
:10537C00A7FB05356D092E01FFF734F800EB800013
:10538C0000EB80006568AD00B0FBF5F9FFF72AF87B
:10539C0000EB800000EB80006568AD00B0FBF5F51C
:1053AC00A7FB05356D094FF0640808FB15952D0119
:1053BC003235A7FB05356D0905F0F0053544FFF7CF
:1053CC0011F800EB800000EB80006668B600B0FBC3
:1053DC00F6F6FFF707F800EB800000EB800063683F
:1053EC009B00B0FBF3F0A7FB0030400908FB1068F2
:1053FC004FEA081808F13208A7FB0837C7F3431720
:10540C0023682F449F60BDE8F88340F256716348CF
:10541C00FBF794F862E740F257716048FBF78EF89F
:10542C0062E74FF4EB615D48FBF788F865E72268AB
:10543C005B4B9A4257D0FEF7D5FF00EB800000EB98
:10544C00800065686D00B0FBF5F5564FA7FB053580
:10545C006D092E01FEF7C6FF00EB800000EB80000B
:10546C0065686D00B0FBF5F9FEF7BCFF00EB800042
:10547C0000EB800065686D00B0FBF5F5A7FB05350A
:10548C006D094FF0640808FB1595ED003235A7FB4C
:10549C0005356D096D0005F4F8753544FEF7A2FF6E
:1054AC0000EB800000EB800066687600B0FBF6F63F
:1054BC00FEF798FF00EB800000EB800063685B0058
:1054CC00B0FBF3F3A7FB03235B0908FB13684FEA5C
:1054DC00C80808F13208A7FB0837C7F3421723683E
:1054EC002F449F608FE7FEF793FF00EB800000EBEB
:1054FC00800065686D00B0FBF5F52A4FA7FB0535FC
:10550C006D092E01FEF784FF00EB800000EB80009C
:10551C0065686D00B0FBF5F9FEF77AFF00EB8000D3
:10552C0000EB800065686D00B0FBF5F5A7FB053559
:10553C006D094FF0640808FB1595ED003235A7FB9B
:10554C0005356D096D0005F4F8753544FEF760FFFF
:10555C0000EB800000EB800066687600B0FBF6F68E
:10556C00FEF756FF00EB800000EB800063685B00E9
:10557C00B0FBF3F3A7FB03235B0908FB13684FEAAB
:10558C00C80808F13208A7FB0837C7F3421723688D
:10559C002F449F6037E700BF00093D00D46C000822
:1055AC00003801401F85EB51FEF732FF00EB800005
:1055BC0000EB80006568AD00B0FBF5F5264FA7FB4E
:1055CC0005356D092E01FEF723FF00EB800000EB83
:1055DC0080006568AD00B0FBF5F9FEF719FF00EB34
:1055EC00800000EB80006568AD00B0FBF5F5A7FB13
:1055FC0005356D094FF0640808FB15952D01323502
:10560C00A7FB05356D0905F0F0053544FEF700FFE5
:10561C0000EB800000EB80006668B600B0FBF6F68D
:10562C00FEF7F6FE00EB800000EB800063689B0049
:10563C00B0FBF3F3A7FB03235B0908FB13684FEAEA
:10564C00081808F13208A7FB0837C7F3431723687B
:10565C002F449F60D7E600BF1F85EB5100287DD0FB
:10566C0010B5044683690BB303683D4A93420CD0D2
:10567C00A2F57442934208D002F58062934204D0A2
:10568C004FF482713748FAF759FFA3693BB3B3F56E
:10569C00807F24D0B3F5007F21D0B3F5407F1ED09E
:1056AC0040F205112F48FAF749FF18E003682C4A1D
:1056BC00934214D0A2F57442934210D002F580624A
:1056CC0093420CD002F58062934208D002F58062BE
:1056DC00934204D040F209112248FAF72FFFA36835
:1056EC0013B1B3F5805F27D1E36913B1B3F5004F64
:1056FC0028D194F839305BB3022384F8393022680E
:10570C00D36823F40053D3602046FFF7DFFD2268F3
:10571C00136923F4904313612268536923F02A031D
:10572C0053612268D36843F40053D3600020E063D4
:10573C00012384F8393010BD40F20B110948FAF7F7
:10574C00FDFED1E74FF486710648FAF7F7FED0E775
:10575C0084F838302046FBF755FACDE70120704726
:10576C0000380140D46C000808B50268D36823F0F7
:10577C004003D36090F83930DBB2322B06D00123D2
:10578C0080F83930FBF7BCFA002008BD222380F8E2
:10579C003930F7E7704708B590F83930DBB2222B77
:1057AC0001D0322B4ED18368B3F5805F29D00369C9
:1057BC00002B3AD103685A68836A591C81621A70AB
:1057CC00C38D013B9BB2C385002B3DD10268D368CE
:1057DC0023F02003D36090F83930DBB2322B2DD07C
:1057EC000268D36823F48073D3600268536923F092
:1057FC0001035361012380F83930FFF7CBFF002000
:10580C0008BD826A036943B903685B68C3F3080384
:10581C001380836A02338362D2E703685B68DBB26E
:10582C001380836A01338362CAE703685B68826A08
:10583C00511C816203F07F031370C1E7122380F8BF
:10584C003930DAE70220DBE70020D9E7704710B5E2
:10585C0082B0044603681968DA6811F0010F06D0AB
:10586C0002F480721AB1C26B42F00102C263196871
:10587C005A6902F0010211F0020F04D01AB1E16B67
:10588C0041F00401E163196811F0040F04D01AB15E
:10589C00E16B41F00201E163196811F0080F04D0CB
:1058AC001AB1E26B42F00802E2631A68DB6803F09B
:1058BC00200312F0200F00D0ABB923681A68DB6804
:1058CC0003F0800312F0800F00D083B923681A68AC
:1058DC00DB6803F0400312F0400F00D05BB9E36BC0
:1058EC006BB902B010BD2046FFF755FFE5E7204627
:1058FC00FFF7B6FCEAE72046FFF736FFEFE7236831
:10590C001A6801925B680193019B012384F839307A
:10591C002046FFF79BFFE4E710B50446074B1868D9
:10592C00074BA3FB00308009FBF76CFA00222146E1
:10593C004FF0FF30FBF70AFA002010BD600000208A
:10594C00D34D621008B50320FBF7E2F90020FFF7F6
:10595C00E3FFFBF749F8002008BD0000024A13687A
:10596C0001331360704700BF70130020014B18689F
:10597C00704700BF7013002098B108B50346D0F8EB
:10598C00140210B10020C3F8140209B1C3F81012AC
:10599C001846012380F8FC310270FAF771FE0020E2
:1059AC0008BD0220704719B1C0F8141200207047CE
:1059BC000220704708B5FAF7A5FE002008BD08B50F
:1059CC00D0F8143233B11B68984708B9002008BDD1
:1059DC000220FCE70220FAE708B5D0F814325B6825
:1059EC009847002008BD38B5044600F502752846D6
:1059FC0000F00CF90123C4F8F431B4F80E32C4F8F9
:105A0C00F83194F8081201F01F03012B0ED03BB1B2
:105A1C00022B10D001F080012046FAF78EFE03E035
:105A2C002946204600F06BFA002038BD2946204656
:105A3C0000F089FAF8E72946204600F0A0FAF3E7CF
:105A4C0010B5044621BB1346D0F8F421032A01D02B
:105A5C00002010BDD0F80C11D0F8102191420CD8B8
:105A6C00D0F814321B6923B190F8FC21032A00D121
:105A7C009847204600F058FBEAE7891AC0F80C1149
:105A8C008A4228BF0A4692B2194600F045FBDFE76E
:105A9C000A46D0F814329B69002BD9D090F8FC112F
:105AAC000329D5D111469847D2E710B504460029F1
:105ABC0046D11346D0F8F421022A05D094F80032CE
:105ACC00012B39D0002010BDC169026A914219D84E
