:020000040800F2
:10000000004001203DBC0008A5150008A715000808
:10001000AB150008AD150008AF1500080000000082
:10002000000000000000000000000000B115000802
:10003000B315000800000000B5150008B71500084A
:1000400085BC000885BC000885BC000885BC00088C
:1000500085BC000885BC0008D7150008E11500081C
:10006000EB150008F5150008FF15000885BC000811
:1000700085BC000885BC000885BC000885BC00085C
:1000800085BC0008C715000885BC000885BC0008B1
:1000900085BC000885BC000885BC0008091600085E
:1000A00085BC000885BC000885BC000885BC00082C
:1000B00085BC000885BC000885BC000885BC00081C
:1000C00085BC000885BC000885BC000885BC00080C
:1000D00085BC000885BC0008BF15000885BC000869
:1000E0002F160008CF15000885BC000885BC000845
:1000F00085BC00080000000085BC000885BC000825
:1001000085BC000885BC000885BC000885BC0008CB
:1001100085BC000885BC000885BC00080000000004
:1001200085BC000800000000000000000000000086
:0C01300000000000000000005FF808F173
:1001400010B5054C237833B9044B13B10448AFF311
:1001500000800123237010BD400200200000000039
:10016000A8D1000808B5034B1BB103490348AFF3FE
:10017000008008BD0000000044020020A8D1000853
:1001800081F0004102E000BF83F0004330B54FEA48
:1001900041044FEA430594EA050F08BF90EA020FB5
:1001A0001FBF54EA000C55EA020C7FEA645C7FEA48
:1001B000655C00F0E2804FEA5454D4EB5555B8BF6B
:1001C0006D420CDD2C4480EA020281EA030382EADC
:1001D000000083EA010180EA020281EA0303362D6E
:1001E00088BF30BD11F0004F4FEA01314FF4801C41
:1001F0004CEA113102D0404261EB410113F0004F53
:100200004FEA03334CEA133302D0524263EB430309
:1002100094EA050F00F0A780A4F10104D5F1200EA7
:100220000DDB02FA0EFC22FA05F2801841F1000102
:1002300003FA0EF2801843FA05F359410EE0A5F1D6
:1002400020050EF1200E012A03FA0EFC28BF4CF007
:10025000020C43FA05F3C01851EBE37101F00045BD
:1002600007D54FF0000EDCF1000C7EEB00006EEBCA
:100270000101B1F5801F1BD3B1F5001F0CD3490854
:100280005FEA30004FEA3C0C04F101044FEA4452AB
:1002900012F5800F80F09A80BCF1004F08BF5FEA32
:1002A000500C50F1000041EB045141EA050130BD12
:1002B0005FEA4C0C404141EB010111F4801FA4F1B5
:1002C0000104E9D191F0000F04BF01460020B1FA0A
:1002D00081F308BF2033A3F10B03B3F120020CDA42
:1002E0000C3208DD02F1140CC2F10C0201FA0CF020
:1002F00021FA02F10CE002F11402D8BFC2F1200C85
:1003000001FA02F120FA0CFCDCBF41EA0C0190403A
:10031000E41AA2BF01EB0451294330BD6FEA040483
:100320001F3C1CDA0C340EDC04F11404C4F120026E
:1003300020FA04F001FA02F340EA030021FA04F380
:1003400045EA030130BDC4F10C04C4F1200220FAD7
:1003500002F001FA04F340EA0300294630BD21FA15
:1003600004F0294630BD94F0000F83F4801306BFDB
:1003700081F480110134013D4EE77FEA645C18BFCF
:100380007FEA655C29D094EA050F08BF90EA020F66
:1003900005D054EA000C04BF1946104630BD91EA5E
:1003A000030F1EBF0021002030BD5FEA545C05D161
:1003B0004000494128BF41F0004130BD14F58004A0
:1003C0003CBF01F5801130BD01F0004545F0FE4114
:1003D00041F470014FF0000030BD7FEA645C1ABF49
:1003E000194610467FEA655C1CBF0B46024650EA80
:1003F000013406BF52EA033591EA030F41F40021AC
:1004000030BD00BF90F0000F04BF0021704730B531
:100410004FF4806404F132044FF000054FF0000106
:1004200050E700BF90F0000F04BF0021704730B5C7
:100430004FF4806404F1320410F0004548BF40429C
:100440004FF000013EE700BF42004FEAE2014FEAF1
:1004500031014FEA02701FBF12F07F4393F07F4FCC
:1004600081F06051704732F07F4208BF704793F0CF
:100470007F4F04BF41F40021704730B54FF46074E2
:1004800001F0004521F000411CE700BF50EA0102E5
:1004900008BF704730B54FF000050AE050EA01028E
:1004A00008BF704730B511F0004502D5404261EBFE
:1004B00041014FF4806404F132045FEA915C3FF43F
:1004C000D8AE4FF003025FEADC0C18BF03325FEADC
:1004D000DC0C18BF033202EBDC02C2F1200300FA8D
:1004E00003FC20FA02F001FA03FE40EA0E0021FAB2
:1004F00002F11444BDE600BF70B54FF0FF0C4CF4A0
:10050000E06C1CEA11541DBF1CEA135594EA0C0F51
:1005100095EA0C0F00F0DEF82C4481EA030621EA8C
:100520004C5123EA4C5350EA013518BF52EA0335C7
:1005300041F4801143F4801338D0A0FB02CE4FF079
:100540000005E1FB02E506F00042E0FB03E54FF0A9
:100550000006E1FB03569CF0000F18BF4EF0010EA1
:10056000A4F1FF04B6F5007F64F5407404D25FEA9D
:100570004E0E6D4146EB060642EAC62141EA555150
:100580004FEAC52040EA5E504FEACE2EB4F1FD0C92
:1005900088BFBCF5E06F1ED8BEF1004F08BF5FEA10
:1005A000500E50F1000041EB045170BD06F00046C2
:1005B00046EA010140EA020081EA0301B4EB5C046F
:1005C000C2BFD4EB0C0541EA045170BD41F4801167
:1005D0004FF0000E013C00F3AB8014F1360FDEBF8C
:1005E000002001F0004170BDC4F10004203C35DA68
:1005F0000C341BDC04F11404C4F1200500FA05F3EB
:1006000020FA04F001FA05F240EA020001F000428B
:1006100021F0004110EBD37021FA04F642EB060101
:100620005EEA430E08BF20EAD37070BDC4F10C042B
:10063000C4F1200500FA04F320FA05F001FA04F2EF
:1006400040EA020001F0004110EBD37041F10001DB
:100650005EEA430E08BF20EAD37070BDC4F12005E6
:1006600000FA05F24EEA020E20FA04F301FA05F24E
:1006700043EA020321FA04F001F0004121FA04F2F6
:1006800020EA020000EBD3705EEA430E08BF20EAC6
:10069000D37070BD94F0000F0FD101F00046400000
:1006A00041EB010111F4801F08BF013CF7D041EA82
:1006B000060195F0000F18BF704703F00046520086
:1006C00043EB030313F4801F08BF013DF7D043EA57
:1006D0000603704794EA0C0F0CEA135518BF95EA0D
:1006E0000C0F0CD050EA410618BF52EA4306D1D194
:1006F00081EA030101F000414FF0000070BD50EAB3
:10070000410606BF1046194652EA430619D094EA3C
:100710000C0F02D150EA013613D195EA0C0F05D126
:1007200052EA03361CBF104619460AD181EA03017A
:1007300001F0004141F0FE4141F470014FF0000032
:1007400070BD41F0FE4141F4780170BD70B54FF0CD
:10075000FF0C4CF4E06C1CEA11541DBF1CEA13554D
:1007600094EA0C0F95EA0C0F00F0A7F8A4EB05042F
:1007700081EA030E52EA03354FEA013100F0888026
:100780004FEA03334FF0805545EA131343EA1263EF
:100790004FEA022245EA111545EA10654FEA0026A4
:1007A0000EF000419D4208BF964244F1FD0404F55D
:1007B000407402D25B084FEA3202B61A65EB0305B9
:1007C0005B084FEA32024FF480104FF4002CB6EB76
:1007D000020E75EB030E22BFB61A754640EA0C00F6
:1007E0005B084FEA3202B6EB020E75EB030E22BF36
:1007F000B61A754640EA5C005B084FEA3202B6EB77
:10080000020E75EB030E22BFB61A754640EA9C0035
:100810005B084FEA3202B6EB020E75EB030E22BF05
:10082000B61A754640EADC0055EA060E18D04FEAC3
:10083000051545EA16754FEA06164FEAC30343EA63
:1008400052734FEAC2025FEA1C1CC0D111F4801F30
:100850000BD141EA00014FF000004FF0004CB6E729
:1008600011F4801F04BF01430020B4F1FD0C88BFC8
:10087000BCF5E06F3FF6AFAEB5EB030C04BFB6EBD3
:10088000020C5FEA500C50F1000041EB045170BDC6
:100890000EF0004E4EEA113114EB5C04C2BFD4EBF3
:1008A0000C0541EA045170BD41F480114FF0000E77
:1008B000013C90E645EA060E8DE60CEA135594EAF3
:1008C0000C0F08BF95EA0C0F3FF43BAF94EA0C0FF6
:1008D0000AD150EA01347FF434AF95EA0C0F7FF46B
:1008E00025AF104619462CE795EA0C0F06D152EABF
:1008F00003353FF4FDAE1046194622E750EA4106A3
:1009000018BF52EA43067FF4C5AE50EA41047FF4B3
:100910000DAF52EA43057FF4EBAE12E74FF0FF3C18
:1009200006E000BF4FF0010C02E000BF4FF0010CE9
:100930004DF804CD4FEA410C7FEA6C5C4FEA430C62
:1009400018BF7FEA6C5C1BD001B050EA410C0CBFB1
:1009500052EA430C91EA030F02BF90EA020F002013
:10096000704710F1000F91EA030F58BF994208BF7A
:1009700090422CBFD8176FEAE37040F00100704737
:100980004FEA410C7FEA6C5C02D150EA013C07D18E
:100990004FEA430C7FEA6C5CD6D152EA033CD3D0D9
:1009A0005DF8040B704700BF8446104662468C46D3
:1009B0001946634600E000BF01B5FFF7B7FF002806
:1009C00048BF10F1000F01BD4DF808EDFFF7F4FF2F
:1009D0000CBF012000205DF808FB00BF4DF808EDBA
:1009E000FFF7EAFF34BF012000205DF808FB00BFDD
:1009F0004DF808EDFFF7E0FF94BF012000205DF8FF
:100A000008FB00BF4DF808EDFFF7CEFF94BF0120B3
:100A100000205DF808FB00BF4DF808EDFFF7C4FFAC
:100A200034BF012000205DF808FB00BF4FEA4102FF
:100A300012F5001215D211D56FF47873B3EB625230
:100A400012D94FEAC12343F0004343EA505311F057
:100A5000004F23FA02F018BF404270474FF00000E9
:100A6000704750EA013005D111F0004008BF6FF027
:100A7000004070474FF00000704700BF4A0011D29D
:100A800012F5001211D20DD56FF47873B3EB6252E8
:100A90000ED44FEAC12343F0004343EA505323FAF4
:100AA00002F070474FF00000704750EA013002D169
:100AB0004FF0FF3070474FF00000704780F000406B
:100AC00002E000BF81F0004142001FBF5FEA410326
:100AD00092EA030F7FEA226C7FEA236C6AD04FEA26
:100AE0001262D2EB1363C1BFD2184140484041406B
:100AF000B8BF5B42192B88BF704710F0004F40F41D
:100B0000000020F07F4018BF404211F0004F41F438
:100B1000000121F07F4118BF494292EA030F3FD004
:100B2000A2F1010241FA03FC10EB0C00C3F1200317
:100B300001FA03F100F0004302D5494260EB4000A6
:100B4000B0F5000F13D3B0F1807F06D340084FEA11
:100B5000310102F10102FE2A51D2B1F1004F40EB06
:100B6000C25008BF20F0010040EA0300704749006E
:100B700040EB000010F4000FA2F10102EDD1B0FA39
:100B800080FCACF1080CB2EB0C0200FA0CF0AABF2E
:100B900000EBC25052421843BCBFD04018437047CC
:100BA00092F0000F81F4000106BF80F400000132D2
:100BB000013BB5E74FEA41037FEA226C18BF7FEAA9
:100BC000236C21D092EA030F04D092F0000F08BFEB
:100BD0000846704790EA010F1CBF0020704712F0D2
:100BE0007F4F04D1400028BF40F00040704712F111
:100BF00000723CBF00F50000704700F0004343F076
:100C0000FE4040F4000070477FEA226216BF0846AB
:100C10007FEA23630146420206BF5FEA412390EA6E
:100C2000010F40F4800070474FF0000304E000BF64
:100C300010F0004348BF40425FEA000C08BF704715
:100C400043F0964301464FF000001CE050EA0102D9
:100C500008BF70474FF000030AE000BF50EA0102EE
:100C600008BF704711F0004302D5404261EB4101DB
:100C70005FEA010C02BF84460146002043F0B64300
:100C800008BFA3F18053A3F50003BCFA8CF2083A25
:100C9000A3EBC25310DB01FA02FC634400FA02FC2E
:100CA000C2F12002BCF1004F20FA02F243EB020035
:100CB00008BF20F00100704702F1200201FA02FC97
:100CC000C2F1200250EA4C0021FA02F243EB02008A
:100CD00008BF20EADC70704753B94AB9002908BF41
:100CE00000281CBF4FF0FF314FF0FF3000F074B907
:100CF000ADF1080C6DE904CE00F006F8DDF804E073
:100D0000DDE9022304B070472DE9F0478C46044624
:100D1000089E002B4BD18A42154667D9B2FA82F25F
:100D20004AB1C2F1200701FA02F320FA07F7954011
:100D300047EA030C94404FEA154EBCFBFEF71FFA3E
:100D400085F80EFB17C307FB08F9210C41EA0343A2
:100D5000994509D9EB1807F1FF3180F01C819945BD
:100D600040F21981023F2B44A3EB0903B3FBFEF0D1
:100D70000EFB103300FB08F1A4B244EA0344A14285
:100D800009D92C1900F1FF3380F00781A14240F20C
:100D9000048102382C4440EA07400027641A1EB13F
:100DA0000023D440C6E900433946BDE8F0878B42B2
:100DB00009D9002E00F0EC800027C6E90001384672
:100DC0003946BDE8F087B3FA83F7002F48D18B424C
:100DD00002D3824200F2FB80841A61EB03030120FC
:100DE0009C46002EE0D0C6E9004CDDE702B9FFDEEC
:100DF000B2FA82F2002A40F08F800127491B4FEAA5
:100E000015481FFA85F9B1FBF8FE08FB1E1109FB16
:100E10000EF04FEA144C4CEA0143984207D9EB1804
:100E20000EF1FF3102D2984200F2CD808E461B1A9D
:100E3000B3FBF8F008FB103309FB00F9A4B244EA55
:100E40000344A14507D92C1900F1FF3302D2A14573
:100E500000F2B6801846A4EB090440EA0E409EE773
:100E6000C7F12005BB4022FA05FC4CEA030C21FA2D
:100E700005F44FEA1C4EB4FBFEF91FFA8CF80EFB8A
:100E8000194420FA05F3B94009FB08FA19430B0C81
:100E900043EA0444A24502FA07F200FA07F30BD929
:100EA0001CEB040409F1FF3080F08880A24540F279
:100EB0008580A9F102096444A4EB0A04B4FBFEF0A6
:100EC0000EFB104400FB08FA89B241EA0444A24533
:100ED00008D91CEB040400F1FF316BD2A24569D99B
:100EE0000238644440EA0940A0FB0289A4EB0A04EA
:100EF0004C454146CE4654D351D0002E69D05A1AA3
:100F000064EB0E0404FA05F522FA07F3FC401D43D6
:100F1000C6E90054002747E79540C2F1200321FAB3
:100F200003F04FEA1548B0FBF8F71FFA85F908FB04
:100F3000170024FA03F3914007FB09FC0B43190C3B
:100F400041EA00418C4504FA02F407D9691807F117
:100F5000FF3031D28C452FD9023F2944A1EB0C013F
:100F6000B1FBF8F008FB101C00FB09FE99B241EA46
:100F70000C418E4507D9691800F1FF3318D28E4510
:100F800016D902382944A1EB0E0140EA07473AE797
:100F90003746304608E70F46E6E61846FBE6434587
:100FA000ABD2B8EB020169EB0C0201389646A4E71C
:100FB0001846E8E7084695E70746CFE781467BE70E
:100FC00002382C4447E7AEF1020E2B442FE7384697
:100FD00007E73746E8E600BF704700BF2DE9F0435A
:100FE0008BB00024059406940794089409943D4B13
:100FF000DA6942F00402DA61DA6902F0040201926D
:10100000019ADA6942F02002DA61DA6902F020021C
:101010000292029ADA6942F00102DA61DA6902F0B8
:1010200001020392039ADA6942F00202DA61DB6993
:1010300003F002030493049B2B4D22464FF400510E
:10104000284603F063F8294E22464FF4806130466B
:1010500003F05CF84FF400530593012706970794BB
:10106000089405A9284602F079FF0597DFF88090DB
:10107000CDF818900794DFF87C8005A9404602F06F
:101080006DFF4FF48063059306970794089405A9B4
:10109000304602F063FF4FF4006305930694079413
:1010A00005A9304602F05AFFC0230593CDF81890E9
:1010B000079405A9284602F051FF4FF440730593A9
:1010C0000694079405A9284602F048FF4FF4807360
:1010D00005930694079405A9404602F03FFF0BB024
:1010E000BDE8F083003802400008024000040240DE
:1010F000000011100000024008B50B480B4B0360C4
:101100004FF48273436000238360C36003614361D3
:101110004FF480228261C3610362436283620A23C7
:10112000C36204F0B9FF08BD04180020003001407C
:1011300070B584B00025019502950395104C114BB4
:1011400023606560A560E56025616561A561E56175
:10115000256265620126A662E56210236363A563CA
:10116000E563204602F00AFC0423019302960395EE
:101170000DEB0301204602F0CDFC04B070BD00BFB2
:101180005C1800200024014008B50948094B0360A1
:10119000094B436000238360C3604FF480420261C7
:1011A00043618361C361036202F0C6FF08BD00BFF3
:1011B0007017002000540040A086010008B50848C0
:1011C000084B03604FF4E133436000238360C36046
:1011D00003610C2242618361C36105F065F908BDBA
:1011E000C41700200038014030B593B034220021EC
:1011F00005A80AF06DFD0024009401940294039464
:101200000494144A136823F4C05343F40063136036
:1012100003230593012506950895102309930223BE
:101220000E934FF480330F934FF4802310934FF4B9
:101230008003119305A803F0F5FD0F23009301959A
:101240000294039404942146684604F003FA13B010
:1012500030BD00BF0070004008B505F0A9FAFFF7E7
:10126000C3FFFFF7BBFEFFF747FFFFF761FFFFF785
:101270008BFF00F013F8FFF7A1FF0449044805F0C5
:1012800097FC04480AF02CFDFEE700BF8002002016
:101290005C020020C0D100087047000008B50022A1
:1012A0000F49104805F0A8FA70B90F490D4805F02C
:1012B000BAFA60B90D490B4805F0F4FB50B909487A
:1012C00005F0B8FA48B908BDFFF7E6FFEDE7FFF70C
:1012D000E3FFEFE7FFF7E0FFF1E7FFF7DDFFF2E7FE
:1012E00000000020B01800209400002050000020D2
:1012F00018B1022803D00220704700207047012057
:101300007047000002680E4B9A4200D0704700B54B
:1013100083B003F5EE335A6A42F400025A625B6A04
:1013200003F400030193019B00221146142002F0F4
:10133000D9FC142002F00AFD03B05DF804FB00BFE5
:10134000005C004010B504461D48C0F81C42C4F8BB
:1013500020021C4B03600823436002238360036167
:1013600000238361036202F0AEFF30BB182300222A
:101370001146D4F8200203F0C3FC58230022802138
:10138000D4F8200203F0BCFCC02300228121D4F851
:10139000200203F0B5FC4FF4887300220121D4F839
:1013A000200203F0ADFC4FF4807300228221D4F8B8
:1013B000200203F0A5FC002010BDFFF76DFFD5E76C
:1013C000D41A0020005C004008B5D0F8200203F0D9
:1013D00091FCFFF78DFF08BD10B51C461346224651
:1013E000D0F8200202F0C3FFFFF782FF10BD08B55E
:1013F000D0F8200203F076F9FFF77AFF08BD08B5B0
:10140000D0F8200203F06EFBFFF772FF08BD08B5AD
:10141000D0F8200203F068FAFFF76AFF08BD08B5AC
:10142000D0F8200203F055FB08BD000000487047CB
:10143000840200207047000012230B800048704790
:101440001C00002004230B8000487047300000205F
:101450000023934216D230B40BE0373401F8134026
:1014600000015C00013400250D550133DBB29342CD
:1014700006D2040F092CF0D8303401F81340EFE7FE
:1014800030BC70477047000038B50A4B1868043309
:101490001C6804331B68C01800D138BD064D0822F3
:1014A000A91CFFF7D5FF042205F112012046FFF722
:1014B000CFFFF2E7D000F81F3400002008B51A2350
:1014C0000B80FFF7E1FF014808BD00BF340000209A
:1014D00008B50A4628B10549054805F0BAF9034898
:1014E00008BD0249024805F0B4F9F8E7F41C0020F1
:1014F0000CD2000810B5044C0A462146034805F0FA
:10150000A8F9204610BD00BFF41C0020F8D1000847
:1015100008B50A4628B10549054805F09AF9034877
:1015200008BD0249024805F094F9F8E7F41C0020D0
:10153000DCD1000808B50A4628B10549054805F080
:1015400088F9034808BD0249024805F082F9F8E726
:10155000F41C0020E8D100080020704700207047EC
:1015600010B5054C0146204605F0ABFA204605F0C3
:10157000AEFA002010BD00BFB018002010B5064C18
:1015800000220649204605F094FA0549204605F058
:1015900098FA002010BD00BFB0180020DC22002007
:1015A000F41E0020704700BFFDE7FEE7FEE7FEE700
:1015B00070477047704708B505F010F908BD08B5C9
:1015C00002F04CF908BD08B502F040F908BD08B5B5
:1015D00000F0A0FA08BD08B5012002F09DFD08BD8D
:1015E00008B5022002F098FD08BD08B5042002F0FD
:1015F00093FD08BD08B5082002F08EFD08BD08B5B2
:10160000102002F089FD08BD08B5202002F084FDFD
:10161000402002F081FD802002F07EFD4FF48070BA
:1016200002F07AFD4FF4007002F076FD08BD08B5B7
:101630004FF4806002F070FD4FF4006002F06CFD2A
:101640004FF4805002F068FD4FF4005002F064FD4A
:101650004FF4804002F060FD4FF4004002F05CFD6A
:1016600008BD0020704700B583B00190019800F0DC
:1016700073FA03B05DF804FB00B583B00A4B5A6AF5
:1016800042F080525A625B6A03F080530193019BDF
:1016900003F054FB03F06DFB03F05DFB00F0B6FAC2
:1016A00003B05DF804FB00BF0038024008B50AF043
:1016B00099F908BD08B500F0BBF808BD102820D086
:1016C0000CD802281FD005D9042818D008280CD11E
:1016D00009207047012808D10620704780280CD0C7
:1016E00005D8202809D0402807D028207047B0F519
:1016F000807F02D0B0F5007FF7D117207047082017
:1017000070470A20704707207047034610F47F4F48
:1017100019D1002023F4706222F00F0292B20AB1B4
:1017200040F0040023F44C5222F0330292B20AB18A
:1017300040F0020023F4AA4323F055039BB20BB1FF
:1017400040F0010070470820E4E7000010B586B0C3
:10175000254B984226D011D9244B98422DD003F521
:101760008063984234D1224BDC6944F00804DC6188
:10177000DB6903F008030493049B0DE0A3F5806389
:10178000984225D11A4BDC6944F00104DC61DB6925
:1017900003F001030193019B1160114602F0DEFB8F
:1017A00006B010BD124BDC6944F00204DC61DB6959
:1017B00003F002030293029BEEE70D4BDC6944F059
:1017C0000404DC61DB6903F004030393039BE3E798
:1017D000074BDC6944F02004DC61DB6903F0200383
:1017E0000593059BD8E700BF0004024000080240B3
:1017F0000038024070B50C4616461D460846FFF7F5
:1018000084FF25B9094B002243F8202070BD074B07
:1018100043F820502046FFF751FF0446002231468E
:1018200002F060FA204602F091FAEFE7A4040020EB
:1018300008B5FFF76AFF034B53F820300BB10020C7
:10184000984708BDA404002008B5D2B202F05EFC9F
:1018500008BD0000F8B507460C460022244804F0F5
:10186000E0F86668224D00223946284604F0B8F8B0
:1018700000222146284604F0D4F86368B342F0D130
:10188000F97840F2B55202FB01F20332960811F0EA
:10189000030F2BD017497D78013DC5EB051205EBF1
:1018A0008202013202EBD2706A0021FA02F202F0E7
:1018B0000302C2EB60023244B9780A44013AA578C7
:1018C00020786178C1EB011189004FF4616404FB59
:1018D00000112944084800FB0212950D9402C3F53B
:1018E0007F730333E01845F10001F8BD0349D2E7E7
:1018F00010050020A0AA9900805101005055440015
:101900000320704708B501467D220023C001490E1F
:10191000FFF7E2F908BD810AC0F309034FF47A70BA
:1019200000FB03F39B0A00FB0130704700B587B052
:1019300001A96846FFF78EFF024B1B68C01A07B06B
:101940005DF804FB3005002000B587B001A96846AA
:10195000FFF780FF07B05DF804FB000010B5084CEE
:101960004FF48071204603F0CBFF2268D368DBB2CE
:1019700063F4C073D360034B4FF400325A6110BD5F
:101980001005002000040140F0B587B00446494F1F
:1019900001AD3E1D0FCE0FC5BB690093FFF7DEFF03
:1019A000BDF80860C6F57F760336B6B2C4F3090306
:1019B0001E44B6B2A00A9DF8025005E0A0F5A8307A
:1019C000A0F5C070691C8DB23B4B9842F6D89DF8CB
:1019D000043003E0A0F5616001339BB2B0F5616FA4
:1019E000F8D29DF8052002E03C38013292B23B2843
:1019F000FAD89DF8061080B2084480B204E0A6F53B
:101A00008064A6B2013080B2B6F5806FF7D203E0F1
:101A10003C3880B2013292B23B28F9D803E03C3A1C
:101A200092B201339BB23B2AF9D803E0183B9BB238
:101A3000691C8DB2172BF9D89DF8031011F0030F14
:101A40000DD19DF8011001391C4C615C8CB2AC4287
:101A500012D295FBF1F401FB14518DB20CE09DF80C
:101A600001100139164C615C8CB2AC4204D295FB7A
:101A7000F1F401FB14518DB2C6F57F76033611499E
:101A80004E604FF020648C6188704A700B7081F852
:101A900020509DF80730CB700022CA614A614FF494
:101AA00080734B62CA600A61074803F0E5FF07B024
:101AB000F0BD00BF300500207F51010030D200088A
:101AC00024D20008E80400201005002038B505469F
:101AD0000F4BB3F900400334FFF728FF281A844264
:101AE0000BD20021042009F0B7FD09F0CBFD01283D
:101AF00008D02846FFF748FF38BD0121042009F02F
:101B0000ABFDF2E7024BB3F90030ED1AF1E700BF8D
:101B1000E404002008B50021042009F09DFD0C4BD1
:101B20004FF400325A610B4B1B689A6812F4805FC5
:101B300003D0DA6812F4807F00D108BDDA68D2B22F
:101B400062F4C072DA600348FFF7B0FDF5E700BF4A
:101B5000000401401005002038B5FFF7D3FE05460C
:101B6000FFF7F2FE044600E000BFFFF7EDFE001BAA
:101B7000A842F9D338BD000010B5044C211D04F172
:101B80001800FFF767FE206010BD00BF3005002081
:101B9000014B1868704700BF3005002030B587B092
:101BA000054601A96846FFF755FE840AC0F30900FF
:101BB000FFF7B1FE2880204607B030BD70B506465D
:101BC0000D46064C0021204604F02CF8306001211F
:101BD000204604F027F8286070BD00BF10050020E3
:101BE00000B587B0ADF80E004FF0FF33009301232E
:101BF0000DF116020DF10E01034804F088F8BDF84E
:101C0000160007B05DF804FB4C05002030B58FB01E
:101C100000230B930C930D934A4CE36943F00103AB
:101C2000E361E36903F001030193019BE36943F07E
:101C30000203E361E36903F002030293029BE36999
:101C400043F00403E361E36903F004030393039B9C
:101C5000E36943F00803E361E36903F008030493D5
:101C6000049BE36943F01003E361E36903F01003AD
:101C70000593059BE36943F04003E361E36903F0E7
:101C800040030693069BE36943F08003E361E36945
:101C900003F080030793079BE36943F02003E361AC
:101CA000E36903F020030893089B03230A930EAD16
:101CB00049F6FF7345F8143D2946234802F04EF9D2
:101CC0004FF6FF7309932946204802F047F9294649
:101CD0001F4802F043F929461E4802F03FF9294601
:101CE0001D4802F03BF929461C4802F037F9294605
:101CF0001B4802F033F929461A4802F02FF9E3692C
:101D000023F00103E361E36923F00203E361E36984
:101D100023F00403E361E36923F00803E361E3696B
:101D200023F01003E361E36923F04003E361E36917
:101D300023F08003E361E36923F02003E3610FB044
:101D400030BD00BF003802400000024000040240E5
:101D500000080240000C024000100240001802403F
:101D6000001C024000140240002308E0FEE7114B73
:101D700003EBC103187910BC70470133DBB2142B9D
:101D800017D819460B4A52F833208242F5D810B4BE
:101D90005A1C084C54F832208242E8D80133DBB296
:101DA000142BE3D81946034A52F833208242F5D85F
:101DB000EEE7FEE73CD20008054B5B793BB9044BEC
:101DC00093F830301BB9024B012283F83020704762
:101DD000F4260020014B1860704700BFA4050020C6
:101DE000014B1879704700BFF426002070B586B00B
:101DF000002501950395059501240294032304937E
:101E00000C4E01AA21463046FFF7A0FC2A46214687
:101E10003046FFF719FD2046FFF725FC029501AA81
:101E200021463046FFF792FC0620FFF71CFC06B067
:101E300070BD00BF0000024070B504460E46154656
:101E4000002240210A48FFF7FFFC44F08000FFF722
:101E5000C7FE002404E0305DFFF7C2FE0134E4B2A7
:101E6000AC42F8D3012240210148FFF7EDFC70BDE0
:101E70000004024000B583B002AB03F8011D01224B
:101E80001946FFF7D9FF03B05DF804FB10B5114BFD
:101E90009860114AA2FB00131B0B43F6095404FB84
:101EA000130041F6846404EB0024A2FB0424240BF9
:101EB00004EB0324C4F307410620FFF7DBFFC4F360
:101EC00007210720FFF7D6FFE1B20820FFF7D2FF76
:101ED00010BD00BFF426002083DE1B4370B504460E
:101EE0000E461546002240210B48FFF7ADFC04F0DA
:101EF0007F00FFF775FE002405E00020FFF770FE6D
:101F000030550134E4B2AC42F7D3012240210248FB
:101F1000FFF79AFC70BD00BF0004024000B583B01B
:101F200001220DF10701FFF7D9FF9DF8070003B06B
:101F30005DF804FB38B50920FFF7F0FF05460620E1
:101F4000FFF7ECFF04040720FFF7E8FF44EA002452
:101F50000820FFF7E3FF2043040A43F60952C3B207
:101F600002FB03F380331B0A02FB04340021092027
:101F7000FFF780FF3B20FFF7D1FF40F04001C9B2DF
:101F80003B20FFF777FF3B20FFF7C8FF10F0200F43
:101F9000F9D10D48FFF77AFF3B20FFF7BFFF40F074
:101FA0004001C9B23B20FFF765FF3B20FFF7B6FFBA
:101FB00010F0200FF9D129460920FFF75BFF2046DA
:101FC000FFF764FF38BD00BF00A1BC330000000074
:101FD0002DE9F047894618B1012857D0002049E083
:101FE000814C258C2720FFF799FF20F0F800013065
:101FF0002844FEF717FA94F82230002B3CD0002238
:102000000023FEF7C3F804460D463020FFF786FF95
:1020100030F0F90333D00022744B20462946FEF7F6
:10202000B5F804460D464846FEF7FCF922462B4615
:10203000FEF7ACF86C4B93F824301BBB0022002356
:10204000FEF7A4F800226A4BFEF756FA04460D4646
:10205000654BD869FEF7D6F902460B46204629465D
:10206000FEF774FB0022634BFEF746FA0BF010F804
:10207000FEF704FDBDE8F08700225C4BC1E70022BB
:102080000023CAE700224FF08043D9E7564B5B6C30
:10209000082B00F08680092B00F08780072B00F0CA
:1020A000888000240025DFF84081D8F848A001206E
:1020B00000FA0AF0FEF7B6F902460B46204629461A
:1020C000FEF744FB02460B4600204849FEF73EFB64
:1020D00004460D46B8F84E00FEF7A4F90022464B20
:1020E000FEF754F822462B46FEF706FA06460F4640
:1020F0004FEA8A00C0EBC90098F8523000EB031099
:1021000098F85030002B58D01423C01A1C30FEF71A
:1021100079F980468946344B93F84C30002B4ED0E9
:102120000220AAEB00008000FEF76CF902460B4685
:1021300040464946FEF70AFB0AF09EFE8046894665
:10214000294B93F84D000430FEF76CF902460B461C
:1021500040464946FEF7D0F98046894600220023D2
:10216000FEF75AFC68B30022214B40464946FEF771
:102170000DF822462B46FEF7BFF902460B463046C5
:102180003946FEF703F800221A4BFEF7B5F90EA305
:10219000D3E90023FDF7FAFF0AF0F6FEFEF76EFC26
:1021A00068E70BA5D5E900457DE70BA5D5E9004516
:1021B00079E70BA5D5E9004575E70023A5E70020E1
:1021C000AFE700200A49D4E72B8716D9CEF7EF3FB7
:1021D0000000000080840E410000000080841E4149
:1021E000000000008084FE40F42600200000F03F44
:1021F0000000204000408F400000114008B520B191
:1022000001280AD04FF0FF3006E01120FFF786FECC
:10221000C0F34700404200B208BD094B9A68094B21
:102220009A4206D81B20FFF779FE80B2A43800B28C
:10223000F2E71B20FFF772FE80B29D3800B2EBE799
:10224000F426002040DD4A1F38B50546C0B1174CC2
:1022500023681B680120984723681B690020984762
:1022600023685B69284698470120FFF757FE41B273
:1022700021F007012943C9B20120FFF7FBFD38BD5A
:102280000120FFF74BFE41B221F007012943C9B2FB
:102290000120FFF7EFFD054C23681B6901209847DB
:1022A00023681B6800209847E9E700BFA4050020C9
:1022B00008B5064809F0D6FB054809F0D3FB002015
:1022C000FFF7C2FF034B00221A7108BD5C270020F4
:1022D000C4260020F426002008B5064809F0C2FBF9
:1022E000054809F0BFFB0120FFF7AEFF034B0022BA
:1022F0001A7108BD5C270020C4260020F4260020A7
:1023000070B50546944B5B791BB1012B41D000267B
:1023100027E0914C94F826604020FFF7FFFD00F085
:10232000030141F00C014020FFF7A4FD4120FFF71D
:10233000F5FD60F03E01C9B24120FFF79BFD35205D
:10234000FFF7ECFD00F03F0084F83E001E210D2059
:10235000FFF790FD002384F8303084F83130A387F4
:1023600063874FF4807200217C4809F0B1FC7A4BFE
:1023700001221A71002D40F0D280774B5B79002B3F
:1023800000F0D680002E40F0E3800620FFF75CFFCF
:1023900070BD714B93F855303BB33320FFF7BEFD52
:1023A00040F04101C9B23320FFF764FD19213B2001
:1023B000FFF760FD684B5B6C082B7FD83120FFF77F
:1023C000ADFD00F07F013120FFF754FD00213020EA
:1023D000FFF750FD604B5B6C082B78D8DFE803F00B
:1023E00017232F3B47535F6469003320FFF796FDA7
:1023F00041B221F0410141F0010101F0BF01332060
:10240000FFF738FD1D213B20FFF734FDD2E74821BF
:102410002F20FFF72FFD504B986800F5F450023045
:10242000FFF734FD53E044212F20FFF723FD4A4BF3
:10243000986800F522503430FFF728FD47E044212A
:102440002F20FFF717FD444B986800F574500430B7
:10245000FFF71CFD3BE044212F20FFF70BFD3E4B17
:10246000986800F5A2405E30FFF710FD2FE0442190
:102470002F20FFF7FFFC384B986800F5F44012302E
:10248000FFF704FD23E044212F20FFF7F3FC324B3C
:10249000986800F52240C630FFF7F8FC17E04021AD
:1024A0002F20FFF7E7FC12E040212F20FFF7E2FC8E
:1024B0000DE040212F20FFF7DDFC08E03120FFF781
:1024C0002DFD60F07F01C9B23120FFF7D3FC224B14
:1024D00093F8566093F85330A3B11D211120FFF7F4
:1024E000C9FC4020FFF71AFD00F033014020FFF740
:1024F000C1FC00210F20FFF7BDFC00210D20FFF7DC
:10250000B9FC2EE71F211120FFF7B4FC4020FFF794
:1025100005FD00F03F014020FFF7ACFCE9E7104C5F
:102520002946204609F0DAFA204609F029FA24E77C
:102530000520FFF789FE002E7FF42AAF094C064BD9
:10254000D96A204609F0CAFA204609F019FA1FE7AD
:102550000520FFF779FE1BE7F4260020AC050020DC
:102560005C270020DC26002008B50146274809F03A
:10257000B5FA274B5B795BB1012B24D0244B0222A7
:102580001A71224809F0FCF90320FFF75DFE08BD2F
:102590004020FFF7C3FC00F0030141F01001402090
:1025A000FFF768FC4120FFF7B9FC00F03E01412035
:1025B000FFF760FC3520FFF7B1FC00F03F00144B43
:1025C00083F83E00DAE7124B93F8533073B9F721E2
:1025D0001120FFF74FFC4020FFF7A0FC00F03F0167
:1025E00041F040014020FFF745FCC7E7F5211120ED
:1025F000FFF740FC4020FFF791FC00F0330141F071
:1026000040014020FFF736FCB8E700BFC426002099
:10261000F426002008B50B4B5B79012B11D1FA2170
:102620001120FFF727FC4020FFF778FC00F0FC01A9
:102630004020FFF71FFC034B03221A710720FFF70E
:1026400003FE08BDF426002010B504460120FFF764
:1026500065FC10F0800F1ED11A4B00225A71194BE5
:102660005B79A34216D0174B5C71012C17D1FFF791
:102670001FFE0120FFF752FC60F07F01C9B201206C
:10268000FFF7F8FB00214020FFF7F4FB0021412079
:10269000FFF7F0FB10BD0B4B01225A71DFE7FFF78C
:1026A00007FE0120FFF73AFC00F07F010120FFF751
:1026B000E1FB00214020FFF7DDFB30214120FFF747
:1026C000D9FBE7E7F426002038B51E4B18601E4CF6
:1026D00021461E4809F04AF921461D4809F046F9ED
:1026E00021461C4809F042F91B4C23681B68012055
:1026F0009847FFF77BFBFFF71DFC0020FFF7A4FDC9
:1027000023689B681548984700240CE0144A04EBA2
:102710004403D518D05CFFF797FFA9786878FFF7D6
:10272000A9FB0134E4B20F2CF0D90020FFF78CFF95
:102730000C4B00221A71084B1B685B6898470230EB
:1027400038BD00BFA80500207D340008C426002045
:102750005C270020DC260020A4050020600000206B
:10276000ECD20008F4260020F8B507460C461646C1
:102770001D46FFF769FF2046FFF788FB0520FFF79E
:1027800063FD0120FEF76FFF09F0BAF90446204609
:1027900009F0BCF9A84206D23846FFF72FFDB04237
:1027A000F5DD002400E00124FFF782FD2046F8BD9E
:1027B00038B50120FFF748FFFF211120FFF75AFB32
:1027C0000520FFF741FD00252C460BE00120FEF718
:1027D0004AFF2C20FFF7A2FB00F00100A0400543B8
:1027E0000134E4B21F2CF1D9FFF762FD284638BD51
:1027F0002DE9F04F85B00546029114460093BDF8CF
:102800003C80BDF8403003939DF844709DF848909B
:102810009DF84C609DF858B09DF85CA0FFF714FF40
:102820002DB1012D00F0838005B0BDE8F08FAE4DD5
:10283000029B6B61EC610E9AAA6185F8227085F8A3
:10284000239085F8246085F825B085F826A0A5F8A2
:1028500020802046FDF7D6FD82468B4602460B4679
:102860000020A249FDF772FF0022A14BFDF744FEB4
:10287000CDE900010398FDF7D5FDDDE90023FDF763
:102880003BFE00229B4BFDF737FEFEF7F7F8E862B0
:1028900052465B4692A1D1E90001FDF757FFFEF7D2
:1028A000EDF884B2210A0220FFF7E4FAE1B2032036
:1028B000FFF7E0FA0298FFF757FA01461220FFF7F8
:1028C000D9FA0E98FFF750FA01461320FFF7D2FA13
:1028D0004FEA18212520FFF7CDFA5FFA88F126206C
:1028E000FFF7C8FADFB149463220FFF7C3FA3020BC
:1028F000FFF714FB00F06F01B7B10023194341EA61
:102900000611C9B23020FFF7B5FA3120FFF706FBF8
:1029100040F04001C9B23120FFF7ACFA84E7FF2153
:102920003220FFF7A7FAE2E76FF07F03E6E7029BAA
:10293000022B00D9FEE7029D07356B4B5D649C645A
:10294000009A83F84D20A3F84E8083F8507083F8E6
:10295000519083F852609DF8502083F853209DF8E1
:10296000542083F8542083F855B083F856A00C2CDB
:1029700003D8052C02D8062400E00C24072D63D0D0
:10298000082D6AD0584B002283F84C201D20FFF7F9
:10299000C5FA2B01DAB2009B5B00DBB2134343EABA
:1029A00007011D20FFF766FA1E20FFF7B7FA00F0B7
:1029B00008002201D2B20243B300DBB21343039EEC
:1029C000C6F3012119431E20FFF754FA2620FFF712
:1029D000A5FA41B221F00801434B93F84C3041EA8B
:1029E000C301C9B22620FFF745FAF1B21F20FFF755
:1029F00041FA4FEA18212020FFF73CFA5FFA88F1EC
:102A00002120FFF737FA5FBB374B93F8533063BB96
:102A1000092D3AD0092D46D003213620FFF72AFA96
:102A2000062C49D03120FFF779FA41B221F0070195
:102A300041F0030101F0FB013120FFF71BFA0A21ED
:102A40003720FFF717FAEFE6A4F10B03012B97D815
:102A5000254B012283F84C2098E70C2C92D1F7E704
:102A600049462220FFF706FACEE74420FFF756FA40
:102A700060F07F01C9B24420FFF7FCF91A4B93F8CC
:102A800054102420FFF7F6F9C2E7174B9A681A4B47
:102A90009A42BFD902213620FFF7ECF964213A208F
:102AA000FFF7E8F9BCE702213620FFF7E3F97F21C1
:102AB0003A20FFF7DFF9B3E73120FFF72FFA41B2F1
:102AC00021F0070141F0050101F0FD013120FFF780
:102AD000D1F90C213720FFF7CDF9A5E6AFF300803F
:102AE0000000000080847E41F42600200000F03FBA
:102AF0000000204000408F4040DD4A1F00000000E1
:102B00002DE9F04F85B00290019103921C460E9D75
:102B10009DF83C80BDF840709DF844909DF8486059
:102B20009DF84CA09DF854B0FFF78EFD8A4B1B68B2
:102B3000DB6801989847029B23B1012B5ED005B05A
:102B4000BDE8F08F854B019A1A73039818615C6198
:102B5000DD611F8483F8229083F8246083F825B018
:102B6000169A9A62FDF74EFC77A3D3E90023FDF78E
:102B7000EDFDFDF783FF84B2210A0420FFF77AF907
:102B8000E1B20520FFF776F92846FDF73BFC024647
:102B90000B466FA1D1E90001FDF7D8FDFDF76EFFEF
:102BA00084B2210A0220FFF765F9E1B20320FFF7A2
:102BB00061F9390A2520FFF75DF9F9B22620FFF700
:102BC00059F93020FFF7AAF900F06F01B9F1000FB1
:102BD00011D00023194341EA0611C9B23020FFF792
:102BE00049F93120FFF79AF940F04001C9B231208C
:102BF000FFF740F9A3E76FF07F03EBE7574B019A2C
:102C000083F84020022C00D9FEE70734534B5C6464
:102C10009D6483F84D80A3F84E7083F8509083F83C
:102C200053A09DF8502083F8542083F8526083F815
:102C300055B0169A9A650C2D03D8052D02D8062595
:102C400000E00C25072C4FD0082C56D0434B002217
:102C500083F84C20BAF1000F52D11D20FFF75EF926
:102C60002101C9B24FEA4803DBB2194341EA090125
:102C70001D20FFF7FFF81E20FFF750F900F00B01B1
:102C80002B01DBB21943B300DBB219431E20FFF75F
:102C9000F1F82620FFF742F941B221F008012F4B4D
:102CA00093F84C3041EAC301C9B22620FFF7E2F89D
:102CB000390A2020FFF7DEF8F9B22120FFF7DAF811
:102CC000062D2DD03120FFF729F941B221F007015F
:102CD00041F0030101F0FB013120FFF7CBF80A219D
:102CE0003720FFF7C7F82AE7A5F10B03012BABD874
:102CF0001A4B012283F84C20ACE70C2DA6D1F7E744
:102D00004420FFF70BF960F07F01C9B24420FFF7C0
:102D1000B1F8124B93F854102420FFF7ABF89CE75E
:102D20003120FFF7FBF841B221F0070141F0050126
:102D300001F0FD013120FFF79DF80C213720FFF74E
:102D400099F8FCE6AFF300800000000080844E405C
:102D50000000000080847E41A4050020F4260020AD
:102D600030B58BB00D464FF47A7404FB02F4FFF7D4
:102D70008DF8089400200790069005900490039029
:102D80000523029301904FF49653009303460246A5
:102D90002946FFF7B5FE3120FFF7C0F800F0BF016C
:102DA0003120FFF767F8F0214020FFF763F8A021FA
:102DB0004120FFF75FF8084D2146284608F08EFEB7
:102DC000064B02221A71284608F0DAFD0320FFF7AD
:102DD0003BFA0BB030BD00BFC4260020F426002013
:102DE00038B5374B1B79012B02D0022B4CD038BDA4
:102DF000334B5B79C3B1012BF9D1314B93F853308D
:102E0000002BF4D002211220FFF734F82D4B1B6861
:102E1000002BECD05C69002CE9D01C20FFF77EF879
:102E200000F03F00A047E2E7254B012283F8302065
:102E30001B8E9342DBD1244808F014FE204D012361
:102E400085F831301120FFF769F84008404285F8D5
:102E500032001B20FFF762F804021C20FFF75EF827
:102E60002043020A43F60951C3B201FB03F3803346
:102E70001B0A01FB02336B630C20FFF74FF8C0F312
:102E8000471085F83800B2E70D4B5B79012BAED1C6
:102E90000B4B93F85330002BA9D002211220FEF7E0
:102EA000E9FF084B1B68002BA1D05C69002C9ED069
:102EB0001C20FFF733F800F03F00A04797E700BF62
:102EC000F4260020A8050020DC26002008B5114BC0
:102ED0005B79012B1CD11220FFF720F810F0010FB5
:102EE0000BD005211220FEF7C5FF0B4B1B687BB1F1
:102EF0009B696BB1012098470AE004211220FEF77C
:102F0000B9FF054B1B681BB19B690BB100209847AB
:102F100008BD00BFF4260020A805002008B50A4619
:102F200001460020FEF788FF08BD000030B583B0E1
:102F300005468DF80710404B5B791BB1012B35D04E
:102F4000002022E03C4B00229A879DF80710598709
:102F500093F82230EBB901210DF10700FFF7DEFFF6
:102F60009DF80720531EDBB23F2B16D8324B83F857
:102F70003F20314C94F83F102846FFF7CFFF94F8DC
:102F80003F30A28F1344A387A06AFFF7EDFA03B086
:102F900030BD3220FEF76EFFE2E72946274808F0F1
:102FA0002CFE254B202283F83F20E2E7224B93F8AA
:102FB00055304BB33320FEF7B1FF00F0BE01332094
:102FC000FEF758FF19213B20FEF754FF9DF807102C
:102FD000194B83F864102220FEF74CFF00210E20CD
:102FE000FEF748FF00210D20FEF744FF0120FEF709
:102FF00095FF30F0F80319D09DF807102846FFF729
:103000008DFF0D4B986DC0E73320FEF787FF41B26F
:1030100021F0410141F0010101F0BF013320FEF731
:1030200029FF1D213B20FEF725FFCFE7FFF754F9CD
:103030000120FEF718FBDFE7F4260020AC05002096
:1030400008B50A4601460020FEF748FF08BD00000B
:1030500010B582B000238DF80730A84B1B79012BE7
:1030600004D0022B00F02F8102B010BDA34B5B797E
:103070003BB3012BF8D140211220FEF7FBFE1220BA
:10308000FEF74CFF8DF807009DF8073013F0200F76
:1030900000F0B18020211220FEF7ECFE974B93F850
:1030A000563013B9954B00221A71954808F0DAFC96
:1030B000944B1B68002BD7D01B69002BD4D09847AA
:1030C000D2E78E4B93F82430DBB98C4B598F002913
:1030D00058D19B8F002B55D1884B93F82230002B71
:1030E0004AD101218848FFF7ABFF844CA38F618F41
:1030F000C91AC9B285481844FFF7A2FF638FA38796
:103100004AE03F20FEF70AFF8DF807009DF80730E0
:1031100013F0020FD9D10B213E20FEF7ABFE102198
:103120003F20FEF7A7FE764808F09CFC734B93F80F
:103130002630A3B9764808F095FC704B00221A712E
:10314000704B1B6813B11B6903B198476B4B00228E
:1031500083F8302083F831209A875A8784E70D203E
:10316000FEF7DCFE40F04001C9B20D20FEF782FE02
:10317000674808F005FCE3E73220FEF7CFFE5F4B1F
:103180005887B2E75D4CA38FC91AC9B25F4818448B
:10319000FFF756FF638FA387594808F063FC574B2E
:1031A00093F82630D3B9554B00221A71584808F0CD
:1031B00059FC544B1B6843B19C6834B14F49002300
:1031C00091F93220498F5148A0474C4B002283F897
:1031D000302083F831209A875A8745E70D20FEF783
:1031E0009DFE40F04001C9B20D20FEF743FE484865
:1031F00008F0C6FBDDE71920FEF790FE43B202336C
:103200009B103E4C84F860301A20FEF787FE03B214
:1032100094F96020002A37DB384A91683D4A914290
:103220004AD900EB23109D38344BA3F862001320D9
:10323000FEF774FE314C84F864001020FEF76EFE39
:1032400001460D20FEF716FE94F864102F48FFF794
:10325000F7FE94F856300BB900222271284808F086
:1032600001FC284B1B68002B3FF4FEAE9C68002C31
:103270003FF4FAAE214991F96030B1F9622091F83A
:1032800064102248A047EFE6A46822498C4209D97D
:1032900000EB23139BB292B213449D3B174AA2F852
:1032A0006230C4E700EB23139BB292B21344A43BF9
:1032B000124AA2F86230BAE700EB2310A4380F4B91
:1032C000A3F86200B3E7144808F0CCFB0B4B5B7922
:1032D000012B0DD0094B00221A710A4B1B68002BE1
:1032E0003FF4C2AE1B68002B3FF4BEAE9847BBE66E
:1032F00008211220FEF7BEFDECE700BFF4260020F7
:103300005C270020A80500202E270020AC05002007
:10331000DC26002040DD4A1FC426002010B53A4BB1
:103320001B79012B02D0022B4CD010BD364B5B79A0
:10333000A3B1012BF9D1354808F094FB802112206C
:10334000FEF798FD304B00221A71314B1B68002BA1
:10335000EBD0DB68002BE8D09847E6E72A4B5B8F81
:1033600053B9294B9B8F3BB9274B93F82230CBB9EC
:1033700001212848FFF764FE234B598F9A8F881A42
:1033800093F83E30984213DB591EC9B222481044CC
:10339000FFF756FE1C4A92F83E30918F0B44013BDA
:1033A0009387C2E73220FEF7B9FD174B5887E3E752
:1033B000891AC9B218481044FFF742FE124B5A8FBF
:1033C0009A87B2E7104B5B79002BAED10E4B5A8F28
:1033D000988F141A93F83F108C4209DC111AC9B265
:1033E0000D4B1844FFF79AFD074B5A8F9A879CE7BD
:1033F000094B1844FFF792FD034B93F83F20998F38
:103400000A449A8791E700BFF42600205C27002039
:10341000A80500202E270020AC05002038B5044662
:103420000D46FFF711F914B1012C0AD038BD074B36
:1034300093F82230002BF9D129463220FEF71AFDED
:10344000F4E729462320FEF715FDEFE7F4260020D8
:1034500010B504460120FFF7F7F8074B83F85C40EE
:1034600024B912213920FEF705FD10BD3421392081
:10347000FEF700FDF9E700BFF426002038B5324B17
:103480001B79012B02D0022B32D038BD2E4B5B7939
:1034900043B12E4B1B68002BF7D0DB68002BF4D018
:1034A0009847F2E7284C84F8303084F83130A3870D
:1034B00063870B213E20FEF7DDFC10213F20FEF745
:1034C000D9FC94F8263063B10D20FEF727FD40F0BB
:1034D0004001C9B20D20FEF7CDFC1D4808F050FA9E
:1034E000D7E7194B00221A71194808F0BBFAD0E748
:1034F000FEF77CFCFEF71EFD0020FEF7A5FE002473
:103500000CE0144A04EB4403D518D05CFFF79CF898
:10351000A9786878FEF7AEFC0134E4B20F2CF0D93C
:103520000020FFF791F8084C94F85C00FFF790FF3B
:1035300000232371054B1B68002BA6D05B68002B72
:10354000A3D09847A1E700BFF4260020A8050020DB
:10355000DC260020ECD2000808B5034B1B685B6832
:103560009847023008BD00BFA40500200020704726
:10357000704701207047000010B586B0002301930A
:1035800002930393049305931048FEF723FC104B1A
:103590000293022303930323049301AA4FF480614F
:1035A0000C48FEF7D3F80C4C01AA08212046FEF780
:1035B000CDF801AA20212046FEF7C8F801AA102163
:1035C0002046FEF7C3F806B010BD00BF780000200B
:1035D00000001110000002400004024010B586B047
:1035E00000230193049305930D4B0293022303934D
:1035F00001AA4FF480610B48FEF7A8F80A4C01AA13
:1036000008212046FEF7A2F801AA20212046FEF755
:103610009DF801AA10212046FEF798F806B010BDCB
:1036200000001110000002400004024038B50446BA
:10363000036800224FF480610B48FEF7DBF80B4D66
:103640006368002208212846FEF7D4F8A368002208
:1036500020212846FEF7CEF8E368002210212846F4
:10366000FEF7C8F838BD00BF000002400004024069
:1036700030B587B00024019403940594012302938C
:1036800003230493064D01AA02212846FEF75EF8A3
:10369000224602212846FEF7D7F807B030BD00BF0A
:1036A0000008024030B587B00024019403940594CB
:1036B0000123029303230493064D01AA0221284605
:1036C000FEF744F8224602212846FEF7BDF807B06F
:1036D00030BD00BF0008024008B5064B1B7883428E
:1036E00004D0044B187010B1FFF7DCFF08BDFFF7E2
:1036F000BFFFFBE7AC06002008B5032805D0002279
:1037000002210548FEF7A0F808BD01220221024867
:10371000FEF79AF8F8E700BF000802400020704763
:1037200070B506460920FEF7F9FB04464D20FEF76A
:10373000F5FB054604F07F04284B9868FFF7EEFF81
:1037400043B22343DBB243F070035BB2002B06DBD2
:10375000B6F1FF3F31DB0E2E31DD0E262FE0112EAC
:1037600013DD45F00705EDB205F00702072A13D077
:10377000012E20DD112E00DD112623F00F01023E67
:1037800006F00F031943C9B220E025F007056DB21A
:1037900045F00405EDB2E7E7042E03DD142E02DD4B
:1037A000142600E0052623F00F01053E06F00F0366
:1037B0001943C9B20AE00226DFE74FF0FF3623F0D3
:1037C0000F01013606F00F031943C9B20920FEF7B5
:1037D00051FB29464D20FEF74DFB70BDF42600201D
:1037E0000E4B1A6842F480721A6099680C4A0A40BB
:1037F0009A601A6822F0885222F001121A601A6840
:1038000022F480221A609A6822F47D029A600022D3
:10381000DA60044B4FF000629A6070470038024053
:103820000CC0FF8800ED00E008B50A4601460248DA
:1038300002F068FE08BD00BFB406002008B5024BC8
:103840001B68984708BD00BFB006002008B5024BB2
:10385000186B00F028FB08BDB406002008B502482C
:1038600002F040FF08BD00BFB406002030B589B0AB
:1038700000230593144BDA6942F00102DA61DA6938
:1038800002F001020192019ADA6942F00102DA6162
:10389000DB6903F001030293029B042303930223D9
:1038A00004930323069307250795084C03A9204694
:1038B00000F054FB08230393079503A9204600F06A
:1038C0004DFB09B030BD00BF00380240000002408F
:1038D00070B584B00646254BDA6942F00102DA6120
:1038E000DA6902F001020092009ADA6942F00102FC
:1038F000DA61DA6902F001020192019A5A6A42F42D
:1039000000325A625A6A02F400320292029ADA696A
:1039100042F08072DA61DB6903F080730393039BEA
:10392000FFF7A4FF124C134B2360102363600025A4
:10393000A5608023E36025616561A561E56120469E
:1039400000F026FA3463666201222946112000F055
:10395000C9F9112000F0FAF901222946262000F0C9
:10396000C1F9262000F0F2F904B070BD0038024021
:10397000F40600208060024070470000002800F03C
:10398000BA8070B582B00446C36C002B5CD0E36C87
:1039900013F0100F40F0B180E36C23F4885323F050
:1039A000020343F00203E364554A536823F44033AF
:1039B00061680B435360E36862691343E16B4FF442
:1039C000007292FAA2F2B2FA82F201FA02F2134300
:1039D000226A1A43606A022393FAA3F3B3FA83F3C9
:1039E00000FA03F31343626B102A02D0A16B0A435F
:1039F000134325682A6812F0400213D1A1690B43D2
:103A0000A168E66931432669B6F5807F2FD0012E83
:103A10002AD00A43E16A01292CD06868394901405B
:103A20000A436A6021688868374A02401A438A60FC
:103A30002269B2F5807F34D0012A32D021680A6B26
:103A400022F0F8720A633BE0036580F848302F4BA0
:103A50001A6A42F001021A621B6A03F00103019321
:103A6000019BFFF789FF92E74FF48072D1E74FF493
:103A70008072CEE760B9216B01394FF4604090FA53
:103A8000A0F0B0FA80F0814041F400610A43C4E73D
:103A9000E16C41F02001E164216D41F001012165FB
:103AA000BBE725682A6B22F0F872A16A01394FF052
:103AB000F87090FAA0F0B0FA80F081400A432A63CF
:103AC00022689168124A0A409A420BD0E36C23F0B4
:103AD000120343F01003E364236D43F001032365F5
:103AE00001200BE000202065E36C23F0030343F08A
:103AF0000103E36402E001207047012002B070BDC1
:103B000000270140FF16FCFC89F1FFC0003802408D
:103B1000FEFF80BF30B482B00023019390F848309C
:103B2000012B00F0C780012380F848304B68062B3A
:103B300028D805682A6C03EB8303053B1F249C40AF
:103B400022EA04020C6804FA03F313432B640B68A3
:103B5000092B59D805686A6903EB430307249C4085
:103B600022EA04028C6804FA03F313436B610B68C6
:103B7000103B012B79D9002380F84830184602B059
:103B800030BC70470C2B0ED80568EA6B03EB83033F
:103B9000233B1F249C4022EA04020C6804FA03F32E
:103BA0001343EB63D3E7122B0ED80568AA6B03EB24
:103BB0008303413B1F249C4022EA04020C6804FA60
:103BC00003F31343AB63C2E7182B0ED805686A6B87
:103BD00003EB83035F3B1F249C4022EA04020C6832
:103BE00004FA03F313436B63B1E705682A6B03EB35
:103BF00083037D3B1F249C4022EA04020C6804FAE4
:103C000003F313432B63A2E7132B0ED805682A692D
:103C100003EB43031E3B07249C4022EA04028C680A
:103C200004FA03F313432B61A1E71D2B0ED805689B
:103C3000EA6803EB43033C3B07249C4022EA04026E
:103C40008C6804FA03F31343EB6090E70568EA6DB0
:103C500003EB43035A3B07249C4022EA04028C688E
:103C600004FA03F31343EB6581E7134B5B6813F42A
:103C7000000F80D1104A536843F4000353600B686F
:103C8000102B7FF478AF0D4B1B6802F1467202F5E2
:103C90002D3202F28332A2FB03239B0C03EB83033E
:103CA0005A00019202E0019B013B0193019B002B12
:103CB000F9D160E7022062E7002701409000002070
:103CC000074AD36823F4E0631B041B0C000200F4D2
:103CD000E060184340F0BF6040F40030D0607047AF
:103CE00000ED00E030B4174BDB68C3F30223C3F1EF
:103CF0000704042C28BF04241D1D062D18D9033BDE
:103D00004FF0FF3505FA04F421EA0401994005FA61
:103D100003F322EA0303194300280BDB0901C9B2AC
:103D200000F1604000F5614080F8001330BC70473E
:103D30000023E5E700F00F000901C9B2024B195456
:103D4000F4E700BF00ED00E014ED00E000F01F021A
:103D5000400901239340024A42F82030704700BFD7
:103D600000E100E070B4066CC56B0124B4406C60E7
:103D7000046863604368102B05D00368996003688A
:103D8000DA6070BC704703689A600368D960F8E72E
:103D900000283FD010B4034601681F4A91422ED834
:103DA0001E4A0A441E49A1FB021212099200026433
:103DB0001C4AC263022283F821201868016821F49A
:103DC0007F5121F030015A689C682243DC6822430D
:103DD0001C6922435C6922439C692243DC692243BB
:103DE0000A43026000209862D8621863586398639F
:103DF000012283F8212083F8200010BC70470A4A72
:103E00000A440749A1FB0212120992000264074A00
:103E1000C263CFE70120704707640240F89FFDBFEF
:103E2000CDCCCCCC00600240F89BFDBF00640240CA
:103E300038B590F82040012C33D0012480F8204080
:103E400090F82140E4B2012C04D0002380F8203007
:103E5000022038BD0446022084F821000020A0631F
:103E60002568286820F0010028602046FFF77AFFC7
:103E7000E36A5BB12268136843F00E0313602268A3
:103E8000136843F0010313600020E2E7226813681F
:103E900023F0040313602268136843F00A031360DD
:103EA000EDE70220D5E738B5C36B1A6804682568CA
:103EB000016C04238B40134213D015F0040F10D073
:103EC000236813F0200F03D1236823F00403236039
:103ED000016CC26B04238B405360C36A03B19847E3
:103EE00038BD02238B4013421AD015F0020F17D0B1
:103EF000236813F0200F06D1236823F00A03236000
:103F0000012380F82130016CC26B02238B40536087
:103F1000002380F82030836A002BE1D09847DFE748
:103F2000082303FA01F11142DAD015F0080FD7D0B7
:103F3000236823F00E032360026CC16B012303FA94
:103F400002F24A60836380F82130002380F8203039
:103F5000036B002BC4D09847C2E70000F0B482B0D6
:103F6000002336E0062400E00024B4403C43023540
:103F7000624E46F82540624C2568D44304EA0506A3
:103F80004F6817F4803F01D042EA05065C4D2E6071
:103F90006D6804EA05064F6817F4003F01D042EA55
:103FA0000506574D6E60AD6804EA05064F6817F4C4
:103FB000801F01D042EA0506514DAE60ED682C40ED
:103FC0004E6816F4001F01D042EA05044C4AD46042
:103FD00001330A6832FA03F400F08C8001249C401B
:103FE0002240F5D04D68022D01D0122D10D1DE08EF
:103FF000083650F826C003F00705AF000F25BD4076
:104000002CEA050C0D69BD4045EA0C0540F8265028
:1040100006685F000325BD40ED4305EA060C4E68C7
:1040200006F00306BE4046EA0C0606604E6806F13E
:10403000FF3CBCF1010F03D9112E01D0122E10D17B
:10404000866805EA060CCE68BE4046EA0C06866025
:10405000466826EA04044E68C6F300169E402643CE
:104060004660C46825408C68BC402C43C4604C68E2
:1040700014F0805FACD0234C256A45F00105256221
:10408000246A04F001040194019C9D08AE1C1B4CA1
:1040900054F8267003F00304A6000F24B44027EA66
:1040A0000407194CA0423FF45FAF04F58064A042BE
:1040B00016D004F58064A04214D004F58064A042B8
:1040C00012D004F58064A04210D004F58064A042B0
:1040D0000ED004F58064A0423FF444AF072444E7C7
:1040E000012442E7022440E703243EE704243CE79E
:1040F00005243AE702B0F0BC704700BF0000014061
:1041000000040140003802400000024012B90904D6
:10411000816170478161704708B5054B5B69034257
:1041200000D108BD024B5861FDF7C4FAF9E700BFA2
:104130000004014070470000002800F0A28070B524
:10414000044690F83D30002B61D001F0ADFB4F4BA1
:10415000984240F29880242384F83D302268136806
:1041600023F0010313604A4BA3FB00239B0C21683F
:104170004A6822F03F021A434A6025682A6A22F000
:104180003F02666843498E4246D8013313432B628F
:104190002568EB6923F44F4323F0FF0362683D4930
:1041A0008A4243D85200B0FBF2F0C0F30B02032A5C
:1041B00000D804201843E86121680B6823F0C0038D
:1041C000E269206A024313430B6021688B6823F481
:1041D000034323F0FF032269E068024313438B602B
:1041E0002168CB6823F0FF036269A069024313438F
:1041F000CB602268136843F0010313600020206441
:10420000202384F83D30206384F83E0070BD80F8A0
:104210003C30FFF78FFF98E74FF4967101FB03F3F3
:104220001D49A1FB03139B090133AFE7A6688EB9B3
:1042300002EB4201B0FBF1F1C1F30B01B1FA81F1E4
:104240004909E1B996B902EB4202B0FBF2F040F441
:104250000040AFE702EB820101EB8101B0FBF1F11D
:10426000C1F30B01B1FA81F14909EAE702EB8202DD
:1042700002EB8202B0FBF2F040F440409AE70120EA
:1042800098E7012070470120C0E700BF7F841E002F
:1042900083DE1B43A0860100D34D621001335B080F
:1042A00000EB420202F5806263B110B40C784878EA
:1042B00044EA002422F8044B0231013B002BF5D1E3
:1042C00010BC7047704700284FD010B5044690F8D6
:1042D000E93123B1032384F8E931002214E080F8A6
:1042E000E831FDF70FF8F5E7D100891A8B00234478
:1042F000012183F8291083F82820002183F82B104E
:1043000059639963D963013260689042ECD8002206
:1043100011E0D100891A8B002344002183F8091190
:1043200083F8082183F80B11C3F81411C3F818118E
:10433000C3F81C1101329042EBD822680123A2F885
:10434000403022680020A2F840002268A2F8440011
:104350002268A2F8500022684FF43F41A2F84010B2
:1043600084F8240084F8E93110BD0120704770B44E
:104370004DB2002D1DDB01F07F06C6EBC606B40072
:1043800004F58474044401F07F012170ED0F657021
:10439000E260E37090F8E831012B00F0A181012385
:1043A00080F8E831E378032B17D8DFE803F00A78C8
:1043B000606B01F07F06C6EBC606B40028340444E7
:1043C000E1E70268217832F8213023F4EC4323F04E
:1043D000700343F4007322F821300168227831F829
:1043E000223023F0F0031B051B0D134343F400435D
:1043F00043F0800321F82230A37A002B40F0B080F4
:104400006378002B58D0A3880268B2F85010257842
:1044100001EBC50102EB41025B085B00A2F800342E
:104420000268217832F8213013F0400F09D023F0D0
:10443000F0031B051B0D43F4004343F0C00322F8B7
:1044400021300268217832F8213023F4E04323F050
:10445000400383F0200343F4004343F0800322F839
:104460002130002380F8E831184670BC704702689C
:10447000217832F8213023F4EC4323F0700322F842
:104480002130AAE70268217832F8213023F4EC4386
:1044900023F0700343F4C06322F821309DE70268E3
:1044A000217832F8213023F4EC4323F0700343F4F5
:1044B000806322F8213090E7A3880168B1F850208A
:1044C000257802EBC502043201EB42025B085B0077
:1044D000A2F800340268B2F85030217803EBC1032F
:1044E000063302EB4303E2683E2A2ED9C2F34F1192
:1044F00012F01F0F01D1013989B26FEAC1616FEA71
:104500005141A3F800140268217832F8213013F4E5
:10451000804F09D023F0F0031B051B0D43F44043EB
:1045200043F0800322F821300268217832F82130EC
:1045300023F4804323F0700383F4405343F4004397
:1045400043F0800322F821308BE7C2F34F0112F0D1
:10455000010F01D0013189B28902A3F80014D2E71A
:104560000268217832F8213023F4F8731B051B0D03
:1045700043F4014343F0800322F82130E3880268CA
:10458000B2F85010257801EBC50102EB41025B083F
:104590005B00A2F8003423890168B1F85020257827
:1045A00002EBC502043201EB42025B085B00A2F899
:1045B00000346378002B4AD10268217832F8213028
:1045C00013F4804F09D023F0F0031B051B0D43F4B7
:1045D000404343F0800322F821300268217832F80A
:1045E000213013F0400F09D023F0F0031B051B0D01
:1045F00043F4004343F0C00322F8213002682178DD
:1046000032F8213023F0F0031B051B0D43F4004367
:1046100043F0C00322F821300268217832F82130BB
:1046200023F4804323F0700383F4405348F2800561
:104630002B4322F821300268217832F8213023F40C
:10464000E04323F040032B4322F8213009E70268BE
:10465000217832F8213013F4804F09D023F0F00391
:104660001B051B0D43F4404343F0800322F8213027
:104670000268217832F8213013F0400F09D023F07E
:10468000F0031B051B0D43F4004343F0C00322F865
:1046900021300268217832F8213023F0F0031B0525
:1046A0001B0D43F4404343F0800322F8213003689C
:1046B000217833F8212022F4E04222F0400248F22F
:1046C00080052A4323F821200268217832F821301E
:1046D00023F4804323F070032B4322F82130C0E6FB
:1046E0000220C2E630B44AB2002A3EDB01F07F0469
:1046F000C4EBC404A30003F58473034401F07F01F9
:104700001970D20F5A7090F8E821012A00F0EA805F
:10471000012280F8E8219A7A002A4ED15A7862B3B1
:1047200001681C7831F8242012F0400F09D022F0E3
:10473000F0021205120D42F4004242F0C00221F8CC
:1047400024200268197832F8213023F4E04323F062
:10475000400343F4004343F0800322F82130002358
:1047600080F8E831184630BC704701F07F04C4EB94
:10477000C404A30028330344C0E701681C7831F85F
:10478000242012F4804F09D022F0F0021205120DFD
:1047900042F4404242F0800221F824200268197855
:1047A00032F8213023F4804323F0700343F40043B4
:1047B00043F0800322F82130D1E75A78002A48D10B
:1047C00001681C7831F8242012F4804F09D022F0BF
:1047D000F0021205120D42F4404242F0800221F82C
:1047E000242001681C7831F8242012F0400F09D0F1
:1047F00022F0F0021205120D42F4004242F0C00213
:1048000021F8242001681C7831F8242022F0F002DD
:104810001205120D42F4004242F0C00221F8242099
:1048200001681D7831F8252022F4804222F07002C0
:1048300048F28004224321F825200268197832F8D2
:10484000213023F4E04323F04003234322F82130B6
:1048500085E701681C7831F8242012F4804F09D0D4
:1048600022F0F0021205120D42F4404242F08002A2
:1048700021F8242001681C7831F8242012F0400F20
:1048800009D022F0F0021205120D42F4004242F06B
:10489000C00221F8242001681C7831F8242022F07D
:1048A000F0021205120D42F4404242F0800221F85B
:1048B000242001681D7831F8252022F4E04222F0FE
:1048C000400248F28004224321F82520026819782A
:1048D00032F8213023F4804323F07003234322F87D
:1048E00021303CE702203EE770B401F07F01CD00AB
:1048F0006D1AAC000444C4F81821C4F81C3100221D
:10490000C4F8202184F8092184F80811D4F814216E
:10491000934243D9C1EBC105AC0004449B1AC4F8CF
:104920001C31C1EBC104A300034493F81231002BE6
:1049300048D10468B4F85030C1EBC106B500054455
:1049400095F8085103EBC503063304EB43033E2AF5
:104950002DD9C2F34F1412F01F0F01D1013CA4B2A4
:104960006FEAC4646FEA5444A3F800440268C1EBE0
:10497000C1018B00184490F8081132F8213023F45B
:10498000804323F0700383F4405343F4004343F027
:10499000800322F82130002070BC7047C1EBC104B5
:1049A000A20002440024C2F81C411A46B9E7C2F32F
:1049B0004F0412F0010F01D00134A4B2A402A3F8F5
:1049C0000044D3E7C1EBC104A300034493F80931C9
:1049D00043BB0468B4F85030C1EBC106B5000544D0
:1049E00095F8085103EBC503023304EB43033E2A59
:1049F0000DD9C2F34F1412F01F0F01D1013CA4B224
:104A00006FEAC4646FEA5444A3F800440CE0C2F3B4
:104A10004F0412F0010F01D00134A4B2A402A3F894
:104A2000004401E0012B24D0C1EBC104A3000344E6
:104A300093F80931CBBB0468B4F85030C1EBC10620
:104A4000B500054495F8085103EBC503063304EBA4
:104A500043033E2A1ED9C2F34F1412F01F0F01D197
:104A6000013CA4B26FEAC4646FEA5444A3F8004462
:104A70007CE70468B4F85030C1EBC106B5000544CA
:104A800095F8085103EBC503023304EB4303A3F885
:104A90000024C9E7C2F34F0412F0010F01D0013422
:104AA000A4B2A402A3F8004460E7012B7FF45EAF38
:104AB0000468B4F85030C1EBC106B500054495F860
:104AC000085103EBC503063304EB4303A3F80024AA
:104AD0004CE701F07F01C1EBC1018B001844B0F835
:104AE00020017047F8B5054601F07F04E000001B87
:104AF000810029448A63CB6300220A64012281F881
:104B0000292081F828404F6BBB4234D9DB1BCB6393
:104B1000C4EBC40293001A462B4493F8323093B38B
:104B20002A68C4EBC40083002B4493F8283032F881
:104B3000230010F0400F7BD0C4EBC406B000284423
:104B400090F8290000283FD1B2F8500000EBC303D1
:104B5000063302EB43023E2F2BD9C7F34F1317F056
:104B60001F0F01D1013B9BB26FEAC3636FEA53434E
:104B7000A2F800342AE0C4EBC4018A002A440021D0
:104B8000D1631F46C4E7BFB216462E443B46B28DE2
:104B9000B16B2868FFF782FB2A68B2F8503096F8AC
:104BA000281003EBC103023302EB4303A3F80074A4
:104BB00088E0C7F34F0317F0010F01D001339BB218
:104BC0009B02A2F8003401E0012827D0C4EBC40204
:104BD00093002B441A8EE3001B1B9E002E44BBB295
:104BE000B16B2868FFF75AFB96F82930002B5AD092
:104BF000012B67D12A68C4EBC4018B002B4493F8C6
:104C0000281032F8213023F0F0031B051B0D43F46C
:104C1000404343F0800322F8213053E0B2F85000C3
:104C200000EBC303063302EB4302A2F80074CDE7A6
:104C3000C4EBC406B000284490F8290008BBB2F8C1
:104C4000500000EBC303023302EB43023E2F0DD9A9
:104C5000C7F34F1317F01F0F01D1013B9BB26FEA4F
:104C6000C3636FEA5343A2F800340CE0C7F34F0369
:104C700017F0010F01D001339BB29B02A2F8003460
:104C800001E0012805D0C4EBC40293002B44DA8D67
:104C9000A1E7B2F8500000EBC303023302EB43027A
:104CA000A2F80074EFE72A6896F8281032F821304D
:104CB00023F0F0031B051B0D43F4004343F0C00336
:104CC00022F821302A68C4EBC404A3001D4495F8DF
:104CD000281032F8213023F4E04323F0400383F01E
:104CE000300343F4004343F0800322F821300020D6
:104CF000F8BD704708B50121FFF7FBFF002008BD94
:104D000010B411F0800F0FD001F07F01C1EBC10191
:104D10008C002834204472B101228272C3801B0CA3
:104D20000381002010BC7047C1EBC1018C0004F569
:104D300084742044EFE782728380F2E7102393FAB1
:104D4000A3F3B3FA83F39B0003F1844303F56023D9
:104D500000221A6070474FF4806393FAA3F3B3FA0A
:104D600083F39B0003F1844303F5602301221A605F
:104D700070474FF4007393FAA3F3B3FA83F39B00E5
:104D800003F1844303F5602301221A607047000099
:104D900082B0214B9B6813F0F00F2CD11E4B5B6A45
:104DA00013F0805F08D01D4B1B6803F4C053B3F5AC
:104DB000C05F14D000211FE0174A536A43F08053AC
:104DC0005362536A03F080530193019B134B1B689A
:104DD00003F4C053516A21F080515162E7E7B0F506
:104DE000404F01D0002107E00D4A136843F004034F
:104DF0001360012100E00021094A136823F0010338
:104E00000B431360136803F001038B4202D00120AF
:104E100002B070470020FBE70038024000700040FD
:104E2000003C024070B582B00446036813F0010FE5
:104E300037D0774B9B6803F00C03082B1AD0744BC8
:104E40009B6803F00C030C2B0FD06368012B66D01A
:104E5000002B40F08B806E4B1A6822F480321A606F
:104E60001A6822F480221A605EE0694B9B6813F492
:104E7000803FEAD04FF4003393FAA3F3644B1968F0
:104E80004FF4003393FAA3F3B3FA83F303F01F0351
:104E9000012202FA03F30B4203D06368002B00F0F7
:104EA0007C83236813F0020F00F0C380584B9B688B
:104EB00003F00C03042B00F09580554B9B6803F026
:104EC0000C030C2B00F08880E368002B00F04F816E
:104ED000012292FAA2F3B3FA83F303F1845303F5A8
:104EE0008E139B001A6001F081FC0546022393FAA1
:104EF000A3F3474B1968022393FAA3F3B3FA83F39E
:104F000003F01F03012202FA03F30B4240F01F815A
:104F100001F06CFC401B0228E8D9032044E33C4A22
:104F2000136843F4803313606368002B34D001F0BE
:104F30005DFC05464FF4003393FAA3F3344B196834
:104F40004FF4003393FAA3F3B3FA83F303F01F0390
:104F5000012202FA03F30B42A3D101F047FC401BEC
:104F600041F288339842E5D903201DE3052B09D08F
:104F7000274B1A6822F480321A601A6822F48022C1
:104F80001A60D1E7224B1A6842F480221A601A682C
:104F900042F480321A60C7E701F028FC05464FF45E
:104FA000003393FAA3F31A4B19684FF4003393FAC2
:104FB000A3F3B3FA83F303F01F03012202FA03F30E
:104FC0000B423FF46EAF01F011FC401B41F28833FD
:104FD0009842E4D90320E7E20D4B9B6813F4803F2D
:104FE0007FF472AF022393FAA3F3094B19680223EB
:104FF00093FAA3F3B3FA83F303F01F03012202FA37
:1050000003F30B4206D0E368934203D00120CBE2C6
:1050100000380240C148436823F4F85321694FF433
:10502000F85292FAA2F2B2FA82F201FA02F21343B1
:105030004360236813F0100F5CD0B84B9B6813F0EB
:105040000C0F40F0D8804FF4007393FAA3F3B34BE6
:1050500019684FF4007393FAA3F3B3FA83F303F0E0
:105060001F03012202FA03F30B4203D0A369002BB2
:1050700000F09582206AA94B5B6803F46043984274
:1050800040F29D80FFF784FE002840F08A82A34909
:105090004B6823F46043226A13434B604B6823F050
:1050A0007F43E0694FF07F4292FAA2F2B2FA82F2B5
:1050B00000FA02F213434B60236A4FF4604292FA03
:1050C000A2F2B2FA82F2D3405A1C4FF4004393404A
:1050D000924A926802F0F002F02191FAA1F1B1FA3D
:1050E00081F1CA408E498A5CD3408E4A13600F20FA
:1050F000FCF7B7FA236813F0080F00F01781636913
:10510000002B00F0E680012191FAA1F2B2FA82F2BE
:10511000854B13449B00196001F068FB0546022390
:1051200093FAA3F27D4A516B93FAA3F3B3FA83F394
:1051300003F01F03012202FA03F30B4240F0F68052
:1051400001F054FB401B0228E9D903202CE27348EC
:10515000436823F4F85321694FF4F85292FAA2F20B
:10516000B2FA82F201FA02F21343436061E70123CB
:1051700093FAA3F3B3FA83F303F1845303F58E1385
:105180009B0000221A6001F031FB0546022393FACE
:10519000A3F3624B1968022393FAA3F3B3FA83F3E0
:1051A00003F01F03012202FA03F30B423FF441AF65
:1051B00001F01CFB401B0228E8D90320F4E1574909
:1051C0004B6823F46043184348604B6823F07F43E7
:1051D000E0694FF07F4292FAA2F2B2FA82F200FA4C
:1051E00002F213434B60206AFFF7D2FD00283FF420
:1051F00063AF0120D8E1A369002B3FD04FF4807347
:1052000093FAA3F3B3FA83F303F1845303F58E13F4
:105210009B0001221A6001F0E9FA05464FF4007381
:1052200093FAA3F33D4B19684FF4007393FAA3F379
:10523000B3FA83F303F01F03012202FA03F30B42D4
:1052400006D101F0D3FA401B0228E7D90320ABE1D5
:1052500032494B6823F46043226A13434B604B6826
:1052600023F07F43E0694FF07F4292FAA2F2B2FA54
:1052700082F200FA02F213434B603BE74FF4807373
:1052800093FAA3F3B3FA83F303F1845303F58E1374
:105290009B0000221A6001F0A9FA05464FF4007342
:1052A00093FAA3F31D4B19684FF4007393FAA3F319
:1052B000B3FA83F303F01F03012202FA03F30B4254
:1052C0003FF418AF01F092FA401B0228E6D9032000
:1052D0006AE1012292FAA2F2B2FA82F2124B13446C
:1052E0009B0000221A6001F081FA0546022393FA1E
:1052F000A3F20A4A516B93FAA3F3B3FA83F303F0D0
:105300001F03012202FA03F30B420FD001F06EFAE1
:10531000401B0228EAD9032046E100BF00380240C2
:1053200090D3000890000020A0C19110236813F0D2
:10533000040F00F092809E4B5B6A13F0805F1ED1D9
:105340009B4B5A6A42F080525A625B6A03F0805368
:105350000193019B0125974B1B6813F4807F10D0AC
:10536000A368012B21D0002B43D1914B5A6B22F41F
:1053700080725A635A6B22F480625A631AE00025E5
:10538000E9E78C4A136843F48073136001F02EFA46
:105390000646884B1B6813F4807FE1D101F026FAA2
:1053A000801B6428F5D90320FEE0814A536B43F447
:1053B00080735363A36893B301F018FA06464FF461
:1053C000007393FAA3F27A4A516B93FAA3F3B3FAF8
:1053D00083F303F01F03012202FA03F30B423BD1D4
:1053E00001F004FA801B41F288339842E7D9032088
:1053F000DAE0052B09D06E4B5A6B22F480725A63A7
:105400005A6B22F480625A63D4E7694B5A6B42F4B8
:1054100080625A635A6B42F480725A63CAE701F0A1
:10542000E5F906464FF4007393FAA3F2604A516B14
:1054300093FAA3F3B3FA83F303F01F03012202FAF2
:1054400003F30B4208D001F0D1F9801B41F28833FD
:105450009842E7D90320A7E0B5BB636A002B00F0B0
:10546000A280534A926802F00C020C2A00F09E803F
:10547000022B2FD04FF0807393FAA3F3B3FA83F388
:1054800003F1845303F58E139B0000221A6001F090
:10549000ADF904464FF0007393FAA3F3444B196837
:1054A0004FF0007393FAA3F3B3FA83F303F01F03EF
:1054B000012202FA03F30B426DD001F097F9001BB1
:1054C0000228E7D903206FE0394A536A23F080535A
:1054D0005362C2E74FF0807393FAA3F3B3FA83F3F6
:1054E00003F1845303F58E139B0000221A6001F030
:1054F0007DF905464FF0007393FAA3F32C4B19681E
:105500004FF0007393FAA3F3B3FA83F303F01F038E
:10551000012202FA03F30B4206D001F067F9401BA7
:105520000228E7D903203FE021498B6823F47D035B
:10553000A26AE06A0243206B024313438B604FF080
:10554000807393FAA3F3B3FA83F303F1845303F55F
:105550008E139B0001221A6001F048F904464FF0B7
:10556000007393FAA3F3124B19684FF0007393FA88
:10557000A3F3B3FA83F303F01F03012202FA03F348
:105580000B4206D101F032F9001B0228E7D90320B3
:105590000AE0002008E0002006E0012004E00120ED
:1055A00002E0012000E0002002B070BD0120FBE716
:1055B0000038024000700040224B986800F00C0256
:1055C000082A3CD00C2A13D0042A0FD01D4B58684F
:1055D00000F460404FF4604393FAA3F3B3FA83F30B
:1055E000D840431C4FF4004098407047164870471D
:1055F00000F470114FF4701292FAA2F2B2FA82F231
:1056000021FA02F211498A5C00F440004FF4400391
:1056100093FAA3F3B3FA83F3D8400130094B9B68A4
:1056200013F4803F05D00A4B03FB02F3B3FBF0F009
:105630007047054B03FB02F3B3FBF0F070470448DF
:10564000704700BF003802400024F400A8D30008CF
:1056500000127A008D4B1B6803F001038B4214D2B9
:1056600001290CD0894A136823F001030B4313600E
:10567000136803F001038B4207D001207047834A6F
:10568000136843F004031360ECE770B5036813F08C
:10569000020F06D07E4A936823F0F0038468234308
:1056A00093600C460546036813F0010F00F0A380D9
:1056B0004368022B18D0032B48D0012B5BD04FF44A
:1056C000007292FAA2F2724A10684FF4007292FAD3
:1056D000A2F2B2FA82F202F01F02012101FA02F2F2
:1056E000024215D10120CDE04FF4003292FAA2F22D
:1056F000674A10684FF4003292FAA2F2B2FA82F2CC
:1057000002F01F02012101FA02F2024200F0BB8006
:105710005F498A6822F0030213438B6001F066F848
:1057200006466B68022B39D0032B46D0012B53D091
:10573000574B9B6813F00C0F5DD001F057F8801B9E
:1057400041F288339842F3D903209BE04FF0007276
:1057500092FAA2F24E4A10684FF0007292FAA2F248
:10576000B2FA82F202F01F02012101FA02F20242B1
:10577000CED1012086E0022292FAA2F2444A1068B9
:10578000022292FAA2F2B2FA82F202F01F02012180
:1057900001FA02F20242BBD1012073E03C4B9B684C
:1057A00003F00C03082B26D001F020F8801B41F2F7
:1057B00088339842F2D9032064E0354B9B6803F0AC
:1057C0000C030C2B17D001F011F8801B41F2883329
:1057D0009842F2D9032055E02D4B9B6803F00C034F
:1057E000042B08D001F002F8801B41F28833984264
:1057F000F2D9032046E0254B1B6803F00103A342C6
:1058000014D9012C0CD0214A136823F0010323433F
:105810001360136803F00103A34207D0012031E0B5
:105820001A4A136843F004031360ECE72B6813F083
:10583000040F06D0164A936823F4E063E9680B432B
:1058400093602B6813F0080F07D0114A936823F474
:105850006053296943EAC1039360FFF7ADFE0C4B27
:105860009B6803F0F003F02292FAA2F2B2FA82F2FD
:10587000D340084AD35CD840074B18600F20FBF791
:10588000F0FE002070BD0120FCE700BF003C02409C
:105890000038024090D3000890000020014B1868A7
:1058A000704700BF9000002008B5FFF7F7FF074BD7
:1058B0009B6803F4E0634FF4E06292FAA2F2B2FA5A
:1058C00082F2D340024AD35CD84008BD003802407F
:1058D000A0D3000808B5FFF7E1FF074B9B6803F46E
:1058E00060534FF4605292FAA2F2B2FA82F2D340BD
:1058F000024AD35CD84008BD00380240A0D300085B
:1059000038B5037F012B55D00446012303770223CA
:1059100043770368CA225A62036853225A62B1F578
:10592000807F1FD00268936823F40073936002683D
:10593000936823F40053936000F058FF05462368F2
:10594000DB6813F0020F2DD100F050FF401BB0F5C3
:105950007A7FF4D92368FF225A62032060770023FC
:10596000237726E00268936823F4807393600268CB
:10597000936823F48053936000F038FF0546236852
:10598000DB6813F0010F0DD100F030FF401BB0F5C4
:105990007A7FF4D92368FF225A62032060770023BC
:1059A000237706E02368FF225A62012363770020F1
:1059B000207738BD0220FCE7002302E001330A38DB
:1059C000C0B20928FAD81B01DBB21843704703099B
:1059D00003EB83035A0000F00F001044C0B270477D
:1059E00070B503685B6823F07F4323F0C003180C95
:1059F000C870C3F304264E7003F03F058D70C3F3E7
:105A000042330B705AB90C46FFF7E1FFE0703046A5
:105A1000FFF7DDFF60702846FFF7D9FFA070002078
:105A200070BD38B503689B6A9BB24B6003681B6905
:105A3000C3F30E038B6003681B6803F07F3323F00E
:105A4000FE431C0C04F03F000870C3F306254D70A4
:105A50008B7004F04004CC700AB1002038BD0C46B5
:105A6000FFF7B5FF20706078FFF7B1FF6070A07896
:105A7000FFF7ADFFA070F0E7F8B5037F012B00F052
:105A8000CD800D4604460123037702234377002A85
:105A90004ED103689B6813F0400F01D10023CB70F7
:105AA0002878FFF789FF06046878FFF785FF46EA44
:105AB0000026A878FFF780FF0643E87846EA00460C
:105AC00095F82000FFF778FF46EA0066E86906438C
:105AD000686906436F68AB691F432368CA225A622C
