:020000040800F2
:1000000000400120A5F10008B5170008B717000847
:10001000B9170008BB170008BD1700080000000052
:10002000000000000000000000000000BF170008F2
:10003000C117000800000000C3170008C51700081A
:10004000EDF10008CD170008EDF10008EDF1000812
:10005000EDF10008D5170008D7170008EDF10008EA
:10006000EDF10008EDF10008EDF10008EDF10008F8
:10007000EDF10008EDF10008E1170008EDF10008CE
:10008000EDF10008EDF10008F1170008EDF10008AE
:1000900001180008EDF10008EDF100081118000842
:1000A000EDF10008EDF10008EDF10008EDF10008B8
:1000B000EDF10008EDF10008EDF10008211800084D
:1000C00031180008EDF10008EDF1000841180008B2
:1000D000EDF1000851180008EDF10008EDF10008FD
:1000E000EDF1000861180008EDF10008EDF10008DD
:1000F000EDF1000800000000EDF10008EDF100084E
:10010000EDF10008EDF10008EDF10008EDF1000857
:10011000EDF10008EDF10008EDF10008000000002D
:10012000EDF10008000000000000000000000000E9
:0C01300000000000000000005FF808F173
:1001400010B5054C237833B9044B13B10448AFF311
:1001500000800123237010BD400200200000000039
:100160001007010808B5034B1BB103490348AFF35F
:10017000008008BD000000004402002010070108B4
:1001800081F0004102E000BF83F0004330B54FEA48
:1001900041044FEA430594EA050F08BF90EA020FB5
:1001A0001FBF54EA000C55EA020C7FEA645C7FEA48
:1001B000655C00F0E2804FEA5454D4EB5555B8BF6B
:1001C0006D420CDD2C4480EA020281EA030382EADC
:1001D000000083EA010180EA020281EA0303362D6E
:1001E00088BF30BD11F0004F4FEA01314FF4801C41
:1001F0004CEA113102D0404261EB410113F0004F53
:100200004FEA03334CEA133302D0524263EB430309
:1002100094EA050F00F0A780A4F10104D5F1200EA7
:100220000DDB02FA0EFC22FA05F2801841F1000102
:1002300003FA0EF2801843FA05F359410EE0A5F1D6
:1002400020050EF1200E012A03FA0EFC28BF4CF007
:10025000020C43FA05F3C01851EBE37101F00045BD
:1002600007D54FF0000EDCF1000C7EEB00006EEBCA
:100270000101B1F5801F1BD3B1F5001F0CD3490854
:100280005FEA30004FEA3C0C04F101044FEA4452AB
:1002900012F5800F80F09A80BCF1004F08BF5FEA32
:1002A000500C50F1000041EB045141EA050130BD12
:1002B0005FEA4C0C404141EB010111F4801FA4F1B5
:1002C0000104E9D191F0000F04BF01460020B1FA0A
:1002D00081F308BF2033A3F10B03B3F120020CDA42
:1002E0000C3208DD02F1140CC2F10C0201FA0CF020
:1002F00021FA02F10CE002F11402D8BFC2F1200C85
:1003000001FA02F120FA0CFCDCBF41EA0C0190403A
:10031000E41AA2BF01EB0451294330BD6FEA040483
:100320001F3C1CDA0C340EDC04F11404C4F120026E
:1003300020FA04F001FA02F340EA030021FA04F380
:1003400045EA030130BDC4F10C04C4F1200220FAD7
:1003500002F001FA04F340EA0300294630BD21FA15
:1003600004F0294630BD94F0000F83F4801306BFDB
:1003700081F480110134013D4EE77FEA645C18BFCF
:100380007FEA655C29D094EA050F08BF90EA020F66
:1003900005D054EA000C04BF1946104630BD91EA5E
:1003A000030F1EBF0021002030BD5FEA545C05D161
:1003B0004000494128BF41F0004130BD14F58004A0
:1003C0003CBF01F5801130BD01F0004545F0FE4114
:1003D00041F470014FF0000030BD7FEA645C1ABF49
:1003E000194610467FEA655C1CBF0B46024650EA80
:1003F000013406BF52EA033591EA030F41F40021AC
:1004000030BD00BF90F0000F04BF0021704730B531
:100410004FF4806404F132044FF000054FF0000106
:1004200050E700BF90F0000F04BF0021704730B5C7
:100430004FF4806404F1320410F0004548BF40429C
:100440004FF000013EE700BF42004FEAE2014FEAF1
:1004500031014FEA02701FBF12F07F4393F07F4FCC
:1004600081F06051704732F07F4208BF704793F0CF
:100470007F4F04BF41F40021704730B54FF46074E2
:1004800001F0004521F000411CE700BF50EA0102E5
:1004900008BF704730B54FF000050AE050EA01028E
:1004A00008BF704730B511F0004502D5404261EBFE
:1004B00041014FF4806404F132045FEA915C3FF43F
:1004C000D8AE4FF003025FEADC0C18BF03325FEADC
:1004D000DC0C18BF033202EBDC02C2F1200300FA8D
:1004E00003FC20FA02F001FA03FE40EA0E0021FAB2
:1004F00002F11444BDE600BF70B54FF0FF0C4CF4A0
:10050000E06C1CEA11541DBF1CEA135594EA0C0F51
:1005100095EA0C0F00F0DEF82C4481EA030621EA8C
:100520004C5123EA4C5350EA013518BF52EA0335C7
:1005300041F4801143F4801338D0A0FB02CE4FF079
:100540000005E1FB02E506F00042E0FB03E54FF0A9
:100550000006E1FB03569CF0000F18BF4EF0010EA1
:10056000A4F1FF04B6F5007F64F5407404D25FEA9D
:100570004E0E6D4146EB060642EAC62141EA555150
:100580004FEAC52040EA5E504FEACE2EB4F1FD0C92
:1005900088BFBCF5E06F1ED8BEF1004F08BF5FEA10
:1005A000500E50F1000041EB045170BD06F00046C2
:1005B00046EA010140EA020081EA0301B4EB5C046F
:1005C000C2BFD4EB0C0541EA045170BD41F4801167
:1005D0004FF0000E013C00F3AB8014F1360FDEBF8C
:1005E000002001F0004170BDC4F10004203C35DA68
:1005F0000C341BDC04F11404C4F1200500FA05F3EB
:1006000020FA04F001FA05F240EA020001F000428B
:1006100021F0004110EBD37021FA04F642EB060101
:100620005EEA430E08BF20EAD37070BDC4F10C042B
:10063000C4F1200500FA04F320FA05F001FA04F2EF
:1006400040EA020001F0004110EBD37041F10001DB
:100650005EEA430E08BF20EAD37070BDC4F12005E6
:1006600000FA05F24EEA020E20FA04F301FA05F24E
:1006700043EA020321FA04F001F0004121FA04F2F6
:1006800020EA020000EBD3705EEA430E08BF20EAC6
:10069000D37070BD94F0000F0FD101F00046400000
:1006A00041EB010111F4801F08BF013CF7D041EA82
:1006B000060195F0000F18BF704703F00046520086
:1006C00043EB030313F4801F08BF013DF7D043EA57
:1006D0000603704794EA0C0F0CEA135518BF95EA0D
:1006E0000C0F0CD050EA410618BF52EA4306D1D194
:1006F00081EA030101F000414FF0000070BD50EAB3
:10070000410606BF1046194652EA430619D094EA3C
:100710000C0F02D150EA013613D195EA0C0F05D126
:1007200052EA03361CBF104619460AD181EA03017A
:1007300001F0004141F0FE4141F470014FF0000032
:1007400070BD41F0FE4141F4780170BD70B54FF0CD
:10075000FF0C4CF4E06C1CEA11541DBF1CEA13554D
:1007600094EA0C0F95EA0C0F00F0A7F8A4EB05042F
:1007700081EA030E52EA03354FEA013100F0888026
:100780004FEA03334FF0805545EA131343EA1263EF
:100790004FEA022245EA111545EA10654FEA0026A4
:1007A0000EF000419D4208BF964244F1FD0404F55D
:1007B000407402D25B084FEA3202B61A65EB0305B9
:1007C0005B084FEA32024FF480104FF4002CB6EB76
:1007D000020E75EB030E22BFB61A754640EA0C00F6
:1007E0005B084FEA3202B6EB020E75EB030E22BF36
:1007F000B61A754640EA5C005B084FEA3202B6EB77
:10080000020E75EB030E22BFB61A754640EA9C0035
:100810005B084FEA3202B6EB020E75EB030E22BF05
:10082000B61A754640EADC0055EA060E18D04FEAC3
:10083000051545EA16754FEA06164FEAC30343EA63
:1008400052734FEAC2025FEA1C1CC0D111F4801F30
:100850000BD141EA00014FF000004FF0004CB6E729
:1008600011F4801F04BF01430020B4F1FD0C88BFC8
:10087000BCF5E06F3FF6AFAEB5EB030C04BFB6EBD3
:10088000020C5FEA500C50F1000041EB045170BDC6
:100890000EF0004E4EEA113114EB5C04C2BFD4EBF3
:1008A0000C0541EA045170BD41F480114FF0000E77
:1008B000013C90E645EA060E8DE60CEA135594EAF3
:1008C0000C0F08BF95EA0C0F3FF43BAF94EA0C0FF6
:1008D0000AD150EA01347FF434AF95EA0C0F7FF46B
:1008E00025AF104619462CE795EA0C0F06D152EABF
:1008F00003353FF4FDAE1046194622E750EA4106A3
:1009000018BF52EA43067FF4C5AE50EA41047FF4B3
:100910000DAF52EA43057FF4EBAE12E74FF0FF3C18
:1009200006E000BF4FF0010C02E000BF4FF0010CE9
:100930004DF804CD4FEA410C7FEA6C5C4FEA430C62
:1009400018BF7FEA6C5C1BD001B050EA410C0CBFB1
:1009500052EA430C91EA030F02BF90EA020F002013
:10096000704710F1000F91EA030F58BF994208BF7A
:1009700090422CBFD8176FEAE37040F00100704737
:100980004FEA410C7FEA6C5C02D150EA013C07D18E
:100990004FEA430C7FEA6C5CD6D152EA033CD3D0D9
:1009A0005DF8040B704700BF8446104662468C46D3
:1009B0001946634600E000BF01B5FFF7B7FF002806
:1009C00048BF10F1000F01BD4DF808EDFFF7F4FF2F
:1009D0000CBF012000205DF808FB00BF4DF808EDBA
:1009E000FFF7EAFF34BF012000205DF808FB00BFDD
:1009F0004DF808EDFFF7E0FF94BF012000205DF8FF
:100A000008FB00BF4DF808EDFFF7CEFF94BF0120B3
:100A100000205DF808FB00BF4DF808EDFFF7C4FFAC
:100A200034BF012000205DF808FB00BF4FEA4102FF
:100A300012F5001215D211D56FF47873B3EB625230
:100A400012D94FEAC12343F0004343EA505311F057
:100A5000004F23FA02F018BF404270474FF00000E9
:100A6000704750EA013005D111F0004008BF6FF027
:100A7000004070474FF00000704700BF4A0011D29D
:100A800012F5001211D20DD56FF47873B3EB6252E8
:100A90000ED44FEAC12343F0004343EA505323FAF4
:100AA00002F070474FF00000704750EA013002D169
:100AB0004FF0FF3070474FF00000704780F000406B
:100AC00002E000BF81F0004142001FBF5FEA410326
:100AD00092EA030F7FEA226C7FEA236C6AD04FEA26
:100AE0001262D2EB1363C1BFD2184140484041406B
:100AF000B8BF5B42192B88BF704710F0004F40F41D
:100B0000000020F07F4018BF404211F0004F41F438
:100B1000000121F07F4118BF494292EA030F3FD004
:100B2000A2F1010241FA03FC10EB0C00C3F1200317
:100B300001FA03F100F0004302D5494260EB4000A6
:100B4000B0F5000F13D3B0F1807F06D340084FEA11
:100B5000310102F10102FE2A51D2B1F1004F40EB06
:100B6000C25008BF20F0010040EA0300704749006E
:100B700040EB000010F4000FA2F10102EDD1B0FA39
:100B800080FCACF1080CB2EB0C0200FA0CF0AABF2E
:100B900000EBC25052421843BCBFD04018437047CC
:100BA00092F0000F81F4000106BF80F400000132D2
:100BB000013BB5E74FEA41037FEA226C18BF7FEAA9
:100BC000236C21D092EA030F04D092F0000F08BFEB
:100BD0000846704790EA010F1CBF0020704712F0D2
:100BE0007F4F04D1400028BF40F00040704712F111
:100BF00000723CBF00F50000704700F0004343F076
:100C0000FE4040F4000070477FEA226216BF0846AB
:100C10007FEA23630146420206BF5FEA412390EA6E
:100C2000010F40F4800070474FF0000304E000BF64
:100C300010F0004348BF40425FEA000C08BF704715
:100C400043F0964301464FF000001CE050EA0102D9
:100C500008BF70474FF000030AE000BF50EA0102EE
:100C600008BF704711F0004302D5404261EB4101DB
:100C70005FEA010C02BF84460146002043F0B64300
:100C800008BFA3F18053A3F50003BCFA8CF2083A25
:100C9000A3EBC25310DB01FA02FC634400FA02FC2E
:100CA000C2F12002BCF1004F20FA02F243EB020035
:100CB00008BF20F00100704702F1200201FA02FC97
:100CC000C2F1200250EA4C0021FA02F243EB02008A
:100CD00008BF20EADC70704753B94AB9002908BF41
:100CE00000281CBF4FF0FF314FF0FF3000F074B907
:100CF000ADF1080C6DE904CE00F006F8DDF804E073
:100D0000DDE9022304B070472DE9F0478C46044624
:100D1000089E002B4BD18A42154667D9B2FA82F25F
:100D20004AB1C2F1200701FA02F320FA07F7954011
:100D300047EA030C94404FEA154EBCFBFEF71FFA3E
:100D400085F80EFB17C307FB08F9210C41EA0343A2
:100D5000994509D9EB1807F1FF3180F01C819945BD
:100D600040F21981023F2B44A3EB0903B3FBFEF0D1
:100D70000EFB103300FB08F1A4B244EA0344A14285
:100D800009D92C1900F1FF3380F00781A14240F20C
:100D9000048102382C4440EA07400027641A1EB13F
:100DA0000023D440C6E900433946BDE8F0878B42B2
:100DB00009D9002E00F0EC800027C6E90001384672
:100DC0003946BDE8F087B3FA83F7002F48D18B424C
:100DD00002D3824200F2FB80841A61EB03030120FC
:100DE0009C46002EE0D0C6E9004CDDE702B9FFDEEC
:100DF000B2FA82F2002A40F08F800127491B4FEAA5
:100E000015481FFA85F9B1FBF8FE08FB1E1109FB16
:100E10000EF04FEA144C4CEA0143984207D9EB1804
:100E20000EF1FF3102D2984200F2CD808E461B1A9D
:100E3000B3FBF8F008FB103309FB00F9A4B244EA55
:100E40000344A14507D92C1900F1FF3302D2A14573
:100E500000F2B6801846A4EB090440EA0E409EE773
:100E6000C7F12005BB4022FA05FC4CEA030C21FA2D
:100E700005F44FEA1C4EB4FBFEF91FFA8CF80EFB8A
:100E8000194420FA05F3B94009FB08FA19430B0C81
:100E900043EA0444A24502FA07F200FA07F30BD929
:100EA0001CEB040409F1FF3080F08880A24540F279
:100EB0008580A9F102096444A4EB0A04B4FBFEF0A6
:100EC0000EFB104400FB08FA89B241EA0444A24533
:100ED00008D91CEB040400F1FF316BD2A24569D99B
:100EE0000238644440EA0940A0FB0289A4EB0A04EA
:100EF0004C454146CE4654D351D0002E69D05A1AA3
:100F000064EB0E0404FA05F522FA07F3FC401D43D6
:100F1000C6E90054002747E79540C2F1200321FAB3
:100F200003F04FEA1548B0FBF8F71FFA85F908FB04
:100F3000170024FA03F3914007FB09FC0B43190C3B
:100F400041EA00418C4504FA02F407D9691807F117
:100F5000FF3031D28C452FD9023F2944A1EB0C013F
:100F6000B1FBF8F008FB101C00FB09FE99B241EA46
:100F70000C418E4507D9691800F1FF3318D28E4510
:100F800016D902382944A1EB0E0140EA07473AE797
:100F90003746304608E70F46E6E61846FBE6434587
:100FA000ABD2B8EB020169EB0C0201389646A4E71C
:100FB0001846E8E7084695E70746CFE781467BE70E
:100FC00002382C4447E7AEF1020E2B442FE7384697
:100FD00007E73746E8E600BF704700BF2DE9F0435A
:100FE0008BB0002405940694079408940994454B0B
:100FF000DA6942F00402DA61DA6902F0040201926D
:10100000019ADA6942F02002DA61DA6902F020021C
:101010000292029ADA6942F00102DA61DA6902F0B8
:1010200001020392039ADA6942F00202DA61DB6993
:1010300003F002030493049B334D22464FF4005106
:10104000284603F0B7FC314E22464FF4806130460B
:1010500003F0B0FC4FF40053059301270697079463
:10106000089405A9284603F02DFB0597DFF8A0900A
:10107000CDF818900794DFF89C8005A9404603F04E
:1010800021FB4FF48063059306970794089405A904
:10109000304603F017FB4FF4006305930694079462
:1010A00005A9304603F00EFBC0230593CDF8189038
:1010B000079405A9284603F005FB4FF440730593F8
:1010C0000694079405A9284603F0FCFA4FF48073B0
:1010D00005930694079405A9404603F0F3FA2246C7
:1010E0002146062003F0C6F8062003F009F922463F
:1010F0002146172003F0BEF8172003F001F90BB0CA
:10110000BDE8F083003802400008024000040240BD
:10111000000011100000024000B583B00A4BDA69EC
:1011200042F08072DA61DB6903F080730193019B06
:10113000002211460E2003F09DF80E2003F0E0F887
:1011400003B05DF804FB00BF0038024008B50B484F
:101150000B4B03604FF48273436000238360C360D2
:10116000036143614FF480228261C3610362436281
:1011700083620A23C36207F0BFFD08BD2418002064
:101180000030014070B584B00025019502950395AB
:10119000104C114B23606560A560E56025616561B9
:1011A000A561E561256265620126A662E5621023FC
:1011B0006363A563E563204602F0A0FC042301936A
:1011C000029603950DEB0301204602F031FF04B0B7
:1011D00070BD00BF7C1800200024014008B50948FC
:1011E000094B0360094B436000238360C3604FF4E5
:1011F0008042026143618361C361036203F056FD73
:1012000008BD00BF2C17002000540040A08601003C
:1012100008B50848084B03604FF4E13343600023EE
:101220008360C36003610C2242618361C36108F083
:1012300035F808BDC41700200038014070B590B0E3
:1012400000240B940C940D940E940F940A9428226D
:10125000214668460DF0F0FF204D214B2B606C605D
:101260007F23AB60FF23EB602C616C61AC6128468F
:1012700006F0ACFD8DF82C408DF82D408DF82E40F9
:101280000E940F9401220BA9284606F053FE012666
:101290008DF828608DF829608DF82A608DF82B4034
:1012A00032460AA9284606F04BFF8DF800408DF81B
:1012B00001408DF80240019403940494059406942F
:1012C00007948DF820604FF4807309933246694685
:1012D000284607F05DF810B070BD00BF041800206C
:1012E0000028004030B597B03422002109A80DF045
:1012F000A3FF002404940594069407940894019491
:1013000002940394184A136823F4C05343F400630F
:1013100013600B23099301250A950C9510230D9357
:101320000E95022312934FF4803313934FF48023CE
:1013300014934FF40003159309A805F0BFFC0F2385
:10134000049303230593069407940894294604A85C
:1013500006F0B0F901954FF40033029301A806F0AE
:1013600065FB17B030BD00BF0070004008B508F045
:1013700087F9FFF7B7FFFFF731FEFFF7CDFEFFF765
:10138000E5FEFFF7FFFEFFF729FF00F015F8FFF776
:101390003FFFFFF753FF0449044808F0FDFE0448EF
:1013A0000DF052FFFEE700BF800200205C0200202B
:1013B000280701087047704708B500220F491048F8
:1013C00008F086F970B90F490D4808F098F960B92E
:1013D0000D490B4808F05AFE50B9094808F096F933
:1013E00048B908BDFFF7E6FFEDE7FFF7E3FFEFE7DA
:1013F000FFF7E0FFF1E7FFF7DDFFF2E70000002075
:10140000D0180020940000205000002018B10228BD
:1014100003D0022070470020704701207047000071
:1014200002680E4B9A4200D0704700B583B003F5B6
:10143000EE335A6A42F400025A625B6A03F4000314
:101440000193019B00221146142002F013FF142087
:1014500002F056FF03B05DF804FB00BF005C0040E3
:1014600008B500F5F671D0F81C0208F068F908BD5F
:1014700008B5C1EBC10293000344D3F81821D0F89A
:101480001C0208F089F908BD08B5C1EBC102930040
:1014900003449A6BD0F81C0208F0B3F908BD08B5F4
:1014A000D0F81C0208F036FA08BD10B5044683686F
:1014B000022B01D0FFF77EFF0121D4F81C0208F0B7
:1014C00017FAD4F81C0208F0F4F910BD10B5044660
:1014D000D0F81C0208F00FFAA36923B1024A13697D
:1014E00043F00603136110BD00ED00E008B5D0F82D
:1014F0001C0208F009FA08BD10B504461D48C0F8E2
:101500001C42C4F820021C4B0360082343600223E2
:101510008360036100238361036204F0F7F930BB49
:10152000182300221146D4F8200205F0CCFA5823E3
:1015300000228021D4F8200205F0C5FAC023002241
:101540008121D4F8200205F0BEFA4FF488730022FE
:101550000121D4F8200205F0B6FA4FF4807300227E
:101560008221D4F8200205F0AEFA002010BDFFF76A
:1015700021FFD5E7F41A0020005C004008B5D0F840
:10158000200205F09AFAFFF741FF08BD10B51C468E
:1015900013462246D0F8200204F030FAFFF736FF57
:1015A00010BD08B5D0F8200204F0E3FBFFF72EFFD2
:1015B00008BD08B5D0F8200205F0B6F9FFF726FF00
:1015C00008BD08B5D0F8200205F009FAFFF71EFFA4
:1015D00008BDD0F8203211F0800F08D101F07F0152
:1015E000C1EBC1018A00134493F80A01704701F06E
:1015F0007F01C1EBC1018A00134493F82A007047B0
:1016000008B5D0F8200204F0E3F9FFF7FFFE08BDAB
:1016100008B5D0F8200204F0ACFDFFF7F7FE08BDD6
:1016200008B5D0F8200204F0A6FCFFF7EFFE08BDD5
:1016300008B5D0F8200204F093FD08BD00487047BB
:10164000840200207047000012230B80004870477E
:101650001C00002004230B8000487047300000204D
:101660000023934216D230B40BE0373401F8134014
:1016700000015C00013400250D550133DBB29342BB
:1016800006D2040F092CF0D8303401F81340EFE7EC
:1016900030BC70477047000038B50A4B18680433F7
:1016A0001C6804331B68C01800D138BD064D0822E1
:1016B000A91CFFF7D5FF042205F112012046FFF710
:1016C000CFFFF2E7D000F81F3400002008B51A233E
:1016D0000B80FFF7E1FF014808BD00BF3400002088
:1016E00008B50A4628B10549054808F080FB0348BB
:1016F00008BD0249024808F07AFBF8E7141D0020F3
:101700007407010810B5044C0A462146034808F046
:101710006EFB204610BD00BF141D002060070108AD
:1017200008B50A4628B10549054808F060FB03489A
:1017300008BD0249024808F05AFBF8E7141D0020D2
:101740004407010808B50A4628B10549054808F0CC
:101750004EFB034808BD0249024808F048FBF8E781
:10176000141D00205007010800207047002070471A
:1017700010B5054C0146204608F097FC204608F0BD
:101780009AFC002010BD00BFD018002010B5064CF8
:1017900000220649204608F080FC0549204608F052
:1017A00084FC002010BD00BFD0180020FC220020C7
:1017B000141F00207047FEE7FEE7FEE7FEE77047D4
:1017C0007047704708B507F067FF08BD08B505F01A
:1017D0001BFA08BD704708B5012003F009F908BDE0
:1017E00008B5024802F014FF08BD00BF80170020B2
:1017F00008B5024802F058FB08BD00BF7C18002065
:1018000008B5024804F0ECFF08BD00BFF41A002040
:1018100008B5402003F0ECF8802003F0E9F808BD9B
:1018200008B5024803F0EEFE08BD00BF2C170020EB
:1018300008B5024803F09EFF08BD00BF2C1700202A
:1018400008B5024807F0EFF908BD00BF24180020D2
:1018500008B5024807F098FE08BD00BFC417002075
:1018600008B5024806F064FA08BD00BF041800205D
:1018700010B586B00024049405941A4B5A6A42F0BD
:1018800000425A625A6A02F000420192019A1A6AB0
:1018900042F001021A621A6A02F001020292029AEE
:1018A0005A6A42F080525A625B6A03F08053039393
:1018B000039B22462146012002F0DCFC012002F0BD
:1018C0001FFD22462146052002F0D4FC052002F02F
:1018D00017FD0494059404A805F014F905F086F9A1
:1018E00006B010BD0038024000B589B00023039354
:1018F00004930593069307930268154B9A4202D00E
:1019000009B05DF804FB03F58A331A6A42F40072E9
:101910001A621A6A02F400720192019ADA6942F0BC
:101920000102DA61DB6903F001030293029B1023D9
:1019300003930323049303A9064802F0C3FE002285
:101940001146122002F096FC122002F0D9FCD7E7D3
:10195000002401400000024010B588B0002303932A
:10196000049305930693079302681B4B9A4201D098
:1019700008B010BD194CE36943F00203E361E36969
:1019800003F002030193019BC023039312230493EA
:1019900001230593032306930423079303A9104807
:1019A00002F090FE636A43F400136362636A03F417
:1019B00000130293029B002211461F2002F05AFCE2
:1019C0001F2002F09DFC00221146202002F052FC54
:1019D000202002F095FCCBE7005400400038024084
:1019E0000004024008B502680B4B9A4200D008BDC3
:1019F0004FF4800292FAA2F2B2FA82F2074B134439
:101A00009B0001221A6000221146292002F032FCBC
:101A1000292002F075FCEAE700280040A0C19110DF
:101A200000B589B0002303930493059306930793AD
:101A30000268184B9A4202D009B05DF804FB03F526
:101A400084331A6A42F480521A621A6A02F480528B
:101A50000192019ADA6942F00102DA61DB6903F06E
:101A600001030293029B48F2E003039302230493D1
:101A7000032306930523079303A9074802F022FED8
:101A800000221146232002F0F5FB232002F038FC4F
:101A9000D2E700BF003001400000024010B588B01E
:101AA0000023039304930593069307930268244B42
:101AB0009A4201D008B010BD044603F580331A6A7B
:101AC00042F480421A621A6A02F480420192019A38
:101AD000DA6942F00102DA61DB6903F00103029383
:101AE000029B4FF4C06303930223049301230593E5
:101AF000032306930723079303A9124802F0E2FD8C
:101B00001148124B0360102343600023836080223E
:101B1000C260036143618361C36102F033FC58B961
:101B2000094B23635C6200221146252002F0A2FBD0
:101B3000252002F0E5FBBDE7FFF73CFCF0E700BF26
:101B4000003801400000024080170020446002403D
:101B5000102820D00CD802281FD005D9042818D06E
:101B600008280CD109207047012808D106207047A9
:101B700080280CD005D8202809D0402807D028205C
:101B80007047B0F5807F02D0B0F5007FF7D1172005
:101B90007047082070470A207047072070470346A7
:101BA00010F47F4F19D1002023F4706222F00F024D
:101BB00092B20AB140F0040023F44C5222F03302F6
:101BC00092B20AB140F0020023F4AA4323F0550375
:101BD0009BB20BB140F0010070470820E4E7000021
:101BE00010B586B0254B984226D011D9244B984287
:101BF0002DD003F58063984234D1224BDC6944F048
:101C00000804DC61DB6903F008030493049B0DE026
:101C1000A3F58063984225D11A4BDC6944F0010496
:101C2000DC61DB6903F001030193019B1160114644
:101C300002F048FD06B010BD124BDC6944F002040E
:101C4000DC61DB6903F002030293029BEEE70D4BBC
:101C5000DC6944F00404DC61DB6903F004030393F2
:101C6000039BE3E7074BDC6944F02004DC61DB699C
:101C700003F020030593059BD8E700BF0004024052
:101C8000000802400038024070B50C4616461D465A
:101C90000846FFF784FF25B9094B002243F82020AE
:101CA00070BD074B43F820502046FFF751FF044614
:101CB0000022314602F0DEFA204602F021FBEFE777
:101CC000A404002008B5D2B202F074FE08BD0000E2
:101CD000F8B507460C460022244806F021FB66684A
:101CE000224D00223946284606F0ECFA0022214611
:101CF000284606F015FB6368B342F0D1F97840F24C
:101D0000B55202FB01F20332960811F0030F2BD0FB
:101D100017497D78013DC5EB051205EB82020132C2
:101D200002EBD2706A0021FA02F202F00302C2EB67
:101D300060023244B9780A44013AA5782078617883
:101D4000C1EB011189004FF4616404FB00112944C7
:101D5000084800FB0212950D9402C3F57F7303330C
:101D6000E01845F10001F8BD0349D2E71005002055
:101D7000A0AA9900805101005055440003207047EB
:101D800008B501467D220023C001490EFEF7A4FFDD
:101D900008BD810AC0F309034FF47A7000FB03F316
:101DA0009B0A00FB0130704700B587B001A9684667
:101DB000FFF78EFF024B1B68C01A07B05DF804FBEB
:101DC0003005002000B587B001A96846FFF780FF05
:101DD00007B05DF804FB000010B5084C4FF48071AB
:101DE000204605F037FF2268D368DBB263F4C07386
:101DF000D360034B4FF400325A6110BD1005002030
:101E000000040140F0B587B00446494F01AD3E1DC6
:101E10000FCE0FC5BB690093FFF7DEFFBDF808606A
:101E2000C6F57F760336B6B2C4F309031E44B6B2D4
:101E3000A00A9DF8025005E0A0F5A830A0F5C070FA
:101E4000691C8DB23B4B9842F6D89DF8043003E0F4
:101E5000A0F5616001339BB2B0F5616FF8D29DF8D7
:101E6000052002E03C38013292B23B28FAD89DF8B6
:101E7000061080B2084480B204E0A6F58064A6B2E1
:101E8000013080B2B6F5806FF7D203E03C3880B203
:101E9000013292B23B28F9D803E03C3A92B20133C6
:101EA0009BB23B2AF9D803E0183B9BB2691C8DB268
:101EB000172BF9D89DF8031011F0030F0DD19DF8E1
:101EC000011001391C4C615C8CB2AC4212D295FB02
:101ED000F1F401FB14518DB20CE09DF801100139B1
:101EE000164C615C8CB2AC4204D295FBF1F401FB60
:101EF00014518DB2C6F57F76033611494E604FF00E
:101F000020648C6188704A700B7081F820509DF8B5
:101F10000730CB700022CA614A614FF480734B6274
:101F2000CA600A61074806F033FA07B0F0BD00BF87
:101F3000300500207F510100980701088C07010837
:101F4000E80400201005002038B505460F4BB3F912
:101F500000400334FFF728FF281A84420BD20021E7
:101F600004200CF06DFE0CF081FE012808D02846FC
:101F7000FFF748FF38BD012104200CF061FEF2E7B5
:101F8000024BB3F90030ED1AF1E700BFE404002082
:101F900010B5044C211D04F11800FFF799FE2060D4
:101FA00010BD00BF3005002030B587B0054601A93F
:101FB0006846FFF78DFE840AC0F30900FFF7E9FECB
:101FC0002880204607B030BD70B506460D46064C49
:101FD0000021204606F0D0FB30600121204606F0AB
:101FE000CBFB286070BD00BF1005002000B587B096
:101FF000ADF80E004FF0FF33009301230DF11602F0
:102000000DF10E01034806F039FCBDF8160007B0CB
:102010005DF804FB4C050020002308E0FEE7114BAF
:1020200003EBC103187910BC70470133DBB2142BEA
:1020300017D819460B4A52F833208242F5D810B40B
:102040005A1C084C54F832208242E8D80133DBB2E3
:10205000142BE3D81946034A52F833208242F5D8AC
:10206000EEE7FEE7A4070108054B5B793BB9044B9B
:1020700093F830301BB9024B012283F830207047AF
:1020800014270020014B1860704700BFA4050020F2
:10209000014B1879704700BF1427002070B586B037
:1020A00000250195039505950124029403230493CB
:1020B0000C4E01AA21463046FFF792FD2A462146E2
:1020C0003046FFF7FFFD204607F0F4FA029501AA1B
:1020D00021463046FFF784FD062007F0EBFA06B0F4
:1020E00070BD00BF0000024070B504460E461546A4
:1020F000002240210A48FFF7E5FD44F08000FFF789
:1021000075FF002404E0305DFFF770FF0134E4B296
:10211000AC42F8D3012240210148FFF7D3FD70BD46
:102120000004024000B583B002AB03F8011D012298
:102130001946FFF7D9FF03B05DF804FB10B5114B4A
:102140009860114AA2FB00131B0B43F6095404FBD1
:10215000130041F6846404EB0024A2FB0424240B46
:1021600004EB0324C4F307410620FFF7DBFFC4F3AD
:1021700007210720FFF7D6FFE1B20820FFF7D2FFC3
:1021800010BD00BF1427002083DE1B4370B504463A
:102190000E461546002240210B48FFF793FD04F040
:1021A0007F00FFF723FF002405E00020FFF71EFF5C
:1021B00030550134E4B2AC42F7D301224021024849
:1021C000FFF780FD70BD00BF0004024000B583B082
:1021D00001220DF10701FFF7D9FF9DF8070003B0B9
:1021E0005DF804FB38B50920FFF7F0FF054606202F
:1021F000FFF7ECFF04040720FFF7E8FF44EA0024A0
:102200000820FFF7E3FF2043040A43F60952C3B254
:1022100002FB03F380331B0A02FB04340021092074
:10222000FFF780FF3B20FFF7D1FF40F04001C9B22C
:102230003B20FFF777FF3B20FFF7C8FF10F0200F90
:10224000F9D10D48FFF77AFF3B20FFF7BFFF40F0C1
:102250004001C9B23B20FFF765FF3B20FFF7B6FF07
:1022600010F0200FF9D129460920FFF75BFF204627
:10227000FFF764FF38BD00BF00A1BC3300000000C1
:102280002DE9F047894618B1012857D0002049E0D0
:10229000814C258C2720FFF799FF20F0F8000130B2
:1022A0002844FEF7BFF894F82230002B3CD00022DF
:1022B0000023FDF76BFF04460D463020FFF786FF35
:1022C00030F0F90333D00022744B20462946FDF745
:1022D0005DFF04460D464846FEF7A4F822462B460D
:1022E000FDF754FF6C4B93F824301BBB00220023F6
:1022F000FDF74CFF00226A4BFEF7FEF804460D4640
:10230000654BD869FEF77EF802460B462046294603
:10231000FEF71CFA0022634BFEF7EEF80EF06CF9A4
:10232000FEF7ACFBBDE8F08700225C4BC1E7002262
:102330000023CAE700224FF08043D9E7564B5B6C7D
:10234000082B00F08680092B00F08780072B00F017
:10235000888000240025DFF84081D8F848A00120BB
:1023600000FA0AF0FEF75EF802460B4620462946C0
:10237000FEF7ECF902460B4600204849FEF7E6F965
:1023800004460D46B8F84E00FEF74CF80022464BC6
:10239000FDF7FCFE22462B46FEF7AEF806460F463A
:1023A0004FEA8A00C0EBC90098F8523000EB0310E6
:1023B00098F85030002B58D01423C01A1C30FEF768
:1023C00021F880468946344B93F84C30002B4ED090
:1023D0000220AAEB00008000FEF714F802460B462C
:1023E00040464946FEF7B2F90DF0FAFF80468946AD
:1023F000294B93F84D000430FEF714F802460B46C3
:1024000040464946FEF778F8804689460022002378
:10241000FEF702FB68B30022214B40464946FDF718
:10242000B5FE22462B46FEF767F802460B463046BD
:102430003946FDF7ABFE00221A4BFEF75DF80EA3FE
:10244000D3E90023FDF7A2FE0EF052F8FEF716FBCB
:1024500068E70BA5D5E900457DE70BA5D5E9004563
:1024600079E70BA5D5E9004575E70023A5E700202E
:10247000AFE700200A49D4E72B8716D9CEF7EF3F04
:102480000000000080840E410000000080841E4196
:10249000000000008084FE40142700200000F03F70
:1024A0000000204000408F400000114008B520B1DE
:1024B00001280AD04FF0FF3006E01120FFF786FE1A
:1024C000C0F34700404200B208BD094B9A68094B6F
:1024D0009A4206D81B20FFF779FE80B2A43800B2DA
:1024E000F2E71B20FFF772FE80B29D3800B2EBE7E7
:1024F0001427002040DD4A1F38B50546C0B1174CEF
:1025000023681B680120984723681B6900209847AF
:1025100023685B69284698470120FFF757FE41B2C0
:1025200021F007012943C9B20120FFF7FBFD38BDA7
:102530000120FFF74BFE41B221F007012943C9B248
:102540000120FFF7EFFD054C23681B690120984728
:1025500023681B6800209847E9E700BFA405002016
:1025600008B506480CF032FD05480CF02FFD0020A0
:10257000FFF7C2FF034B00221A7108BD7C27002021
:10258000E42600201427002008B506480CF01EFDA4
:1025900005480CF01BFD0120FFF7AEFF034B0022A6
:1025A0001A7108BD7C270020E42600201427002093
:1025B00070B50546944B5B791BB1012B41D00026C9
:1025C00027E0914C94F826604020FFF7FFFD00F0D3
:1025D000030141F00C014020FFF7A4FD4120FFF76B
:1025E000F5FD60F03E01C9B24120FFF79BFD3520AB
:1025F000FFF7ECFD00F03F0084F83E001E210D20A7
:10260000FFF790FD002384F8303084F83130A38741
:1026100063874FF4807200217C480CF00DFE7A4BEA
:1026200001221A71002D40F0D280774B5B79002B8C
:1026300000F0D680002E40F0E3800620FFF75CFF1C
:1026400070BD714B93F855303BB33320FFF7BEFD9F
:1026500040F04101C9B23320FFF764FD19213B204E
:10266000FFF760FD684B5B6C082B7FD83120FFF7CC
:10267000ADFD00F07F013120FFF754FD0021302037
:10268000FFF750FD604B5B6C082B78D8DFE803F058
:1026900017232F3B47535F6469003320FFF796FDF4
:1026A00041B221F0410141F0010101F0BF013320AD
:1026B000FFF738FD1D213B20FFF734FDD2E748210D
:1026C0002F20FFF72FFD504B986800F5F450023093
:1026D000FFF734FD53E044212F20FFF723FD4A4B41
:1026E000986800F522503430FFF728FD47E0442178
:1026F0002F20FFF717FD444B986800F57450043005
:10270000FFF71CFD3BE044212F20FFF70BFD3E4B64
:10271000986800F5A2405E30FFF710FD2FE04421DD
:102720002F20FFF7FFFC384B986800F5F44012307B
:10273000FFF704FD23E044212F20FFF7F3FC324B89
:10274000986800F52240C630FFF7F8FC17E04021FA
:102750002F20FFF7E7FC12E040212F20FFF7E2FCDB
:102760000DE040212F20FFF7DDFC08E03120FFF7CE
:102770002DFD60F07F01C9B23120FFF7D3FC224B61
:1027800093F8566093F85330A3B11D211120FFF741
:10279000C9FC4020FFF71AFD00F033014020FFF78D
:1027A000C1FC00210F20FFF7BDFC00210D20FFF729
:1027B000B9FC2EE71F211120FFF7B4FC4020FFF7E2
:1027C00005FD00F03F014020FFF7ACFCE9E7104CAD
:1027D000294620460CF036FC20460CF0C5FB24E7C9
:1027E0000520FFF789FE002E7FF42AAF094C064B27
:1027F000D96A20460CF026FC20460CF0B5FB1FE7FA
:102800000520FFF779FE1BE714270020AC05002008
:102810007C270020FC26002008B5014627480CF044
:1028200011FC274B5B795BB1012B24D0244B022296
:102830001A7122480CF098FB0320FFF75DFE08BDDB
:102840004020FFF7C3FC00F0030141F010014020DD
:10285000FFF768FC4120FFF7B9FC00F03E01412082
:10286000FFF760FC3520FFF7B1FC00F03F00144B90
:1028700083F83E00DAE7124B93F8533073B9F7212F
:102880001120FFF74FFC4020FFF7A0FC00F03F01B4
:1028900041F040014020FFF745FCC7E7F52111203A
:1028A000FFF740FC4020FFF791FC00F0330141F0BE
:1028B00040014020FFF736FCB8E700BFE4260020C7
:1028C0001427002008B50B4B5B79012B11D1FA219D
:1028D0001120FFF727FC4020FFF778FC00F0FC01F7
:1028E0004020FFF71FFC034B03221A710720FFF75C
:1028F00003FE08BD1427002010B504460120FFF791
:1029000065FC10F0800F1ED11A4B00225A71194B32
:102910005B79A34216D0174B5C71012C17D1FFF7DE
:102920001FFE0120FFF752FC60F07F01C9B20120B9
:10293000FFF7F8FB00214020FFF7F4FB00214120C6
:10294000FFF7F0FB10BD0B4B01225A71DFE7FFF7D9
:1029500007FE0120FFF73AFC00F07F010120FFF79E
:10296000E1FB00214020FFF7DDFB30214120FFF794
:10297000D9FBE7E71427002038B51E4B18601E4C22
:1029800021461E480CF0E6FA21461D480CF0E2FAFA
:1029900021461C480CF0DEFA1B4C23681B68012002
:1029A0009847FFF77BFBFFF71DFC0020FFF7A4FD16
:1029B00023689B681548984700240CE0144A04EBF0
:1029C0004403D518D05CFFF797FFA9786878FFF724
:1029D000A9FB0134E4B20F2CF0D90020FFF78CFFE3
:1029E0000C4B00221A71084B1B685B689847023039
:1029F00038BD00BFA80500202D370008E4260020C0
:102A00007C270020FC260020A40500206000002078
:102A10005408010814270020F8B507460C4616464E
:102A20001D46FFF769FF2046FFF788FB0520FFF7EB
:102A300063FD012006F03EFE0CF016FB0446204626
:102A40000CF018FBA84206D23846FFF72FFDB04223
:102A5000F5DD002400E00124FFF782FD2046F8BDEB
:102A600038B50120FFF748FFFF211120FFF75AFB7F
:102A70000520FFF741FD00252C460BE0012006F064
:102A800019FE2C20FFF7A2FB00F00100A040054337
:102A90000134E4B21F2CF1D9FFF762FD284638BD9E
:102AA0002DE9F04F85B00546029114460093BDF81C
:102AB0003C80BDF8403003939DF844709DF84890E9
:102AC0009DF84C609DF858B09DF85CA0FFF714FF8E
:102AD0002DB1012D00F0838005B0BDE8F08FAE4D23
:102AE000029B6B61EC610E9AAA6185F8227085F8F1
:102AF000239085F8246085F825B085F826A0A5F8F0
:102B000020802046FDF77EFC82468B4602460B461F
:102B10000020A249FDF71AFE0022A14BFDF7ECFCB4
:102B2000CDE900010398FDF77DFCDDE90023FDF709
:102B3000E3FC00229B4BFDF7DFFCFDF79FFFE86203
:102B400052465B4692A1D1E90001FDF7FFFDFDF77A
:102B500095FF84B2210A0220FFF7E4FAE1B20320D4
:102B6000FFF7E0FA0298FFF757FA01461220FFF745
:102B7000D9FA0E98FFF750FA01461320FFF7D2FA60
:102B80004FEA18212520FFF7CDFA5FFA88F12620B9
:102B9000FFF7C8FADFB149463220FFF7C3FA302009
:102BA000FFF714FB00F06F01B7B10023194341EAAE
:102BB0000611C9B23020FFF7B5FA3120FFF706FB46
:102BC00040F04001C9B23120FFF7ACFA84E7FF21A1
:102BD0003220FFF7A7FAE2E76FF07F03E6E7029BF8
:102BE000022B00D9FEE7029D07356B4B5D649C64A8
:102BF000009A83F84D20A3F84E8083F8507083F834
:102C0000519083F852609DF8502083F853209DF82E
:102C1000542083F8542083F855B083F856A00C2C28
:102C200003D8052C02D8062400E00C24072D63D01D
:102C3000082D6AD0584B002283F84C201D20FFF746
:102C4000C5FA2B01DAB2009B5B00DBB2134343EA07
:102C500007011D20FFF766FA1E20FFF7B7FA00F004
:102C600008002201D2B20243B300DBB21343039E39
:102C7000C6F3012119431E20FFF754FA2620FFF75F
:102C8000A5FA41B221F00801434B93F84C3041EAD8
:102C9000C301C9B22620FFF745FAF1B21F20FFF7A2
:102CA00041FA4FEA18212020FFF73CFA5FFA88F139
:102CB0002120FFF737FA5FBB374B93F8533063BBE4
:102CC000092D3AD0092D46D003213620FFF72AFAE4
:102CD000062C49D03120FFF779FA41B221F00701E3
:102CE00041F0030101F0FB013120FFF71BFA0A213B
:102CF0003720FFF717FAEFE6A4F10B03012B97D863
:102D0000254B012283F84C2098E70C2C92D1F7E751
:102D100049462220FFF706FACEE74420FFF756FA8D
:102D200060F07F01C9B24420FFF7FCF91A4B93F819
:102D300054102420FFF7F6F9C2E7174B9A681A4B94
:102D40009A42BFD902213620FFF7ECF964213A20DC
:102D5000FFF7E8F9BCE702213620FFF7E3F97F210E
:102D60003A20FFF7DFF9B3E73120FFF72FFA41B23E
:102D700021F0070141F0050101F0FD013120FFF7CD
:102D8000D1F90C213720FFF7CDF9A5E6AFF300808C
:102D90000000000080847E41142700200000F03FE6
:102DA0000000204000408F4040DD4A1F000000002E
:102DB0002DE9F04F85B00290019103921C460E9DC3
:102DC0009DF83C80BDF840709DF844909DF84860A7
:102DD0009DF84CA09DF854B0FFF78EFD8A4B1B6800
:102DE000DB6801989847029B23B1012B5ED005B0A8
:102DF000BDE8F08F854B019A1A73039818615C61E6
:102E0000DD611F8483F8229083F8246083F825B065
:102E1000169A9A62FDF7F6FA77A3D3E90023FDF735
:102E200095FCFDF72BFE84B2210A0420FFF77AF906
:102E3000E1B20520FFF776F92846FDF7E3FA0246EE
:102E40000B466FA1D1E90001FDF780FCFDF716FEEE
:102E500084B2210A0220FFF765F9E1B20320FFF7EF
:102E600061F9390A2520FFF75DF9F9B22620FFF74D
:102E700059F93020FFF7AAF900F06F01B9F1000FFE
:102E800011D00023194341EA0611C9B23020FFF7DF
:102E900049F93120FFF79AF940F04001C9B23120D9
:102EA000FFF740F9A3E76FF07F03EBE7574B019A79
:102EB00083F84020022C00D9FEE70734534B5C64B2
:102EC0009D6483F84D80A3F84E7083F8509083F88A
:102ED00053A09DF8502083F8542083F8526083F863
:102EE00055B0169A9A650C2D03D8052D02D80625E3
:102EF00000E00C25072C4FD0082C56D0434B002265
:102F000083F84C20BAF1000F52D11D20FFF75EF973
:102F10002101C9B24FEA4803DBB2194341EA090172
:102F20001D20FFF7FFF81E20FFF750F900F00B01FE
:102F30002B01DBB21943B300DBB219431E20FFF7AC
:102F4000F1F82620FFF742F941B221F008012F4B9A
:102F500093F84C3041EAC301C9B22620FFF7E2F8EA
:102F6000390A2020FFF7DEF8F9B22120FFF7DAF85E
:102F7000062D2DD03120FFF729F941B221F00701AC
:102F800041F0030101F0FB013120FFF7CBF80A21EA
:102F90003720FFF7C7F82AE7A5F10B03012BABD8C1
:102FA0001A4B012283F84C20ACE70C2DA6D1F7E791
:102FB0004420FFF70BF960F07F01C9B24420FFF70E
:102FC000B1F8124B93F854102420FFF7ABF89CE7AC
:102FD0003120FFF7FBF841B221F0070141F0050174
:102FE00001F0FD013120FFF79DF80C213720FFF79C
:102FF00099F8FCE6AFF300800000000080844E40AA
:103000000000000080847E41A405002014270020D9
:1030100030B58BB00D464FF47A7404FB02F4FFF721
:103020008DF8089400200790069005900490039076
:103030000523029301904FF49653009303460246F2
:103040002946FFF7B5FE3120FFF7C0F800F0BF01B9
:103050003120FFF767F8F0214020FFF763F8A02147
:103060004120FFF75FF8084D214628460BF0EAFFA4
:10307000064B02221A7128460BF076FF0320FFF759
:103080003BFA0BB030BD00BFE4260020142700201F
:1030900038B5374B1B79012B02D0022B4CD038BDF1
:1030A000334B5B79C3B1012BF9D1314B93F85330DA
:1030B000002BF4D002211220FFF734F82D4B1B68AF
:1030C000002BECD05C69002CE9D01C20FFF77EF8C7
:1030D00000F03F00A047E2E7254B012283F83020B3
:1030E0001B8E9342DBD124480BF070FF204D01234F
:1030F00085F831301120FFF769F84008404285F823
:1031000032001B20FFF762F804021C20FFF75EF874
:103110002043020A43F60951C3B201FB03F3803393
:103120001B0A01FB02336B630C20FFF74FF8C0F35F
:10313000471085F83800B2E70D4B5B79012BAED113
:103140000B4B93F85330002BA9D002211220FEF72D
:10315000E9FF084B1B68002BA1D05C69002C9ED0B6
:103160001C20FFF733F800F03F00A04797E700BFAF
:1031700014270020A8050020FC26002008B5114BCC
:103180005B79012B1CD11220FFF720F810F0010F02
:103190000BD005211220FEF7C5FF0B4B1B687BB13E
:1031A0009B696BB1012098470AE004211220FEF7C9
:1031B000B9FF054B1B681BB19B690BB100209847F9
:1031C00008BD00BF14270020A805002008B50A4646
:1031D00001460020FEF788FF08BD000030B583B02F
:1031E00005468DF80710404B5B791BB1012B35D09C
:1031F000002022E03C4B00229A879DF80710598757
:1032000093F82230EBB901210DF10700FFF7DEFF43
:103210009DF80720531EDBB23F2B16D8324B83F8A4
:103220003F20314C94F83F102846FFF7CFFF94F829
:103230003F30A28F1344A387A06AFFF7EDFA03B0D3
:1032400030BD3220FEF76EFFE2E7294627480BF03B
:1032500088FF254B202283F83F20E2E7224B93F89A
:1032600055304BB33320FEF7B1FF00F0BE013320E1
:10327000FEF758FF19213B20FEF754FF9DF8071079
:10328000194B83F864102220FEF74CFF00210E201A
:10329000FEF748FF00210D20FEF744FF0120FEF756
:1032A00095FF30F0F80319D09DF807102846FFF776
:1032B0008DFF0D4B986DC0E73320FEF787FF41B2BD
:1032C00021F0410141F0010101F0BF013320FEF77F
:1032D00029FF1D213B20FEF725FFCFE7FFF754F91B
:1032E000012006F0E7F9DFE714270020AC050020F5
:1032F00008B50A4601460020FEF748FF08BD000059
:1033000010B582B000238DF80730A84B1B79012B34
:1033100004D0022B00F02F8102B010BDA34B5B79CB
:103320003BB3012BF8D140211220FEF7FBFE122007
:10333000FEF74CFF8DF807009DF8073013F0200FC3
:1033400000F0B18020211220FEF7ECFE974B93F89D
:10335000563013B9954B00221A7195480BF036FE82
:10336000944B1B68002BD7D01B69002BD4D09847F7
:10337000D2E78E4B93F82430DBB98C4B598F002960
:1033800058D19B8F002B55D1884B93F82230002BBE
:103390004AD101218848FFF7ABFF844CA38F618F8E
:1033A000C91AC9B285481844FFF7A2FF638FA387E3
:1033B0004AE03F20FEF70AFF8DF807009DF807302E
:1033C00013F0020FD9D10B213E20FEF7ABFE1021E6
:1033D0003F20FEF7A7FE76480BF0F8FD734B93F8FD
:1033E0002630A3B976480BF0F1FD704B00221A711C
:1033F000704B1B6813B11B6903B198476B4B0022DC
:1034000083F8302083F831209A875A8784E70D208B
:10341000FEF7DCFE40F04001C9B20D20FEF782FE4F
:1034200067480BF0A1FDE3E73220FEF7CFFE5F4BCC
:103430005887B2E75D4CA38FC91AC9B25F481844D8
:10344000FFF756FF638FA38759480BF0BFFD574B1B
:1034500093F82630D3B9554B00221A7158480BF017
:10346000B5FD544B1B6843B19C6834B14F490023F0
:1034700091F93220498F5148A0474C4B002283F8E4
:10348000302083F831209A875A8745E70D20FEF7D0
:103490009DFE40F04001C9B20D20FEF743FE4848B2
:1034A0000BF062FDDDE71920FEF790FE43B2023318
:1034B0009B103E4C84F860301A20FEF787FE03B262
:1034C00094F96020002A37DB384A91683D4A9142DE
:1034D0004AD900EB23109D38344BA3F86200132027
:1034E000FEF774FE314C84F864001020FEF76EFE87
:1034F00001460D20FEF716FE94F864102F48FFF7E2
:10350000F7FE94F856300BB90022227128480BF0D0
:103510005DFD284B1B68002B3FF4FEAE9C68002C21
:103520003FF4FAAE214991F96030B1F9622091F887
:1035300064102248A047EFE6A46822498C4209D9CA
:1035400000EB23139BB292B213449D3B174AA2F89F
:103550006230C4E700EB23139BB292B21344A43B46
:10356000124AA2F86230BAE700EB2310A4380F4BDE
:10357000A3F86200B3E714480BF028FD0B4B5B790E
:10358000012B0DD0094B00221A710A4B1B68002B2E
:103590003FF4C2AE1B68002B3FF4BEAE9847BBE6BB
:1035A00008211220FEF7BEFDECE700BF1427002023
:1035B0007C270020A80500204E270020AC05002015
:1035C000FC26002040DD4A1FE426002010B53A4BBF
:1035D0001B79012B02D0022B4CD010BD364B5B79EE
:1035E000A3B1012BF9D135480BF0F0FC802112205A
:1035F000FEF798FD304B00221A71314B1B68002BEF
:10360000EBD0DB68002BE8D09847E6E72A4B5B8FCE
:1036100053B9294B9B8F3BB9274B93F82230CBB939
:1036200001212848FFF764FE234B598F9A8F881A8F
:1036300093F83E30984213DB591EC9B22248104419
:10364000FFF756FE1C4A92F83E30918F0B44013B27
:103650009387C2E73220FEF7B9FD174B5887E3E79F
:10366000891AC9B218481044FFF742FE124B5A8F0C
:103670009A87B2E7104B5B79002BAED10E4B5A8F75
:10368000988F141A93F83F108C4209DC111AC9B2B2
:103690000D4B1844FFF79AFD074B5A8F9A879CE70A
:1036A000094B1844FFF792FD034B93F83F20998F85
:1036B0000A449A8791E700BF142700207C27002046
:1036C000A80500204E270020AC05002038B5044690
:1036D0000D46FFF711F914B1012C0AD038BD074B84
:1036E00093F82230002BF9D129463220FEF71AFD3B
:1036F000F4E729462320FEF715FDEFE71427002005
:1037000010B504460120FFF7F7F8074B83F85C403B
:1037100024B912213920FEF705FD10BD34213920CE
:10372000FEF700FDF9E700BF1427002038B5324B43
:103730001B79012B02D0022B32D038BD2E4B5B7986
:1037400043B12E4B1B68002BF7D0DB68002BF4D065
:103750009847F2E7284C84F8303084F83130A3875A
:1037600063870B213E20FEF7DDFC10213F20FEF792
:10377000D9FC94F8263063B10D20FEF727FD40F008
:103780004001C9B20D20FEF7CDFC1D480BF0ECFB4B
:10379000D7E7194B00221A7119480BF017FCD0E734
:1037A000FEF77CFCFEF71EFD0020FEF7A5FE0024C0
:1037B0000CE0144A04EB4403D518D05CFFF79CF8E6
:1037C000A9786878FEF7AEFC0134E4B20F2CF0D98A
:1037D0000020FFF791F8084C94F85C00FFF790FF89
:1037E00000232371054B1B68002BA6D05B68002BC0
:1037F000A3D09847A1E700BF14270020A805002008
:10380000FC2600205408010808B5034B1B685B68C0
:103810009847023008BD00BFA40500200020704773
:10382000704701207047000010B586B00023019357
:1038300002930393049305931048FEF723FC104B67
:103840000293022303930323049301AA4FF480619C
:103850000C48FEF7C5F90C4C01AA08212046FEF7DA
:10386000BFF901AA20212046FEF7BAF901AA1021CA
:103870002046FEF7B5F906B010BD00BF7800002065
:1038800000001110000002400004024010B586B094
:1038900000230193049305930D4B0293022303939A
:1038A00001AA4FF480610B48FEF79AF90A4C01AA6D
:1038B00008212046FEF794F901AA20212046FEF7B0
:1038C0008FF901AA10212046FEF78AF906B010BD33
:1038D00000001110000002400004024038B5044608
:1038E000036800224FF480610B48FEF7CDF90B4DC1
:1038F0006368002208212846FEF7C6F9A368002263
:1039000020212846FEF7C0F9E3680022102128464E
:10391000FEF7BAF938BD00BF0000024000040240C3
:1039200030B587B0002401940394059401230293D9
:1039300003230493064D01AA02212846FEF750F9FD
:10394000224602212846FEF7BDF907B030BD00BF70
:103950000008024030B587B0002401940394059418
:103960000123029303230493064D01AA0221284652
:10397000FEF736F9224602212846FEF7A3F907B0E2
:1039800030BD00BF0008024008B5064B1B788342DB
:1039900004D0044B187010B1FFF7DCFF08BDFFF72F
:1039A000BFFFFBE7AC06002008B5032805D00022C6
:1039B00002210548FEF786F908BD012202210248CE
:1039C000FEF780F9F8E700BF0008024000207047CA
:1039D00070B506460920FEF7F9FB04464D20FEF7B8
:1039E000F5FB054604F07F04284B9868FFF7EEFFCF
:1039F00043B22343DBB243F070035BB2002B06DB20
:103A0000B6F1FF3F31DB0E2E31DD0E262FE0112EF9
:103A100013DD45F00705EDB205F00702072A13D0C4
:103A2000012E20DD112E00DD112623F00F01023EB4
:103A300006F00F031943C9B220E025F007056DB267
:103A400045F00405EDB2E7E7042E03DD142E02DD98
:103A5000142600E0052623F00F01053E06F00F03B3
:103A60001943C9B20AE00226DFE74FF0FF3623F020
:103A70000F01013606F00F031943C9B20920FEF702
:103A800051FB29464D20FEF74DFB70BD1427002049
:103A90000E4B1A6842F480721A6099680C4A0A4008
:103AA0009A601A6822F0885222F001121A601A688D
:103AB00022F480221A609A6822F47D029A60002221
:103AC000DA60044B4FF000629A60704700380240A1
:103AD0000CC0FF8800ED00E008B50A460146024828
:103AE00005F062FC08BD00BFB406002008B5024B1B
:103AF0001B68984708BD00BFB0060020002800F0F2
:103B0000C58170B582B004460268AF4B9A4204D0BA
:103B10004FF4C671AD48FDF74EFC636833B1B3F5A1
:103B2000803F03D0B3F5003F40F0FA80A3684BB16B
:103B3000B3F1807F06D0B3F1007F03D0B3F1407FB3
:103B400040F0F480E3681BB1B3F5006F40F0F480FF
:103B500023691BB1B3F5807F40F0F4806369B3F54E
:103B6000806F02D0002B40F0F380A36973B1102B5B
:103B70000CD0202B0AD0302B08D0402B06D0502B55
:103B800004D0602B02D0702B40F0E880E3694BB189
:103B9000B3F5003F06D0B3F5803F03D0B3F5403F07
:103BA00040F0E280236A13B1042B40F0E380636AA3
:103BB000012B00F2E580636BB3F1007F25D0B3F1F8
:103BC000407F22D0B3F1C06F1FD0B3F1E06F1CD0A3
:103BD000B3F1006F19D0B3F1806F16D0B3F1A06FBD
:103BE00013D0B3F1106F10D0B3F1206F0DD063B1CB
:103BF000B3F1807F09D0B3F1706F06D0102B04D0E1
:103C00004FF4CB717148FDF7D6FBE36B012B00F24B
:103C1000BD8023697BB1A36A013B1B2B00F2BC80F2
:103C2000E36A012B00F2BE80E36A23B1236B013B00
:103C3000072B00F2BD80636B102B0BD0A36B4BB135
:103C4000B3F1805F06D0B3F1005F03D0B3F1405F02
:103C500040F0B480E36C002B00F0C080E36C13F004
:103C6000100F40F01581E36C23F4885323F0020316
:103C700043F00203E364564A536823F44033616817
:103C80000B435360E36862691343E16B4FF40072C6
:103C900092FAA2F2B2FA82F201FA02F21343226A13
:103CA0001A43606A022393FAA3F3B3FA83F300FA88
:103CB00003F31343626B102A02D0A16B0A43134330
:103CC00025682A6812F0400216D1A1690B43A16849
:103CD000E66931432669B6F5807F00F09380012EB6
:103CE00000F08D800A43E16A012900F08E80686847
:103CF000384901400A436A6021688868364A0240B0
:103D00001A438A602269B2F5807F00F09580012A0B
:103D100000F0928021680A6B22F0F8720A639AE040
:103D200040F28D112948FDF746FBFFE64FF4C771BD
:103D30002648FDF740FB05E740F28F112348FDF7C9
:103D40003AFB05E74FF4C8712048FDF734FB05E75F
:103D500040F291111D48FDF72EFB06E74FF4C971A3
:103D60001A48FDF728FB11E740F293111748FDF7B9
:103D700022FB17E74FF4CA711448FDF71CFB16E746
:103D800040F295111148FDF716FB14E740F2971128
:103D90000E48FDF710FB3CE740F29B110B48FDF786
:103DA0000AFB3DE74FF4CE710848FDF704FB3BE703
:103DB00040F29F110548FDF7FEFA3CE740F2A511DD
:103DC0000248FDF7F8FA45E7002401401C09010804
:103DD00000270140FF16FCFC89F1FFC0236584F831
:103DE00048302D4B1A6A42F001021A621B6A03F036
:103DF00001030193019B2046FDF776FD2EE74FF46A
:103E000080726FE74FF480726CE760B9216B013903
:103E10004FF4604090FAA0F0B0FA80F0814041F495
:103E200000610A4363E7E16C41F02001E164216D28
:103E300041F0010121655AE725682A6B22F0F872EA
:103E4000A16A01394FF0F87090FAA0F0B0FA80F052
:103E500081400A432A6322689168104A0A409A42C4
:103E60000BD0E36C23F0120343F01003E364236DE3
:103E700043F00103236501200BE000202065E36C83
:103E800023F0030343F00103E36402E001207047E1
:103E9000012002B070BD00BF00380240FEFF80BFAD
:103EA000704770477047000038B5044602685E4BA3
:103EB0009A4204D040F27F515C48FDF77CFA636A75
:103EC000012B00F28C80A36A013B1B2B00F28D803A
:103ED00023685A6812F0200F30D01A6812F0020FCF
:103EE0002CD0E26C12F0100F03D1E26C42F400729D
:103EF000E2649A6812F0405F19D1626ABAB91A6B2B
:103F000012F0F87F03D09A6812F4806F0FD15A68CC
:103F100022F020025A60E36C23F48073E364E36CC4
:103F200013F4805F03D1E36C43F00103E3642046A4
:103F3000FFF7B6FF23686FF012021A6023685A6811
:103F400012F0800F38D01A6812F0040F34D0E26CEF
:103F500012F0100F03D1E26C42F40052E2649A684E
:103F600012F4401F21D15A6C12F4401F03D09A68FA
:103F700012F4806F19D15A6812F4806F15D19A68C3
:103F800012F0405F11D1626A7AB95A6822F0800259
:103F90005A60E36C23F48053E364E36C13F4807F92
:103FA00003D1E36C43F00103E364204600F042F9DF
:103FB00023686FF00C021A6023685A6812F0400FF1
:103FC00003D01B6813F0010F15D123685A6812F053
:103FD000806F03D01A6812F0200F18D138BD4FF44B
:103FE000B0611248FDF7E7F96DE740F281510F48E3
:103FF000FDF7E1F96CE7E36C43F48033E3642046BA
:10400000FFF74FFF23686FF001021A60DDE7226DB2
:1040100042F0020222656FF020051D602046FFF786
:1040200041FF23681D60D9E7002401401C090108F5
:1040300030B583B005460C46002301930268794BE6
:104040009A4204D040F276617748FDF7B4F92368CC
:104050001F2B39D86368013B1B2B3BD8A368072B68
:104060003ED895F84830012B00F0D980012385F81F
:1040700048306368062B39D82868026C03EB830349
:10408000053B1F21994022EA0102216801FA03F34E
:10409000134303642368092B6AD82868426903EB39
:1040A00043030721994022EA0102A16801FA03F3C0
:1040B000134343612368103B012B40F28A800020A8
:1040C00085F8480003B030BD40F277615648FDF7EF
:1040D00072F9BFE74FF4CF615348FDF76CF9BDE7C4
:1040E00040F279615048FDF766F9BAE70C2B0ED81B
:1040F0002868C26B03EB8303233B1F21994022EA0C
:104100000102216801FA03F31343C363C2E7122BD0
:104110000ED82868826B03EB8303413B1F21994033
:1041200022EA0102216801FA03F313438363B1E732
:10413000182B0ED82868426B03EB83035F3B1F21CB
:10414000994022EA0102216801FA03F31343436311
:10415000A0E72868026B03EB83037D3B1F21994096
:1041600022EA0102216801FA03F31343036391E792
:10417000132B0ED82868026903EB43031E3B07216B
:10418000994022EA0102A16801FA03F31343036193
:1041900090E71D2B0ED82868C26803EB43033C3B15
:1041A0000721994022EA0102A16801FA03F31343AF
:1041B000C3607FE72868C26D03EB43035A3B0721C6
:1041C000994022EA0102A16801FA03F31343C3658F
:1041D00070E7164B5B6813F4000F7FF470AF134A5F
:1041E000536843F4000353602368102B7FF467AFD8
:1041F0000F4B1B6802F1467202F52D3202F2833238
:10420000A2FB03239B0C03EB83035A00019202E001
:10421000019B013B0193019B002BF9D14FE7022049
:1042200050E700BF002401401C090108002701409D
:10423000900000207047000010B50446C31E042BF8
:104240000FD80A4AD36823F4E0631B041B0C240232
:1042500004F4E064234343F0BF6343F40033D360CA
:1042600010BDBC210248FDF7A6F8EAE700ED00E02A
:104270005409010870B505460C4616460F2A25D884
:104280000F2C28D81B4BDB68C3F30223C3F10702B2
:10429000042A28BF0422191D062921D9033B4FF007
:1042A000FF3101FA02F224EA02049C4001FA03F30E
:1042B00026EA03063443002D14DB2401E4B205F1A1
:1042C000604505F5614585F8004370BDD4210A4875
:1042D000FDF771F8D4E7D5210748FDF76CF8D1E771
:1042E0000023DCE705F00F052401E4B2034B5C5525
:1042F000EBE700BF00ED00E05409010814ED00E019
:1043000010B5041E08DB04F01F026409012393406A
:10431000044A42F8243010BDE8210348FDF74BF869
:10432000F1E700BF00E100E0540901080138B0F1F5
:10433000807F0AD2064B5860064AF02182F823108B
:104340000020986007221A6070470120704700BF64
:1043500010E000E000ED00E070B4066CC56B0124D5
:10436000B4406C60046863604368102B05D0036838
:1043700099600368DA6070BC704703689A600368EC
:10438000D960F8E7002800F0BC8010B50446036847
:104390005D4A934225D01432934222D01432934284
:1043A0001FD0143293421CD01432934219D01432CD
:1043B000934216D01432934213D002F562729342A4
:1043C0000FD0143293420CD01432934209D01432DD
:1043D000934206D01432934203D0AB214B48FCF7F2
:1043E000EAFF636823B1102B02D0B3F5804F5AD196
:1043F000A368402B01D0002B5AD1E368802B01D059
:10440000002B5AD123692BB1B3F5807F02D0B3F5CD
:10441000007F57D163692BB1B3F5806F02D0B3F53C
:10442000006F54D1A3690BB1202B55D1E36943B17F
:10443000B3F5805F05D0B3F5005F02D0B3F5405F00
:104440004FD12268324B9A4250D8324B1344324AF1
:10445000A2FB03231B099B002364304BE36302236D
:1044600084F8213021680A6822F47F5222F0300259
:104470006368A0680343E0680343206903436069FD
:104480000343A0690343E069034313430B60002027
:10449000A062E06220636063A063012384F821309E
:1044A00084F8200010BDAC211848FCF784FF9FE77A
:1044B000AD211648FCF77FFF9FE7AE211348FCF7BC
:1044C0007AFF9FE7AF211148FCF775FFA2E7B02103
:1044D0000E48FCF770FFA5E7B1210C48FCF76BFF15
:1044E000A4E7B2210948FCF766FFAAE70C4B134486
:1044F000094AA2FB03231B099B002364094BE363C6
:10450000ADE70120704700BF086002408C09010838
:1045100007640240F89FFDBFCDCCCCCC00600240C8
:10452000F89BFDBF00640240F8B504460E461746EE
:104530001D465A1E4FF6FE739A4210D894F820304A
:10454000012B3BD0012384F8203094F82130DBB2DA
:10455000012B0AD0002384F820300220F8BD40F25D
:1045600083111748FCF727FFE8E7022384F821307E
:104570000023A3632268136823F0010313602B4612
:104580003A4631462046FFF7E7FEE36A5BB1226810
:10459000136843F00E0313602268136843F00103AD
:1045A00013600020DAE72268136823F00403136025
:1045B0002268136843F00A031360EDE70220CDE799
:1045C0008C09010808B590F82130DBB2022B03D02A
:1045D00004238363012008BD0268136823F00E03DF
:1045E00013600268136823F001031360036CC16B4E
:1045F000012202FA03F34B6080F82120002380F8A7
:104600002030436B13B198470020E4E70020E2E735
:1046100038B5C36B1A6804682568016C04238B40A5
:10462000134213D015F0040F10D0236813F0200F9D
:1046300003D1236823F004032360016CC26B0423BD
:104640008B405360C36A03B1984738BD02238B4047
:1046500013421AD015F0020F17D0236813F0200F61
:1046600006D1236823F00A032360012380F8213058
:10467000016CC26B02238B405360002380F8203012
:10468000836A002BE1D09847DFE7082303FA01F1A2
:104690001142DAD015F0080FD7D0236823F00E03AB
:1046A0002360026CC16B012303FA02F24A60836348
:1046B00080F82130002380F82030036B002BC4D019
:1046C0009847C2E72DE9F04782B005460C46B34B48
:1046D00098421FD003F5806398421BD003F5806396
:1046E000984217D003F58063984213D003F5806396
:1046F00098420FD003F5006398420BD003F5806316
:10470000984207D0A3F50063984203D0C921A4487A
:10471000FCF751FE23689AB212B11B0C1B041BB1AB
:10472000CA219F48FCF747FE6368012B1ED9112B55
:104730001CD0022B1AD0122B18D09A4A934215D0B3
:1047400002F58012934211D002F5801293420DD0EF
:10475000A2F5F812934209D002F58012934205D0D7
:1047600002F58012934201D0032B04D1A368022BDF
:1047700006D800264AE0CB218948FCF71CFEF5E765
:10478000CC218748FCF717FEF3E7DC218448FCF7CF
:1047900012FE72E0F1218248FCF70DFE9BE0062339
:1047A00000E000238B40034302327F4941F822306E
:1047B0007E4B1A68FB4303EA0201606810F4803FF5
:1047C00001D047EA0201794A1160526803EA020106
:1047D000606810F4003F01D047EA0201734A51605B
:1047E000926803EA0201606810F4801F01D047EA72
:1047F00002016E4A9160D2681340616811F4001F93
:1048000001D047EA0203694AD3600136276837FAC4
:1048100006F300F0BF804FF0010808FA06F818EA26
:104820000707F2D06368022B01D0122B35D15B4B06
:104830009D421FD003F580639D421BD003F580632A
:104840009D4217D003F580639D4213D003F580632A
:104850009D420FD003F500639D420BD003F58063AA
:104860009D4207D0A3F500639D4203D0DB214C4855
:10487000FCF7A1FD23690F2B87D8F208083255F801
:10488000220006F0070399000F238B4020EA030063
:1048900023698B40034345F822302A684FEA460AD1
:1048A0004FF0030909FA0AF96FEA090909EA020255
:1048B000636803F0030303FA0AF313432B6063688E
:1048C0005A1E012A03D9112B01D0122B15D1E368EE
:1048D000032B3FF65FAFAA6809EA0202E36803FA16
:1048E0000AF31343AB606B6823EA08086368C3F3F9
:1048F0000013B34043EA08036B60EB6809EA03095D
:10490000A36803FA0AF343EA0903EB60636813F050
:10491000805F3FF47AAF264B1A6A42F001021A62B6
:104920001B6A03F001030193019BB208911C1E4B0B
:1049300053F8210006F0030399000F238B4020EA6F
:104940000300164B9D423FF42CAF03F580639D425C
:1049500016D003F580639D4214D003F580639D4219
:1049600012D003F580639D4210D003F580639D4211
:104970000ED003F580639D423FF411AF072311E78A
:1049800001230FE702230DE703230BE7042309E7C5
:10499000052307E702B0BDE8F08700BF0000024032
:1049A000C40901080000111000000140000401408A
:1049B0000038024070B5064615460C4629B1012D57
:1049C00009D875B92404B46170BD4FF4DA71064892
:1049D000FCF7F1FCF3E740F2B5110348FCF7EBFC00
:1049E000EFE7B461F0E700BFC409010870470000B9
:1049F00008B5054B5B69034200D108BD024B586105
:104A0000FFF7F4FFF9E700BF0004014090F83E30E3
:104A1000DBB2402B13D00369B3F5804F1ED0036D7A
:104A2000002B2DD0036D012B33D1436CC3F3C8137E
:104A3000026803F0060343F0F103136129E0036DFC
:104A40002BB9436C026803F0FE03136121E0436C51
:104A5000026843F00103DBB213611AE090F83D30C5
:104A6000DBB2212B06D0436C026843F00103DBB2BA
:104A700013610EE0436C026803F0FE03136108E06B
:104A8000436CC3F3C813026803F0060343F0F0035A
:104A9000136100207047436C0268DBB21361002091
:104AA00070478AB090F83D30DBB2222B0AD0002349
:104AB000099303685A6909929B690993099B00202D
:104AC0000AB07047036D23B990F83E30DBB2402B3B
:104AD00017D0036D1BB90369B3F5404F1AD0438D4E
:104AE0009BB2002B26D1029303685A6902929A69FD
:104AF0000292029A1A6842F400721A600023036557
:104B0000DDE70023009303685A6900929B690093D4
:104B1000009BD4E70023019303685A6901929A69C4
:104B20000192019A1A6842F480721A60036D01338F
:104B30000365C4E7438D9BB2012B1AD0438D9BB212
:104B4000022B6FD00268136843F48063136003681C
:104B50005A6812F4006F03D05A6842F480525A60C7
:104B60000023089303685A6908929B690893089B7D
:104B7000C4E7C36A13F5803F19D0C36A042B3FD042
:104B8000C36A082B3CD0036B122B39D0C36A022BAB
:104B900030D00268136823F4806313600023059308
:104BA00003685A6905929B690593059BA6E702680D
:104BB000136823F48063136003685A6812F4006F6B
:104BC0000CD01A6822F480621A60002303930368F1
:104BD0005A6903929B690393039B8FE70022049217
:104BE0005A6904929A690492049A1A6842F400720B
:104BF0001A6083E70268136843F480631360CDE7AB
:104C00000268136823F4806313600023069303682B
:104C10005A6906929A690692069A1A6842F40072D4
:104C20001A606BE7C36A022B1BD00268136823F477
:104C3000806313600268136843F4006313600368C1
:104C40005A6812F4006F03D05A6842F480525A60D6
:104C50000023079303685A6907929B690793079B90
:104C60004CE70268136843F480631360E7E7438D01
:104C70009BB24BB1436A5A1C426202681B781361B3
:104C8000438D013B9BB2438500207047438D9BB20F
:104C90004BB103681A69436A591C41621A70438D0B
:104CA000013B9BB24385002070470000002800F0C4
:104CB000108170B504460368884A934208D002F513
:104CC0008062934204D040F279118548FCF773FB6F
:104CD0006368013B834A934200F29080A3681BB152
:104CE000B3F5804F40F09080E36823F47F7323F0A6
:104CF0000303002B40F08E802369B3F5804F03D06F
:104D0000B3F5404F40F08C806369012B00F28E8038
:104D1000A36933F0FE0340F08F80E36913B1402BA9
:104D200040F09080236A13B1802B40F0918094F87A
:104D30003D30002B00F0928002F04CFE6A4B98420E
:104D400040F2C980242384F83D302268136823F0A0
:104D500001031360654BA3FB00239B0C21684A6889
:104D600022F03F021A434A6025682A6A22F03F0275
:104D700066685F498E4277D8013313432B622568FA
:104D8000EB6923F44F4323F0FF03626858498A42DA
:104D900074D85200B0FBF2F0C0F30B02032A00D823
:104DA00004201843E86121680B6823F0C003E2691E
:104DB000206A024313430B6021688B6823F403438A
:104DC00023F0FF032269E068024313438B602168EC
:104DD000CB6823F0FF036269A06902431343CB60F1
:104DE0002268136843F0010313600020206420232D
:104DF00084F83D30206384F83E0070BD4FF4BD71EF
:104E00003748FCF7D8FA69E740F27B113448FCF7E1
:104E1000D2FA69E74FF4BE713148FCF7CCFA6BE780
:104E200040F27D112E48FCF7C6FA6DE74FF4BF71D2
:104E30002B48FCF7C0FA6BE740F27F112848FCF7DB
:104E4000BAFA6AE74FF4C0712548FCF7B4FA69E78B
:104E500040F281112248FCF7AEFA68E784F83C3052
:104E60002046FCF779FD67E74FF4967101FB03F3E9
:104E70002049A1FB03139B0901337EE7A6688EB985
:104E800002EB4201B0FBF1F1C1F30B01B1FA81F188
:104E90004909E1B996B902EB4202B0FBF2F040F4E5
:104EA00000407EE702EB820101EB8101B0FBF1F1F2
:104EB000C1F30B01B1FA81F14909EAE702EB820281
:104EC00002EB8202B0FBF2F040F4404069E70120BF
:104ED00067E70120704701208FE700BF00540040C2
:104EE000FC0901087F1A06007F841E0083DE1B4335
:104EF000A0860100D34D621070477047704708B517
:104F0000438D9BB28BB1436A5A1C426202681B7884
:104F10001361438D013B9BB24385438D9BB223B903
:104F200090F83D30DBB2292B01D0002008BD02688B
:104F3000536823F48063536021230363282380F89C
:104F40003D30FFF7DBFFF0E7704708B5438D9BB2BC
:104F50008BB103681A69436A591C41621A70438D08
:104F6000013B9BB24385438D9BB223B990F83D3002
:104F7000DBB22A2B01D0002008BD0268536823F45D
:104F80008063536022230363282380F83D30FFF7BA
:104F9000DBFFF0E7704708B503689A6912F0040F69
:104FA00009D000219B6913F0800F06D0028BFFF718
:104FB000F1FF002008BD0121F4E78289F7E770477F
:104FC00008B5C36A042B02D0C36A082B04D190F839
:104FD0003D30DBB2282B0AD090F83D30DBB2212BDC
:104FE0001FD003686FF480625A61002008BD1A4B1D
:104FF000C3620268536823F4E063536003686FF48C
:1050000080625A610268136823F48063136000238E
:105010000363202280F83D2080F83E30FFF7CFFF69
:10502000E3E70D4BC36221230363202380F83D3067
:10503000002380F83E300268536823F4E063536035
:1050400003686FF480625A610268136823F4806316
:105050001360FFF753FFC8E70000FFFF704708B574
:10506000038D23B990F83D30DBB2212B0BD090F8A3
:105070003D30DBB2212B45D090F83E30DBB2402BE7
:105080003BD0002008BDC36A042B06D0C36A082B9E
:1050900003D0C36A13F5803F19D10268536823F423
:1050A000E06353600268136843F4007313600023E5
:1050B0000363202380F83D3090F83E30DBB2402B74
:1050C00015D0002380F83E30FFF716FFD9E70268BD
:1050D000536823F4E063536011230363002380F8D3
:1050E0003E30202380F83D30FFF706FFC9E700235C
:1050F00080F83E30FFF7B2FFC3E790F83D30DBB2F7
:10510000222BBED1438D9BB253B1436A5A1C4262DB
:1051100002681B781361438D013B9BB24385B0E766
:105120000268536823F480635360AAE708B590F8D7
:105130003D30DBB2212B01D0002008BD438D9BB256
:105140001BBBC36A042B06D0C36A082B03D0C36AF7
:1051500013F5803F24D10268536823F4E063536061
:105160000268136843F40073136000230363202371
:1051700080F83D3090F83E30DBB2402B20D0002349
:1051800080F83E30FFF7B8FED6E7436A5A1C426209
:1051900002681B781361438D013B9BB24385CBE7CB
:1051A0000268536823F4E063536011230363002310
:1051B00080F83E30202380F83D30FFF79DFEBBE7AE
:1051C000002380F83E30FFF749FFB5E7704708B588
:1051D00090F83D30DBB2222B01D0002008BD438D7A
:1051E0009BB2032B2ED8438D9BB2022B35D0438D1F
:1051F0009BB2032B31D0C36A022B47D002681368DD
:1052000023F4806313600268536823F4E0635360FF
:1052100003681A69436A591C41621A70438D013B45
:105220009BB24385202380F83D3090F83E30DBB2BE
:10523000402B31D012230363002380F83E30FFF768
:105240005CFECAE703681A69436A591C41621A7016
:10525000438D013B9BB24385BFE7C36A022B0FD04E
:105260000268136823F4806313600268136843F4D0
:10527000006313600268536823F480635360ACE7F3
:105280000268136843F480631360F3E702681368ED
:1052900043F480631360B6E70023036380F83E3075
:1052A000FFF794FF99E708B5438D9BB2032B0FD00E
:1052B000438D9BB2022B25D003681A69436A591C9F
:1052C00041621A70438D013B9BB24385002008BDAB
:1052D000C36A042B06D0C36A082B03D0C36A13F534
:1052E000803F04D10268136823F48063136003686D
:1052F0001A69436A591C41621A70438D013B9BB283
:105300004385E3E7C36A042B15D0C36A082B12D088
:10531000C36A13F5803F0ED0C36A022B05D0026822
:10532000136823F4806313600AE00268136843F48F
:105330008063136004E00268136843F40073136031
:1053400003681A69436A591C41621A70438D013B14
:105350009BB2438503681A69436A591C41621A70FB
:10536000438D013B9BB243850268536823F440732D
:105370005360202380F83D3090F83E30DBB2402B64
:1053800007D012230363002380F83E30FFF7B5FDFA
:105390009CE70023036380F83E30FFF717FF95E793
:1053A0007047704710B5044690F83D30293B012BFB
:1053B00037D990F83D30DBB2602B07D003685B68CB
:1053C00013F4006F02D1202380F83D3000232363C3
:1053D00084F83E302268136823F400631360236866
:1053E0005A6812F4006F3FD05A6822F400625A6083
:1053F000626B92F82130DBB2012B18D03A4B536329
:10540000606BFFF7DFF800283FD02268136823F0B5
:1054100001031360202384F83D30606B436B984791
:1054200033E000230363282380F83D30D2E7A36BE9
:105430002D4A5A63A06BFFF7C5F830B323685A6949
:1054400012F0400F04D01A69636A591C61621A7025
:105450002268136823F001031360202384F83D3091
:10546000A06B436B984710E094F83D20D2B2602ABD
:1054700011D05A6912F0400F04D01A69636A591C9E
:1054800061621A702046FFF78BFF94F83D30DBB263
:10549000282B17D010BD202284F83D200022226442
:1054A0005A6912F0400F04D01A69636A591C61628C
:1054B0001A702268136823F0010313602046FFF777
:1054C00070FFE2E7236C13F0040FE3D0074BE362B5
:1054D00000232363202284F83D2084F83E302046B8
:1054E000FFF76DFDD6E700BF555800080000FFFF2D
:1054F00000B583B00268536823F4E063536000236F
:10550000019303685A6901921A6842F001021A6015
:10551000019B0268136823F4806313600268536878
:1055200013F4006F14D090F83D30DBB2222B0AD078
:1055300090F83D30DBB22A2B05D0436B1B685B68CB
:105540009BB2438504E0836B1B685B689BB2438519
:10555000438D9BB2F3B1536913F0040F08D0126965
:10556000436A591C41621A70438D013B9BB24385CB
:1055700003685A6912F0400F08D01A69436A591C2F
:1055800041621A70438D013B9BB24385036C43F02B
:1055900004030364036C03BB90F83D30DBB2282B9B
:1055A0001ED090F83D30DBB22A2B19D090F83D3058
:1055B000DBB2292B14D0036B222B04D090F83D30A2
:1055C000DBB2222B17D100230363202280F83D2079
:1055D00080F83E30FFF7B8FC0DE0FFF7E3FE0AE08D
:1055E000074BC36200230363202280F83D2080F82C
:1055F0003E30FFF7E4FC002003B05DF804FB00BF81
:105600000000FFFFF8B5054603689F695C695E68A6
:1056100090F83E30DBB2102B29D090F83E30DBB250
:10562000402B24D04C4B234013B116F4007F70D193
:105630004A4B234013B116F4007F6DD1484B3B40D9
:10564000002B71D0474B234033B116F4806F03D049
:10565000454B2340002B63D0434B2340002B4FD0BE
:1056600016F4007F4CD02846FFF701FB48E014F009
:10567000011F02D016F4007F23D13C4B234013B10D
:1056800016F4007F21D1344B234013B116F4007F70
:105690001FD12B6D2BBB324B3B4013B3314B2340FF
:1056A0002BB116F4806F02D02F4B2340ABB12E4BA1
:1056B00023402BB316F4007F22D02846FFF736FD97
:1056C0001EE02846FFF7A2F9E3E72846FFF7E3F9D3
:1056D000DFE72846FFF7E5F9DBE72846FFF7BFFCE1
:1056E0000EE0234B23402BB116F4806F02D01E4BEB
:1056F000234033B11C4B234013B116F4007F04D177
:10570000F8BD2846FFF763FDFAE72846FFF7CBFD13
:10571000F6E7FFF740FCF3E72846FFF7E9FEEFE77F
:105720002846FFF7ECFBEBE7114B23402BB116F4B7
:10573000806F02D00C4B234053B10B4B2340002B06
:10574000DED016F4007FDBD02846FFF79FFAD7E7BC
:105750002846FFF7FAFBD3E7020001001000010022
:1057600004000200800001000400010008000100A4
:105770004000010070B5044603685D695E68344A04
:10578000154209D016F4807F06D0026C42F0010267
:1057900002646FF480725A6115F4813F0AD016F4E6
:1057A000807F07D0236C43F00203236423686FF4E7
:1057B00000725A6115F4823F14D016F4807F11D024
:1057C00094F83E30DBB2202B1DD0236C43F0040351
:1057D000236494F83E30DBB2102B2ED023686FF494
:1057E00080625A6115F4843F0AD016F4807F07D096
:1057F000236C43F00803236423686FF400625A614A
:10580000236C03BB70BD638D9BB2002BDDD194F87C
:105810003D30DBB2212B0CD094F83D30DBB2292B8C
:1058200007D094F83D30DBB2282BCED1236B212B4F
:10583000CBD12046FFF7C4FBD4E72268136843F4BA
:1058400000731360CAE72046FFF7ACFDDAE700BF3C
:105850000001010008B5406A0268136823F4806300
:10586000136000234385426B5363826B536390F84C
:105870003D30DBB2602B0DD0202380F83D3000237B
:1058800080F83E300268136823F001031360FFF7CD
:1058900087FD08BD202380F83D30002380F83E308E
:1058A00003640268136823F001031360FFF779FDB6
:1058B000EFE701335B0800EB420202F5806263B15F
:1058C00010B40C78487844EA002422F8044B0231E2
:1058D000013B002BF5D110BC7047704710B4013369
:1058E0005B0800EB420202F20444D2F800040A46CC
:1058F00002F8020B000A487004E0216822F8021B3B
:10590000013B0434002BF8D110BC7047002858D05C
:1059100010B5044602682C4B9A4203D095212B48BF
:10592000FBF749FD94F8E93123B1032384F8E93109
:10593000002215E084F8E8312046FBF771FDF4E71A
:10594000D100891A8B002344012183F8291083F8A0
:105950002820002183F82B1059639963D963013201
:1059600060689042ECD8002211E0D100891A8B00C7
:105970002344002183F8091183F8082183F80B11CF
:10598000C3F81411C3F81811C3F81C110132904266
:10599000EBD822680123A2F8403022680020A2F848
:1059A00040002268A2F844002268A2F85000226851
:1059B0004FF43F41A2F8401084F8240084F8E93104
:1059C00010BD0120704700BF005C0040340A010890
:1059D00090F8E831012B0FD0012380F8E83141B96C
:1059E00003688022A3F84C20002380F8E831184691
:1059F000704780F82410F7E70220704770B44DB26A
:105A0000002D1DDB01F07F06C6EBC606B40004F5D1
:105A10008474044401F07F012170ED0F6570E26031
:105A2000E37090F8E831012B00F0A181012380F8A8
:105A3000E831E378032B17D8DFE803F00A78606BCE
:105A400001F07F06C6EBC606B40028340444E1E743
:105A50000268217832F8213023F4EC4323F07003FC
:105A600043F4007322F821300168227831F82230A3
:105A700023F0F0031B051B0D134343F4004343F0D5
:105A8000800321F82230A37A002B40F0B0806378A5
:105A9000002B58D0A3880268B2F85010257801EB8B
:105AA000C50102EB41025B085B00A2F8003402680A
:105AB000217832F8213013F0400F09D023F0F003A1
:105AC0001B051B0D43F4004343F0C00322F82130B3
:105AD0000268217832F8213023F4E04323F04003B8
